:020000040001F9
:10600000004000201D6201002F620100316201008A
:106010000000000000000000000000000000000080
:1060200000000000000000000000000033620100DA
:10603000000000000000000035620100376201002E
:106040003962010039620100416D010039620100CD
:10605000396201000000000039620100396201006C
:1060600039620100396201003962010039620100C0
:1060700039620100396201003962010039620100B0
:1060800039620100956B010039620100396201003B
:10609000456C0100396201004D6C0100396201005C
:1060A00039620100396201000000000000000000B8
:1060B00000000000000000000000000000000000E0
:1060C00000F002F800F039F80CA030C808382418A5
:1060D0002D18A246671EAB4654465D46AC4201D120
:1060E00000F02BF87E460F3E0FCCB6460126334219
:1060F00000D0FB1AA246AB4633431847483E000087
:10610000683E00000023002400250026103A01D339
:1061100078C1FBD8520700D330C100D50B6070475F
:106120001FB5C046C0460098019900F09EFB00F0E4
:10613000DFFA1FBD002002F00AF802F081F81146D4
:10614000FFF7EEFF00F01DFD02F0EFFB401E00BF69
:1061500000BF00BF00BF00BF00BF00BF00BF00BF47
:1061600000BF00BF00BFF1D170470000144C144DB8
:106170000646064FF0B4034C024D024E014FF0B4F8
:106180000748004700000000000000000000002158
:1061900000000000000000000000000000000000FF
:1061A000F9FFFFFF016881F308884068034AEFF3B5
:1061B00005839A42DAD1024CA6460047000000004F
:1061C000FFFFFFFF401E00BF00BF00BF00BF00BFBA
:1061D00000BF00BF00BF00BF00BF00BF00BFF1D1C4
:1061E0007047000070B505460C46164602E00FCC1D
:1061F0000FC5103E102EFAD2082E02D303CC03C5D1
:10620000083E042E07D301CC01C5361F03E02178D8
:106210002970641C6D1C761EF9D270BD0748026897
:106220000F210A4302600648804706480047FEE700
:10623000FEE7FEE7FEE7FEE7FEE70000240500407C
:10624000A16C0100C16001004343514330B55C18AB
:10625000010C130C0D4692B25D4380B251432C19D0
:10626000054655430A0C09044D1962415843010C77
:1062700000044019514130BDFEB5054610460C469C
:10628000184373D0AE468C460020AD1A01469C419F
:1062900067D36646002701243D46B61A9D4102D3C6
:1062A00013463A462124654676462F04360C3E4373
:1062B0002D0CB61A9D4104D3150C1B042B4312045C
:1062C0001034654676462F06360A3E432D0AB61A26
:1062D0009D4104D3150E1B022B4312020834654660
:1062E00076462F0736093E432D09B61A9D4104D341
:1062F000150F1B012B431201241D65467646AF077F
:10630000B6083E43AD08B61A9D4104D3950F9B00D5
:106310002B439200A41C65467646EF0776083E4361
:106320006D08B61A9D411AD392185B41641C16E0A1
:106330000018764665464941B71A9D410191009083
:1063400009D36046B11A98418E4684460098019957
:106350000025401C6941DD0752082A435B08641E82
:10636000E6D57246634603B0F0BDFFE70020014664
:10637000C046C0462A462346F5E7034610B50B4300
:106380009B070FD1042A0DD308C810C9121FA342BE
:10639000F8D018BA21BA884201D9012010BD0020D6
:1063A000C04310BD002A03D0D30703D0521C07E01E
:1063B000002010BD03780C78401C491C1B1B07D122
:1063C00003780C78401C491C1B1B01D1921EF1D193
:1063D000184610BD30B5441C03E00178401C00296C
:1063E0000DD08107F9D10B4BDD0104C8D11A9143BF
:1063F0002940FAD0001B0A0603D0C01E30BD001B86
:1064000030BD0A0401D0801E30BD0902FCD0401E00
:1064100030BD000001010101F8B5042A2CD3830727
:1064200012D00B78491C0370401C521E83070BD0FE
:106430000B78491C0370401C521E830704D00B7854
:10644000491C0370401C521E8B079B0F05D0C91AB4
:10645000DF002023DE1B08C90AE0FFF7C3FEF8BDFA
:106460001D4608C9FD401C46B4402C4310C0121FF5
:10647000042AF5D2F308C91A521EF0D40B78491C2D
:106480000370401C521EEAD40B78491C0370401C58
:10649000521EE4D409780170F8BD134610B50446C5
:1064A000CAB219461002821810048218204600F061
:1064B00018F8204610BDD2B210B513029A18130472
:1064C0009A1800F00EF810BD01E004C0091F04295D
:1064D000FBD28B0701D50280801CC90700D0027057
:1064E000704700290BD0C30702D00270401C491E20
:1064F000022904D3830702D50280801C891EE3E7AA
:106500000022EEE70022DFE7002203098B4273D36B
:10651000030A8B4258D3030B8B423CD3030C8B42B0
:1065200021D312E003460B437FD4002243088B4261
:1065300074D303098B425FD3030A8B4244D3030B0A
:106540008B4228D3030C8B420DD3FF22090212BACF
:10655000030C8B4202D31212090265D0030B8B424B
:1065600019D300E0090AC30B8B4201D3CB03C01A35
:106570005241830B8B4201D38B03C01A5241430B10
:106580008B4201D34B03C01A5241030B8B4201D300
:106590000B03C01A5241C30A8B4201D3CB02C01A6B
:1065A0005241830A8B4201D38B02C01A5241430AE3
:1065B0008B4201D34B02C01A5241030A8B4201D3D2
:1065C0000B02C01A5241CDD2C3098B4201D3CB0179
:1065D000C01A524183098B4201D38B01C01A524128
:1065E00043098B4201D34B01C01A524103098B422C
:1065F00001D30B01C01A5241C3088B4201D3CB0017
:10660000C01A524183088B4201D38B00C01A5241F9
:1066100043088B4201D34B00C01A5241411A00D2A9
:1066200001465241104670475DE0CA0F00D0494212
:10663000031000D34042534000229C4603098B4282
:106640002DD3030A8B4212D3FC22890112BA030A0A
:106650008B420CD3890192118B4208D3890192118C
:106660008B4204D389013AD0921100E08909C30911
:106670008B4201D3CB01C01A524183098B4201D313
:106680008B01C01A524143098B4201D34B01C01AFE
:10669000524103098B4201D30B01C01A5241C30876
:1066A0008B4201D3CB00C01A524183088B4201D3E5
:1066B0008B00C01A5241D9D243088B4201D34B0000
:1066C000C01A5241411A00D20146634652415B1042
:1066D000104601D34042002B00D549427047634623
:1066E0005B1000D3404201B50020C046C04602BD49
:1066F00070B5064C7C44064D7D4403E020680019CB
:106700008047241DAC42F9D170BD00006C380000F8
:106710007038000001460002CA1504D00123DB07CF
:106720001843002A12DBBE239A1A0AD40146D1402C
:106730001346203B01D4D840704720239A1A90403A
:106740007047FF2248001206904202D900200146FD
:106750007047C817C043C117704700000048704712
:1067600070250020004870477425002070B506464B
:1067700000F05EF8056830460B30C408E400B4420F
:1067800001D8002070BD68682A46002818D001682A
:10679000A14211D30B46214608318B4208D34368EE
:1067A00001194B6003681B1B0B605160046001E022
:1067B00041685160001D70BD024640680028E6D166
:1067C0002146284600F03CF80028DCD170BD70B5A9
:1067D0000446051F00F02CF80068002C1AD044680D
:1067E00001E020466468002C01D0AC42F9D3016876
:1067F0000A18AA4204D12A6805468918016000E0F7
:10680000456028684119A14205D161686960216825
:106810004018286070BD6C6070BD10B500F060F865
:1068200000F057F810BD10B500F072F810BD000070
:1068300000487047782500207047704770477047C0
:1068400038B504460A460020694600F0C3F800281F
:1068500005D002462046009900F06EF8012038BDB0
:1068600010B5012000F0A4F810BDF8B500F0A6F8AE
:10687000054600200C461020C0460646A819A04236
:106880000DD932466946002000F0A4F8070001D176
:1068900000F08EF80098A04200D00546C419FFF71A
:1068A000C7FFF61D07460560F008C00046192846D8
:1068B00000F008F8B44204D031463868A21B00F05A
:1068C0003BF8F8BD002101604160806070471020F6
:1068D000704710B5002801D000F028F810BD000066
:1068E00010B5002102A000F049F8012010BD000001
:1068F0005349475056464E3A205075726520766986
:10690000727475616C20666E2063616C6C656400E6
:1069100010B500F07EF80169002903D00022026161
:10692000884701E08068804700F020F8014918207E
:10693000ABBEFEE72600020010B50346406801E04A
:1069400003464068002801D08842F9D31868C3186C
:106950008B4206D0CB1CD808C000001D411A521A29
:106960000146081D0A60FFF732FF10BD002000F04D
:1069700083F8C046C0460120FFF7D8FF70B5054632
:106980000C460A2000E06D1C00F06AF8002D06D0CD
:1069900028780028F7D102E0641C00F061F8002C90
:1069A00002D020780028F7D10A2000F059F870BDF5
:1069B00010B500F067F8FFF78CFF10BD01226946A3
:1069C000114B120382188A421A6001D8114670478F
:1069D0001960704770B50C4C6D460126360323686C
:1069E000AD1B9A18AA420ED8AD1A9019EE0F751960
:1069F0006D10AA18904200D91046C01D0B60C20845
:106A0000D200D01A226070BD1C21002010B5FFF703
:106A1000ADFF70B500F02CF804680546002C15D1C8
:106A20002020FFF7A3FE040012D02C60094961600A
:106A3000002020600849A16020732061074960613F
:106A4000A061002901D000F045F8E061204670BD4A
:106A5000FFF78CFF000000000D6A0100000000003D
:106A600008B5694608700320ABBE08BD704700003A
:106A7000004870477C25002010B500F04DF8FFF766
:106A800028FF10BD10B5012805D0002103A0FFF795
:106A900075FF012010BD09A1F8E7000053494752D6
:106AA000544D454D3A204F7574206F6620686561DE
:106AB00070206D656D6F7279000000003A204865A6
:106AC0006170206D656D6F727920636F7272757081
:106AD0007465640010B58820FFF748FE002801D0D7
:106AE0000021017010BD802904D8002802D001784F
:106AF000002901D000207047012101700830704743
:106B0000002803D002460832914201D0002070478D
:106B1000002101707047000010B5002102A0FFF7AE
:106B20002DFF012010BD0000534947414252543A05
:106B30002041626E6F726D616C207465726D696E5A
:106B40006174696F6E00000030B58C180278401CCB
:106B500013071B0F01D10378401C120906D10278DC
:106B6000401C03E00578401C0D70491C5B1EF9D1E8
:106B700001E00B70491C521EFBD1A142E6D300205C
:106B800030BD10B502F025FB02F022FB01F07CFFC6
:106B900010BD0000F8B5254800210160416081600A
:106BA000C160234A11605068224E002808D0B36AA1
:106BB000F06A01252D065B1900246041B362F06282
:106BC000002050603469601C2FD01B4800274068AB
:106BD0007169401A05022D0A24204443B068221826
:106BE0005068A8420ED8B3692D1AC719146A002B31
:106BF00003D0D1699069984702E09169D0698847CC
:106C0000601CE9D1B178F078814206D1401CC0B255
:106C1000F070022801D10020F07000060749800DB5
:106C20000F500120064900050860F8BD40110140E1
:106C30000011014040200020001501405C20002090
:106C400000E200E010B502F09FFB10BD10B508484F
:106C50004068002808D08047002804D0FF2105A202
:106C6000343101F0F5FA10BD01F0CCFE10BD00008A
:106C7000242000202F7372632F6E52463531383234
:106C8000322F6E6F726469632F736F6674646576FA
:106C90006963655F68616E646C65722E6370700015
:106CA00030B42148214A018CCBB20121012B17D1EC
:106CB000848C240714D1048D2406250F03D1858DDF
:106CC0002D062D0F0FD0240F012C03D1858D2D06FD
:106CD0002D0F08D0032C03D1848D2406240F02D05D
:106CE000012B07D014E0124B53600123114CDB033E
:106CF000A36102E0838C1B070AD1038D1B061B0FC7
:106D0000042B05D1808D0006000F01D10A48816057
:106D100091610A4800224260820591604168002921
:106D2000FCD030BC70470000C00F00F000050040F0
:106D3000DFFF07C0006C004000060040000100407B
:106D40000C4841680A060C4904D5CA69002A01D0DA
:106D5000012106E0406840070AD58868002807D06E
:106D6000002106480068002802D0044A92681047B3
:106D700070470000002300400021004070200020E8
:106D800038B50246074814230178074C59430818C0
:106D9000C36801791B01E458C388009343690C3030
:106DA000A04738BD00230020CC230020F8B5394986
:106DB00014230A780F205A435418241D3649227888
:106DC0008F88E668022A24D001252D07042A33D0B3
:106DD000052A1DD1286981B23046FFF795FB01468F
:106DE000A38828699A1980B24843101A82086088DB
:106DF0001818861928694B1C80B25843801B8308D9
:106E0000204600F077F9002802D1224901228A7039
:106E1000F8BDB80262882169121A0918A3883018CF
:106E2000181801239B029A4202D2920821DFEAE756
:106E3000FF22013221DFE6E7A3681848190108188C
:106E4000018942894068B04203D160885143814240
:106E500018D0022B16D0286981B23046FFF754FBB8
:106E60000146286980B24843301A820828694B1CC1
:106E700080B2584363889B19C01A8308204600F0EB
:106E800039F9C0E7286981B23046FFF73DFBC019E8
:106E900020DFB8E70023002014200020CC230020AE
:106EA000F0B50446008883B0192858D064DC102857
:106EB00004D011281BD013285ED131E0A78800F040
:106EC000BBFE394600F068FF26460E36A51D00F0D1
:106ED000B3FE034629786A1C38465D6802273D43A5
:106EE0005D60DD68002D47D03346A84744E0A788A1
:106EF00000F0A2FE404900F04FFFA57900F09CFE93
:106F00000646426802208243726032692946002A9E
:106F100001D0384690473046143000F04AFE2BE04E
:106F20000020009001901E20694608808878012189
:106F30000843E12108400C30DF2108406946887091
:106F40000720C8701020087100F076FE00F022FFC4
:106F50006A4600217FDF0004000C4AD10CE0A079D2
:106F6000002809D100F068FE4168490849004160E5
:106F70008068002800D0804720480078C00734D1BE
:106F80001E4801F005F900282FD01D4D00262E7156
:106F90006E711C49EE60A9606E61AE61EE611A49C6
:106FA0002E62296119482860284660212430FFF7A5
:106FB000A9FA2846C0218430FFF7A4FA2846FF30FA
:106FC00060214530FFF79EFAFF20A5304655284640
:106FD000FF303021A730FFF793FA28460C4A0D49BD
:106FE00001F09FF80548C046C0460548214600F01C
:106FF00039FA03B0F0BD0000FFFF0000242100209B
:10700000802500205C9E01004C9E0100089E01002E
:1070100000600100D978010084B00022029228218A
:10702000684603920181FF21913141818281C181B2
:10703000501C0107090F10316846017005220AA192
:107040007CDF0004000C0CD10120400278DF00043A
:10705000000C06D102A87ADF0004000C01D177DF12
:1070600080B204B0704700006E52463578000000D0
:1070700070B5144C002025462856401C04D12C2203
:10708000114912A002F01CF86869006869680126BD
:107090000840002801D0002500E0012500202056EE
:1070A000401C04D1242208490E4802F009F8606807
:1070B000002D01D0E16800E0216908600A480670EF
:1070C00070BD000040240020C89B01006F626A2D43
:1070D0003E70696E20213D202850696E4E616D65BD
:1070E000294E4300249C01003820002010B502F0F6
:1070F00095F810BDFFB581B00F465E4D049B039916
:1071000006466A78194303208E46002A03D10029D7
:1071100012D001216970039A697801249200240732
:10712000009207297BD20B007B441B79DB189F441C
:1071300076051F324F7886000221EBE74E48416901
:10714000491C05D02169406989B2FFF7DDF900E0EB
:1071500060692169401E89B24843216909048A0C8B
:10716000216989B2794321DF002858D1022155E0F5
:10717000384620DF002852D10399002901D003218D
:107180004CE00499002904D13178042942D1072127
:1071900044E0042142E038484169491C05D0216996
:1071A000406989B2FFF7B0F900E060692169401ECB
:1071B00089B241432069039A80B2784321DF0028D5
:1071C0002DD104990029E4D13178042925D021E07A
:1071D00029484169491C05D02169406989B2FFF7F6
:1071E00093F900E060692169401E89B248437188C3
:1071F000421800981018226992B27A4352180099E6
:10720000531801461846049A21DF002807D1317827
:10721000042902D0052101E001E00621697005B0D2
:10722000F0BD2069718880B2784380188A0831697E
:1072300021DF0028F3D171460029EED1A7E70E48DF
:107240004169491C05D02169406989B2FFF75CF9A1
:1072500000E060692169401E89B24843216989B212
:10726000FFF752F920DF0028D9D10721697005B056
:10727000F0BD0000142000200010001010B5134CC9
:1072800020680168896888470168C96888470028BC
:107290001BD120466030017800290ED000210170FA
:1072A0002068016849688847016822468B6838323F
:1072B000214610319847002807D1206801684968A5
:1072C00088470168CA68211D904710BDDC23002053
:1072D000004870471020002010B50846114601F004
:1072E0008FF910BD10B5808F0988884206D10448F7
:1072F0000068002800D0804701F084F910BD00002C
:107300000420002070B516461D4604461422FFF7DF
:1073100083F825750020A661A083204670BDF3B5D3
:107320008FB00546109801F09BFA0B9008AA0BA9A4
:107330000120A0DF002871D169461098098C818353
:1073400000200C901098007D00287ED92F46FF3732
:10735000A1371098017D0C98814201D8002004E0EB
:10736000109881690C9880000858059040690028A1
:1073700008D10598008B002804D1059820300078AA
:1073800002285DD0059801F06BFA0B90059820302B
:107390000790099001786A798C460599D2000C8B88
:1073A0004E8B4B69417A807A521984320492029151
:1073B00003900196009462460BA9002001F0C2F9E7
:1073C00000282BD16879059A81004B19411C6971FD
:1073D0005A620599002688830998007A00282FD9D7
:1073E0000798007AB04201D8002003E00598B10068
:1073F000406A4058044601F033FA0B903979238BE8
:107400004900608B49196269FF31A73101910090F1
:107410000BA9002001F0F9F9002802D0032011B0D7
:10742000F0BD3B79FF2198004219581C4531387155
:107430005450A3830798761C007AF6B2B042CFD896
:107440000C98401CC0B20C9000E005E01098017D43
:107450000C98814200D97CE72879401C28710020D3
:1074600011B0F0BDF0B5054608880C1D99B0512843
:1074700070D030DC01284AD050282AD16A79678838
:107480000020002A40D981004919496A2031097831
:107490008906890F34D0C100491980310989B94260
:1074A0002ED182005219526AA18B20321278930693
:1074B00001D58B0703D4D20615D5C90713D00321F4
:1074C000032912D0042916D0052902D1296A0029DE
:1074D0000ED119B0F0BD522835D05328F9D105206E
:1074E0000A9067883EE00421EAE7A9690029F0D004
:1074F000884719B0F0BDE9690029F9D119B0F0BD8C
:10750000401CC0B28242BED802200A902AE0EC6839
:107510000E7A002CF2D02168002902D0304688472C
:1075200009E06068002806D0A369002B03D021463B
:10753000324608319847E0690028DFD0314602F032
:10754000D9FA19B0F0BD002220881146A9DF19B080
:10755000F0BDFFE7A078012821D00228F7D107204D
:107560000A90A788687900260028F0D920461C30A8
:107570001390801C1290F000401980308088B8422F
:1075800076D10A9802280ED0062872D0072832D069
:1075900003286FD004286ED0052869D1FAE00620B0
:1075A0000A90A788DEE768460687217908A88176D1
:1075B000218B68468187618BC18713981090686919
:1075C0000EA9002854D0009101900168002902D032
:1075D0000098884709E04068002806D001998B6927
:1075E000002B02D00831009A98470198C069002802
:1075F0003ED0009971E0002000900190029003902D
:1076000068460680618B4180A18B81801298674B10
:1076100002900FCB0490B000079306920591401999
:10762000406A2A22125C6946002A1FD001220A738E
:107630004C300B910C900168002902D00B988847C0
:1076400009E04068002806D00C998B69002B02D015
:1076500008310B9A98470C98C069002802D00B9902
:1076600002F0E6F96846007B002805D0002005E01E
:1076700075E035E084E089E0FF20043069468882C7
:10768000208804A9A8DF6946888A002867D18E85EA
:10769000A17908A88173618B68460186A18B418618
:1076A00012980D9069690BA8002976D01591149055
:1076B0000968002901D088470AE015984068002829
:1076C00006D015998B69002B02D00831149A98477F
:1076D0001598C069002860D0149902F0F1F95CE0B7
:1076E0000020009001900290039068460680218B54
:1076F0004180B0004019406A2922125C6946002A84
:107700001BD001220A732C300B910C9001680029C8
:1077100002D00B98884709E04068002806D00C99F1
:107720008B69002B02D008310B9A98470C98C069DE
:10773000002802D00B9902F061F91C4B10330FCBDB
:1077400004900793069205916846007B012807D0B4
:10775000FF20033069468882208804A9A8DF1CE046
:1077600000206946888202980028F5D001216846E9
:107770008175418801838188418302980790EBE7F6
:10778000A969002909D03046884706E0E96900293F
:10779000F9D102E0296A0029F5D1761C6879F6B2A0
:1077A000B04200D9E7E619B0F0BD0000649B0100CB
:1077B000FFB506463E4885B000780E9C0D46C007D2
:1077C0001DD13B4800F0E4FC002818D039483A4964
:1077D0000160002141608160C160016104211430B9
:1077E00000F0F8F91438354901600021C94381845B
:1077F000334A344900F095FC2D48C046C0462D4818
:1078000000F0C8FA0246E8008019214680300027BF
:107810000446002908D0808808AA0021079BA4DF1D
:1078200000283ED109B0F0BDA8008019416A20317E
:1078300009788906890F2DD023498A422AD0A18848
:107840006B461980406A20300078C00601D50120BF
:1078500000E002209870002098800798039008A804
:10786000029019461046A6DF0004000C1CD0082820
:107870000ED0164988420BD0112809D014498842ED
:1078800006D0A08808AA0021079BA4DF002808D101
:10789000042709E0A08808AA0021079BA4DF00288C
:1078A00002D0032009B0F0BD384609B0F0BD000099
:1078B0002C210020582700206C9E0100A89E01006A
:1078C000006001009D7D0100FFFF0000033000000B
:1078D000013400000020704770B510490546016072
:1078E00010350F4828606C68002C05D02046E469EC
:1078F00000F0EAFB002CF9D100266E60083D094833
:1079000028606C68002C05D02046E46900F0DCFBA0
:10791000002CF9D1284608386E6070BDF09D01003A
:107920004C9E01005C9E0100704713B56946898832
:107930008184022301AA192100F00CF802B010BDC5
:1079400010B504461F21001DFEF7DCFD0020203489
:10795000E07010BDFFB504460E462034E1789A1C55
:107960008A1881B01D461F2A02D9012005B0F0BD3A
:10797000071DC8196A1C0121FEF79DFDE0783246FB
:10798000401CC0B2E070C0190121FEF794FDE07800
:107990002A46401CC0B2E070C0190399FEF73CFDB6
:1079A000E0784019E070002005B0F0BD13B5012368
:1079B00001AA1946FFF7CEFF02B010BD10B504466C
:1079C000064820601F21201DFEF79CFD002123207A
:1079D000015501204002A084204610BD2C9E0100CC
:1079E0007047F8B5164604461D461422069FFEF75A
:1079F00013FD6661258300206783A0832146203123
:107A0000079A0A70089A6262099A0A724872887222
:107A1000E06220636063A063E06320646064A0644C
:107A2000E06420656065A065E06520666066A0662C
:107A30002046F8BD10B4124C04600171C28003816D
:107A4000012908D00124A403032907D0202A0CD23D
:107A50002021C1800CE00021C18009E0A02A01D2D0
:107A6000A021F6E7A24202D802E0A24200D9C480D7
:107A7000002B03D003498B4200D9018110BC704711
:107A80003C9E0100FF3F0000704770B500250E4688
:107A9000044605701021401CFEF732FD658210225D
:107AA0003146601CFEF7B8FCF078B178000208435C
:107AB00040BA6082002103E0022912D003290ED0CF
:107AC00060184078002805D001202070E5702571ED
:107AD000204670BD491C1029EED3204670BD0421FC
:107AE000EEE70321E8E770B5044600200D4620705C
:107AF0001021601CFEF704FD6582204670BD016800
:107B00008968084708B50090083001F089FE08BD73
:107B100010B5083001F0ECFE10BD000010B50446B1
:107B2000054820600020A060E0602061606103489B
:107B300001F0FEFE204610BD149F0100FF7A0100F7
:107B40000168002900D008474368002B04D0014693
:107B50008269083118461047704701600021416072
:107B600070470022426082610160704770B515461F
:107B70001E460446FFF7CCFFE661A56101F096FEC4
:107B8000A269E169821800234B412046FFF7BAFF42
:107B900070BD10B50446C36882688169C069521817
:107BA00043412046FFF7AEFF20462030FFF7C8FFD5
:107BB00010BD70B50546C0680024002808DD68685F
:107BC000A1004058FFF7BCFFE868641CA042F6DC47
:107BD00070BD000070B50446084820600020606059
:107BE000A160E0608800054600F072FA2A46002194
:107BF000FEF753FC6060204670BD00003C9F010012
:107C0000F8B504460B4820600025E0682F460028A0
:107C10000ADD6068AE00805900F056FA60686D1C9D
:107C20008751E068A842F4DCE760606800F04CFA35
:107C30002046F8BD3C9F010010B512480078C007EF
:107C40001DD1104800F0A4FA002818D00E480F49A2
:107C50000160002141608160C16001610421143034
:107C6000FFF7B8FF14380A4901600021C943818435
:107C7000084A094900F055FA0248C046C046024881
:107C800010BD00002C210020582700206C9E010010
:107C9000A89E0100006001009D7D0100084678DF7C
:107CA000002800D00320704738B5112268460270C2
:107CB0000C460846FEF78EFB82B2214668467CDF02
:107CC000002800D0032038BD0A79012A01D1022002
:107CD000704710B4044601208003032ACA8885B087
:107CE0001DD0202A17D3824215D80889124A904203
:107CF00011D80020009001900290039004900B791D
:107D00006A4613701072C8881082088950826846CB
:107D100073DF002808D005B010BC03207047A02AEC
:107D2000F9D38242F7D8E0E7606801210843606038
:107D300005B010BC00207047FF3F0000F8B51546A5
:107D40000C46084600F0BDF91F2801D90120F8BDF6
:107D5000204600F0B6F900281AD0284600F0B1F904
:107D60000746284600F0A3F90646204600F0A9F988
:107D70000546204600F09BF93B463246294672DF15
:107D8000002805D1204600F09AF978DF0028DED0DF
:107D90000320F8BD808C70478184704710B503497B
:107DA00001601430FFF72CFF143810BD6C9E0100E9
:107DB000F0B5054600689FB00168C968884700288B
:107DC0007ED15F480078C0077BD15D4800F0E0F9C4
:107DD000002876D000205B4C149065605A482060E3
:107DE0000025204625810A3014210B90FEF788FBE0
:107DF0002746203755491AA8FFF747FE01460220BB
:107E00001822264607900A92039008361422384614
:107E1000FEF702FB7E6107983883039B7B83BD835B
:107E2000384620300A9A02707D620572457285726A
:107E3000FD623D637D63BD63FD633D647D64BD6440
:107E4000FD643D657D65BD65FD653D667D66843689
:107E50003F4915A8BD66FFF718FE0B9A014614238B
:107E6000042009920B90089307931A463046FEF7B8
:107E7000D3FA099A7261089B338307997183B5839A
:107E8000314620310B98087075620D724D728D72FB
:107E9000F56235637563B563F56335647564B56420
:107EA000F56435657565B565F56535667566B56600
:107EB000284D287800283AD1FF202072607201E016
:107EC00039E037E0244915A804970596FFF7DDFD52
:107ED0000146022304AA0CA8FFF714FA60680068A0
:107EE00001688968884701680A680CA990471B499E
:107EF0001498086001202870194960684E6800686D
:107F00000D680168896888470746202000F0E4F87A
:107F10000021016001614161C66085604460C1610A
:107F2000104981617969002907D0C16178610448ED
:107F3000C046C04600201FB0F0BD7861F7E70000E2
:107F40000020002030210020E49D0100409B010022
:107F5000509B010020210020309B010004200020C4
:107F6000289B0100659A010010B53830FFF738FDF5
:107F70002838FFF735FD0C38FFF786FD001F10BDD0
:107F800040DF704770B51D480078C00734D11B48EA
:107F900000F0FEF800282FD0194C002525716571DE
:107FA0001849E560A1606561A561E5611649256232
:107FB000216116482060204660212430FEF7A2FA95
:107FC0002046C0218430FEF79DFA2046FF30602114
:107FD0004530FEF797FAFF20A53005552046FF30C3
:107FE0003021A730FEF78CFA2046094A094900F0F3
:107FF00098F80248C046C046014870BD24210020C0
:10800000802500205C9E01004C9E0100089E01001E
:1080100000600100D978010010B5044600F04CFB67
:108020002068416920468847002010BD10B50448EB
:10803000FEF78CF80348FEF789F8002010BD000019
:1080400020A1070040420F0010B512480078C00779
:108050001DD1104800F09CF8002818D00E480F4998
:108060000160002141608160C16001610421143020
:10807000FFF7B0FD14380A4901600021C94381842B
:10808000084A094900F04DF80248C046C046024877
:1080900010BD00002C210020582700206C9E0100FC
:1080A000A89E0100006001009D7D01007047232112
:1080B000095C002901D0001D704700207047808CAA
:1080C00070472030C078704710B5FEF780FB10BDB8
:1080D00010B500F001F810BD10B5040008D101245E
:1080E00006E0FEF73BFB0068002800D1034880470C
:1080F0002046FEF73BFB0028F3D010BD27680100A7
:108100000A7802704B7843708A788270CA78C2709D
:108110000B7903714A7942718A798271CB79C37183
:108120007047F7B507460E4600251020FEF71EFBE8
:1081300004000AD06760A6600298E060FEF712FBB8
:108140000168216004602846FEBD0125FBE7F8B503
:108150000646FEF707FB009015E0002E04D0E0680D
:10816000B04201D025460FE0206828600098A16841
:108170000768606888472046FEF729FB009800687A
:10818000B84201D0009805462C68002CE5D1F8BD16
:108190000168002901D000207047012101600846D4
:1081A000704710B50020FEF738FB10BD10B504482D
:1081B00004490160044A0549FFF7B3FF10BD000000
:1081C00010200020E49E010000600100AD8001004D
:1081D00010B5174CFFF77CF800232060A022194649
:1081E000201DFFF727FC0C30FFF7E8FB2830FFF7D6
:1081F000E5FB044601212830383C01702046103050
:10820000FFF79EFB20463830FFF79AFB2046094ACD
:108210000949FFF786FF0948002202604260826038
:10822000C26002611221426100F0C4FB10BD000077
:10823000DC23002000600100697F01004024002051
:1082400002486A46C008C000704700008727002027
:108250000004000C07D1BFF34F8F04490248C860E7
:10826000BFF34F8FFEE770470400FA0500ED00E012
:1082700010B405494968054B9C6ADB6A2143436099
:10828000016010BC00207047001501404020002014
:1082900070B4144DAC68002C12D0002A13D0002802
:1082A00011D02D780023002D07DD24265E43A65D26
:1082B000002E0BD05B1CAB42F7DB70BC0420704778
:1082C00070BC0820704770BC072070472425012629
:1082D0005D4366552C196170A261036070BC00207B
:1082E0007047000040200020FFB581B01D461646B3
:1082F0000F4698077DD1002D7BD04A480024007995
:10830000002819D00120484940040860474940101E
:1083100088604749801C88604649012048602F20BA
:10832000FDF750FF4349012088603E4844612F20FB
:10833000FDF748FF3B4804713A490A9888610F707D
:1083400028468D60002F13D0014624391038FA07D3
:1083500003D024310C70243004707A0808D0242310
:108360005C541C54483148300C700470521EF6D1D5
:108370002420474378192B4D032169702946C86092
:1083800001460470183144708670416032461823EB
:108390005A430472531844728672C360047444745E
:1083A000D118867441610020C043294608610846FF
:1083B0008470C4700124204923050B601F480268A3
:1083C000C026120A1202324302601D4A13601D4E7B
:1083D0000198B0601C4B1868FF273F02B843032781
:1083E000BF033843186028460079002814D103E001
:1083F000FFE7072005B0F0BD01200C4B00045860DA
:108400000B4B801C58600004086010600948046031
:108410002F20FDF7D7FE2C7170686861002005B031
:10842000F0BD00004020002080E100E0401301404A
:10843000001301400010014080E200E014E400E07D
:1084400000E100E00015014010E400E0F0B4354B1D
:108450009D68002D0CD01C78A04201D2052902D2C3
:10846000F0BC07207047242444432E5D012E02D027
:10847000F0BC0820704764196478012C16D00026DF
:10848000294D6C68E405E40D20D0103C64B2002C4A
:108490000EDA27073F0F083FBF08BF007D19ED69BF
:1084A000A407E40EE5402C06A40F0BE00E46E7E718
:1084B000A5081E4FAD00ED192D68A407E40EE54098
:1084C0002C06A40F012C26D0032C26D002248C4687
:1084D000DB68E100CC186378A7781D465B1C9F42DF
:1084E00000D1002327789F4219D0182167684D4397
:1084F000791914D001250D7048600D4840688860D6
:108500000E6160464A61C8600A49637028050860C8
:10851000F0BC002070470024D9E70124D7E7F0BC65
:10852000042070474020002000ED00E000E400E05F
:108530000015014000E200E02D4A9168002909D0B1
:108540001378984201D30720704724234343C95C22
:10855000012901D008207047F0B4264B5968042443
:10856000C905C90D00291ED0103949B200290CDAFD
:108570000D072D0F083DAD08AD00EB18DB6989072D
:10858000C90ECB401906890F09E08B081A4D9B00D4
:108590005B191B688907C90ECB401906890F012991
:1085A0001FD003291FD00221D268C9008A18517830
:1085B00095780B46491C8D4200D100211678002584
:1085C0008E4212D0182756687B43F3180DD0022430
:1085D0001C70586051700949E00408602846F0BCDE
:1085E00070470021E0E70121DEE72046F0BC70473C
:1085F0004020002000ED00E000E400E000E200E0A8
:108600007047000070B5184800688047B1203CDF13
:10861000002803D015A23F21FFF71AFE11DF002822
:1086200003D012A24221FFF713FE1E4900200A6860
:108630001D4B01210C468440144204D0C506ED0EAA
:108640000C46AC401C60401C2028F3D3174C6069DA
:1086500013DF002803D005A24721FFF7F9FD606969
:1086600000F026F870BD0000202000202F737263F8
:108670002F6E524635313832322F6E6F7264696315
:108680002F626F6F746C6F616465725F6466752FC3
:108690006466755F6170705F68616E646C65722E90
:1086A0006300000000E100E080E100E00010001045
:1086B00010B5FDF777FD10BD00B583B00023502243
:1086C0001A49082000F03AFE002802D00004000CED
:1086D00007D017480068029002A860DF002810D178
:1086E00007E0BFF34F8F14491248C860BFF34F8FA4
:1086F000FEE7684671DF002803D1694670DF002875
:1087000002D0072003B000BD0C4800F00DFE0004AD
:10871000000CF7D10A4800F02DFE0004000CF1D146
:10872000FEF77AFC002003B000BD000028220020E4
:10873000609B01000400FA0500ED00E0A16E01005D
:10874000ED700100FFB58FB08C46D406F9270020EC
:10875000189E199D1A999E46002C01DB940609D596
:108760006C460190A4793C40A31C6C46A371112374
:108770002371637102900390049005900690079016
:108780006C4608902272D40601D4940601D501AC3F
:1087900000E00024079400906C46A478F7231C4066
:1087A000C9000C43EF210C401B9909010C43E1B2B5
:1087B0003940891C6C46A170AE4202D00123194396
:1087C00001E049084900A1702346910703D4D1066E
:1087D00001D4910601D511211970110701D4510757
:1087E00001D5112159700B900C90604609900A93A5
:1087F0009E851D8670460D9009AA02A91C9B0F98A4
:10880000A2DF0004000C13B0F0BDF0B488B0002764
:108810006D460097AC78F9252C4084460C9EA41C2C
:108820000D986D46AC70B34202D001252C4301E097
:10883000640864006D46AC7011242C706C70029159
:108840000497059703952B82AE820692024602A9F1
:108850006046A3DF08B0F0BC0004000C70470000C5
:10886000F0B587B0054600200090688A6946088008
:108870002978012000292FD000A802300190284833
:108880006D1C0068002400280ED9264E244F2001BC
:108890002018801910222946FDF76FFD00281ED0F0
:1088A0003868641C8442F2D3002069460871C91DEF
:1088B00008220F240E26231AEB5C4B70331A891CF6
:1088C000EB5C801C0B70521EF5D101A902A863DF7E
:1088D00000280BD000240BE0694688701DE02001C1
:1088E00020188019017C0198017016E0684604790F
:1088F000294668460A4D8470286808280DD0020170
:108900008018084E10228019FDF786FD28680101A5
:10891000411889190C74401C2860009807B0F0BDFC
:1089200008200020782200207047002801D000F0A5
:10893000CBFBFEE770B50446002020560D46401CD8
:1089400004D12A220A490BA000F0BAFB0F48002DDF
:1089500008D0012D05D10022A25601219200101845
:10896000016070BD0021625692001018016070BD58
:108970007C9D01006F626A2D3E70696E20213D2052
:108980002850696E4E616D65294E43000007005006
:1089900001704A1C0AD001228A4005494260C16028
:1089A000091D0161091D4161091D816070470000B9
:1089B0000805005070B50D4604460026FFF7E8FF95
:1089C0006D1C12D0A057401C04D12422074908482E
:1089D00000F076FB21696068086001212046FFF7FE
:1089E000A9FF3146204600F005F870BDC49C010087
:1089F000AC9C010010B502460020105600F0EAFBC6
:108A000010BD0000F8B51E4C2078002837D0206932
:108A1000002807D00026E068002805D00025002E99
:108A200004D013E00126F6E70125F8E7684651DF98
:108A3000052806D0002806D0124A6921FFF708FC55
:108A400004E0012602E0216900988847002D12D138
:108A5000608869460880A06861DF052806D0002884
:108A600006D0084A8021FFF7F3FB04E0012502E06D
:108A7000E168A0688847002ED8D0002DCFD0F8BD7F
:108A800024200020849B0100FF4C0020FFB02056D2
:108A9000FFB0E2B0401C04D12422FC49FC4800F0A5
:108AA0000FFBE16860680860FFACAC342046FFF75C
:108AB00035F8F849016000212030FFF752F8F64FF1
:108AC000F648FDF727FE05460E462046394620307B
:108AD000FFF743F82A4633462046FFF747F8F048A9
:108AE000FFF766F9EE48EF4C00680168496888476F
:108AF0000461FFAA032364321376E949EA4A059127
:108B00000027049269460F7664268F764E76FFA87A
:108B100004AC06ADE5498030FEF7E5FF01460320D1
:108B200010220090019220460297022303972A46C2
:108B30000C30FEF756FF0446DE486C34DC496844CE
:108B4000FEF7D1FF02230121019300910B46FFAAFA
:108B500001467C32029703972046FEF742FF044607
:108B60006C30FB90D548D4496844FEF7BCFF014601
:108B700008202246012301906D3A02970397009343
:108B8000FB98FEF72EFFCE4F04463878E43C0028D1
:108B900042D120460C3001906C3002906C30039032
:108BA000C948C8496844FEF79EFF0146FFA8032351
:108BB00001AAEC30FEF7A6FB6068006801688A68CD
:108BC000904701680A68FFA9EC319047012038708E
:108BD000BE4960688A68C968FFAB1A67D9660068D1
:108BE0000168896888470746FFA8C26E426720204F
:108BF000FFF772FAFFAB5A6F196F0023036003612E
:108C000043614460C361C2608160B1498161796937
:108C1000002923D0C1617861A149FC916420F8A9A1
:108C20000875FCAC20460830FB90FFA8A949EC3041
:108C3000FEF759FF014600201223012701930290FD
:108C40000390221D00973B46FB98FEF7CAFE0446A0
:108C5000A148083C007800281ED101E07861DBE7DC
:108C600021460831FFA841679C49EC30FEF73BFFE5
:108C70000146FFAAFFA8012374327C30FEF742FBB5
:108C80002068006801688968884701680A68FFA948
:108C90007C31904790480770FFA991A284310A6007
:108CA00090A24A6091A28A6091A2CA6092A20A61CF
:108CB00093A27B484A61589058AC0868FDF78AFB3C
:108CC00083B2FFA8843000930068FDF783FB81B274
:108CD000FFA8843001628D499C30FEF704FF0146F5
:108CE000022000220190FFA8029203928430036ABE
:108CF0000268201DFEF775FE041FFFA8843040683F
:108D0000FDF768FB82B20092FFAA84325068FDF73B
:108D100061FBFFAA80B28432D06110467C49B0303A
:108D2000FEF7E1FE01460020029003900223FFA817
:108D300001938430C369426820467030FEF751FECB
:108D40000446FFA88430703C8068FDF743FB82B284
:108D5000FFA8843000928068FDF73CFB81B2FFA839
:108D6000843041606B49C430FEF7BDFE01460020EF
:108D7000029003900223FFA8019384304368826825
:108D80002046DC30FEF72DFE0446FFA88430DC3C94
:108D9000C068FDF71FFB82B2FFA884300092C06854
:108DA000FDF718FB81B2FFA8843041605A49D830E2
:108DB000FEF799FE01460020029003900223FFA8CF
:108DC000019384304368C2682046FF304930FEF783
:108DD00008FE0446FFA8FF3C8430493C0069FDF7CB
:108DE000F9FA83B2FFA8843000930069FDF7F2FA24
:108DF00081B2FFA8843041604849EC30FEF773FE31
:108E00000146022000220190FFA8029203928430C2
:108E1000436802692046FF30B530FEF7E2FD0446A4
:108E2000FFA8FF3C8430B53C4069FDF7D3FA82B21D
:108E30000092FFAA84325069FDF7CCFAFFAA80B2F3
:108E400084325060104636498830FEF74CFE0146A9
:108E50000020029003900223FFA80193843043680E
:108E60004269112040012018FEF7BBFD1121490184
:108E7000441A2C48007800287AD1211DFFA8C16629
:108E80006C3101676C314FE040240020C89B010029
:108E9000249C0100289F0100717001000024744986
:108EA000DC2300207D720100209E0100372A000093
:108EB000382A000008050000392A00001C050000BF
:108EC000282100200D18000030050000B09B010093
:108ED000939A0100192A0000212100200F18000098
:108EE00041524D004D6F64656C310000534E3100AE
:108EF00068772D726576310066772D726576310060
:108F0000736F66742D72657631000000292A0000A7
:108F1000242A0000252A0000272A0000262A000013
:108F2000282A00002921002041676C3181676C31BB
:108F3000C167112040012118FFA80430C167FF302C
:108F400058490930FEF7CFFD0146FFAAFFA80623C6
:108F50006C32EC30FEF7D6F9206800680168896849
:108F6000884701680A68FFA9EC3190474E480770AE
:108F70004E48062104466034277010300090FEF7FA
:108F800015FD277003214A4A06230098FEF7E2FCEC
:108F90004648277000680168496888470168CA6ABE
:108FA0000D21890190470D2189010098FEF7BDFC34
:108FB0000922FFA90A673F4901910822FFA93B48FE
:108FC000CA662770006801684968884701684A6A6C
:108FD00001999047FFA8C36E016F019A0098FEF7B0
:108FE000B9FC324800210172334941810746386893
:108FF0000168896888470168C9688847002818D1CE
:10900000207800280DD00020207038680168496859
:10901000884701683A468B6838320099984700289B
:1090200007D138680168496888470168CA68391DEE
:1090300090471E4C214F387800282DD020680168B9
:10904000496888470079800726D500203870761C4B
:10905000F6B2AF2E00D164266946087E6A46400803
:10906000400008764E76138FFFAA0599D366C00795
:1090700001D0022000E00120401C02900868016835
:10908000896888470021009101682A468F68FFA9F6
:10909000029BC96EB847CDE720680168C969884757
:1090A000C8E700000A18000029210020DC23002066
:1090B000B09B0100C09B0100020600003820002088
:1090C00010B500F001F810BD98B012216846FFF706
:1090D00071FC132106A8FFF76DFC12210CA8FFF705
:1090E00069FC132112A8FFF765FC694600200856A9
:1090F000401C04D1242234493448FFF7E1FF03998E
:1091000001980860694618200856401C04D12422A2
:109110002D492E48FFF7D4FF0A990798086008A93F
:1091200010200856401C04D1242227492748FFF765
:10913000C7FF10990D98086010A908200856401C18
:1091400004D1242220492148FFF7BAFF159913982A
:109150000860962000F044FC694600200856401C38
:1091600004D1242218491948FFF7AAFF049901984D
:109170000860694618200856401C04D12422124970
:109180001248FFF79DFF09990798086008A9102069
:109190000856401C04D124220B490C48FFF790FFCD
:1091A0000F990D98086010A908200856401C04D19A
:1091B000242205490548FFF783FF16991398086094
:1091C000962000F00DFC90E7549C01003C9C0100AF
:1091D0007047704770B504460D46401C04D11A22F2
:1091E000074908A0FFF76CFF0B48A10008180168A9
:1091F0000C22914301600168AA001143016070BD17
:109200001C9D010070696E20213D202850696E4E22
:10921000616D65294E4300000007005040498A787F
:10922000012A7CD1F8B500243E4A8C705378082B73
:1092300007D0022816D0032802D10D20FDF7A0FD8B
:10924000F8BD02280CD0147048780028F8D0FDF73B
:10925000ADFD0028F4D01128F2D0FDF791FDF8BD46
:109260005470F1E72E4814250178694308182D49F8
:10927000001D8A88521C95B28D800278022A05D181
:109280004688A902B14201D3012600E00026052A42
:1092900001D1072B03D00021042A02D003E00121D1
:1092A000FAE7072B03D00027042A02D007E00127A2
:1092B000FAE74088AA02824201D3002B2DD0002079
:1092C0003943014331431CD0164D20466C70FDF7E5
:1092D00057FD134814220178514309180C71CC80B2
:1092E0000C6101224C61CA600C81AC804178491E3E
:1092F00041700178491CC9B201700A2901D30A39A9
:109300000170074840780028A9D0FDF74FFD0028DC
:10931000A5D01128A3D0A0E701E00120D0E7704735
:109320000023002014200020002803D00249C86038
:10933000002070470E20704724200020002901D112
:109340000720704730B48C0702D0072030BC70472C
:10935000064CA16062800649636010DF0028F5D1E9
:1093600001202070162026DF30BC7047242000200A
:10937000D9720100002803D002490861002070471B
:109380000E20704724200020F0B5002087B0C04395
:109390000290FD48416901918278C4780369A24234
:1093A00011D0521CD2B28270022A01D100228270E6
:1093B0001206F64C920DA258009251180902090AA1
:1093C0004161012101E000210091EF4806930491E1
:1093D0004078411EC9B20391002876D00398C1009D
:1093E000E948C2688F183E787978B1426ED018206B
:1093F00070437968761C0818B978F6B2B14200D18A
:1094000000260178022902D003296ED15FE040686E
:1094100024210246DC4B4A43996852180592127D7A
:10942000002A62D01D69AC462C466A1C49D0844291
:1094300007D02546242254436218146A621CF6D1D0
:109440003FE0601C3DD0A54228D160462422504315
:10945000CD4B4018006A1861401C1FD11846007996
:1094600000281BD00120CA4940040860C9494010A7
:109470008860C949801C8860C849012048602F2045
:10948000FCF7A0FEC54901208860BF490020486163
:109490002F20FCF797FEBC4900200871242044438C
:1094A000B948242381685D4360184268006A6B18DC
:1094B0001862431C05D0242358434018416889187A
:1094C00041600599002008750FE019E011E0AE4BEE
:1094D0001869411C09D09A6800212424604380182F
:1094E0000175006A441CF8D118617878B04200D048
:1094F0007DE70399481EC0B20390002900D06DE7B4
:10950000A14801690698814201D0012000E00020B5
:1095100003900498002829D001980024009A8446DA
:10952000491C21D098488668974924200B695843E4
:1095300080194568954202D9A91A416014E0521B6E
:109540002C19002545600575056A0D610169002922
:1095500008D067463F193F023F0A8760C160029901
:10956000016202936D1CDFD10120039002988649AD
:1095700000900869069049784A1ED2B201920029EB
:1095800071D081498B684A690492C9680591019933
:10959000CA000599551881E00099491C06D0009A27
:1095A00024215143C9180C6A00941EE0297818221E
:1095B0004A436C68491CC9B2A4182970AA78914220
:1095C00001D1002129706268242151432678C918ED
:1095D000012E67D10E7D002E64D1A6688E60E668EC
:1095E000CE6026690E616469CC618C68049E6C4F04
:1095F000A61B3602360ABE4203D2CC6834194C6030
:109600000AE0049E341B2402CE68240AA64201D933
:10961000341B00E000244C6000248C60CC600124EA
:109620000C75A41E0C6224215143C9188C46411CA0
:1096300014D061464C6824214143C91849688C42C2
:109640000ED824214143C9184968091B24244443E6
:10965000E41861606146086210461FE010461DE094
:109660000146029003E02AE00291316AE41B4E1C9D
:109670000BD024264E43F6187768A742F4D324274C
:109680004F43FF187F683F1B7760664674606446EF
:109690002162029924246143C9180A620099491C75
:1096A00000D079E729786A789142FAD1019A511E5F
:1096B000C9B20191002A00D069E733490861324CF0
:1096C00006992069884202D1039900293DD0411CA6
:1096D0003DD02D49242250438A688018466831487D
:1096E00044684F69E01B05022D0A0879ED1C00282B
:1096F00014D101202749000448602749801C486094
:1097000029490004086029490860244901200860AB
:109710002F20FCF757FD1C4901200871B54200D2EB
:109720003546E81900022249000A08601D494968C7
:10973000001B091B0902090A0002C91C000A814218
:1097400003D901201B494004086007B0F0BD20790F
:109750000028FAD001200E49400408600D4940104D
:1097600088600D49801C88600C4E012575602F2093
:10977000FCF728FDB56000252F206561FCF722FD70
:10978000257107B0F0BD0000402000205C200020C3
:1097900080E100E04013014000130140001001404F
:1097A000FFFF7F000015014080E200E000E100E0E3
:1097B0004015014000E200E010B503490020487068
:1097C00000F054F810BD00000C210020044841783E
:1097D000002904D010B54068FEF7AEFE10BD7047FA
:1097E0000C21002004484178002904D010B54068BD
:1097F000FEF7A2FE10BD70470C21002038B5064CC4
:109800002078002807D1054B022201210090FEF7A5
:109810006BFD0120207038BD0C2100205824002051
:10982000F8B50746069872B600217B603A60B860CA
:109830000D480468002C0FD0256866681846551B33
:10984000B04103D42146E468002CF5D1002903D0AF
:10985000CF60FC6062B6F8BD034819460760104649
:1098600000F070F8F5E700001421002010B5FFF7B4
:10987000ADFF0D4C206800280ED000F017F82168CD
:109880000A68101A00280ADCC86820606268002A8A
:10989000F0D088689047EDE7FFF7A4FF10BD1046B1
:1098A000496800F04FF810BD1421002010B50D4C90
:1098B00084B02078002807D10B4B022201210090B0
:1098C000FEF712FD0120207002A8FEF7D1FC074A26
:1098D000002303990298FCF7B7FC4904C00B084326
:1098E00004B010BD0C2100205824002040420F007D
:1098F00010B572B60D4A116881420BD1C168116072
:10990000002904D00868496800F01CF80CE0FFF753
:1099100069FF09E0002907D0CA68824202D1C06805
:10992000C86001E01100F7D162B610BD142100201B
:1099300010B50446FFF762FF0148446010BD000007
:1099400014210020F0B513B4204C054620780126E0
:1099500084B0002806D11E4B022201210090FEF7A0
:10996000C3FC26706068401C06D11A4A00211A48C0
:10997000FEF78EFC002826D16078002823D102A8AB
:10998000FEF776FC02986A0C070205983F0AC103AD
:109990001143E803114A0023FCF76EFC401C00024F
:1099A000000AB84201D3C11B03E00121381A09069D
:1099B000091A052900D2052100226068FEF746FD3C
:1099C000002800D1667007B0F0BD00000C21002017
:1099D00058240020B99701001021002040420F00B8
:1099E00070B57D21C90048430446FFF75FFF054677
:1099F000FFF75CFF401BA042FAD370BD70B50D4667
:109A000001680446002902D02846884709E06068BA
:109A1000002806D0A369002B03D021462A4608312E
:109A20009847E069002802D02946FFF7E7FF70BD9C
:109A300070B50D4601680446002902D028468847C3
:109A400009E06068002806D0A369002B03D02146F6
:109A50002A4608319847E069002802D02946FFF7D6
:109A6000E7FF70BD30B583B0044615466846FEF783
:109A700047FB0198019940100019C90707D00168F8
:109A8000009A89180B682946984703B030BD009B9F
:109A9000F9E730B583B0044615466846FEF730FB5B
:109AA0000198019940100019C90707D00168009A70
:109AB00089180B682946984703B030BD009BF9E729
:109AC00070B50D4601680446002902D02846884733
:109AD00009E06068002806D0A369002B03D0214666
:109AE0002A4608319847E069002802D02946FFF746
:109AF000E7FF70BD70B50D4601680446002902D02D
:109B00002846884709E06068002806D0A369002B32
:109B100003D021462A4608319847E069002802D040
:109B20002946FFF7E7FF70BD0000000001000000BC
:109B3000000015301212EFDE1523785FEABCD12346
:109B4000000015311212EFDE1523785FEABCD12335
:109B5000000015321212EFDE1523785FEABCD12324
:109B600001000000020000000000000000000000F2
:109B700000000000010000000000000000000000E4
:109B8000000000002F7372632F6E52463531383259
:109B9000322F6E6F726469632F736F6674646576BB
:109BA0006963655F68616E646C65722E63707000D6
:109BB0000D180F180A180000000000000100000036
:109BC0004279655F526F62002F6578747261732FFE
:109BD0006D6265645F34666330316461616535610F
:109BE000352F5441524745545F4E52463531383235
:109BF000322F5441524745545F4E4F524449432FF0
:109C00005441524745545F4D43555F4E524635319E
:109C10003832322F6770696F5F6F626A6563742EC6
:109C2000680000006F626A2D3E70696E20213D2041
:109C30002850696E4E616D65294E43006F626A2D32
:109C40003E70696E20213D202850696E4E616D6521
:109C5000294E4300633A2F776F726B2F6D626564F4
:109C60002F6275696C645C6D6265645C5441524737
:109C700045545F4E524635313832325C544152477A
:109C800045545F4E4F524449435C544152474554FA
:109C90005F4D43555F4E524635313832322F677033
:109CA000696F5F6F626A6563742E68006F626A2D08
:109CB0003E70696E20213D202850696E4E616D65B1
:109CC000294E4300633A2F776F726B2F6D62656484
:109CD0002F6275696C645C6D6265645C54415247C7
:109CE00045545F4E524635313832325C544152470A
:109CF00045545F4E4F524449435C5441524745548A
:109D00005F4D43555F4E524635313832322F6770C2
:109D1000696F5F6F626A6563742E6800433A5C77AF
:109D20006F726B5C6D6265645C6769746875622DE7
:109D30006E65775C6C69627261726965735C6D6295
:109D400065645C746172676574735C68616C5C54B3
:109D500041524745545F4E4F524449435C5441522F
:109D60004745545F4D43555F4E5246353138323288
:109D70005C70696E6D61702E63000000433A5C7721
:109D80006F726B5C6D6265645C6769746875622D87
:109D90006E65775C6C69627261726965735C6D6235
:109DA00065645C746172676574735C68616C5C5453
:109DB00041524745545F4E4F524449435C544152CF
:109DC0004745545F4D43555F4E5246353138323228
:109DD0005C6770696F5F6170692E6300000000004E
:109DE00000000000E572010000000000000000001B
:109DF000A3810100A3810100A3810100A3810100CF
:109E000000000000000000001F73010000000000BF
:109E1000B1770100D57801000000000000000000CB
:109E2000297901000000000000000000E179010034
:109E3000000000000000000000000000897A01001E
:109E40000000000000000000000000000000000012
:109E50000000000000000000000000000000000002
:109E6000000000000000000000000000A3810100CD
:109E7000A3810100A3810100A3810100A38101004E
:109E8000A3810100A3810100A3810100A38101003E
:109E9000A3810100A3810100A3810100A38101002E
:109EA00000000000000000000000000000000000B2
:109EB0003D7D0100C97C01000000000000000000A1
:109EC000000000000000000000000000A97C01006C
:109ED000000000009D7C0100000000000000000068
:109EE000000000000000000049800100857F0100A3
:109EF00019800100000000002D800100000000001A
:109F0000817F0100AD800100000000000000000022
:109F1000000000000000000000000000A38101001C
:109F20000000000000000000000000000000000031
:109F3000937B01000000000000000000017C010094
:109F4000000000006C9F0100002000203001000094
:109F5000486B0100E49F0100302100205006000002
:109F60000461010049E2FFFF69E2FFFF0121041BD8
:109F7000298901034624F443B00446F00400600933
:109F800046D00900C01246B0130080255650270065
:109F90004038323B424B46A04E00807056F0750070
:109FA000127A3280429633509D42E133F0EB332CEB
:109FB0000137903A0100C20137E0D701008403570E
:109FC000B0AF0390D00335040008075F705F07004F
:109FD000100E00A4DFBE0E40420F5210051DFFFF01
:049FE000FFFF00007F
:00000001FF
