:020000040001F9
:10C00000004000201DC201002FC2010031C201000A
:10C010000000000000000000000000000000000020
:10C0200000000000000000000000000033C201001A
:10C03000000000000000000035C2010037C201000E
:10C0400039C2010039C2010089CD010039C20100A5
:10C0500039C201000000000039C2010039C20100EC
:10C0600039C2010039C2010039C2010039C20100E0
:10C0700039C2010039C2010039C2010039C20100D0
:10C0800039C201009DCB010039C2010039C2010053
:10C0900039C2010019CC010031CC010039C20100C4
:10C0A00039C2010039C20100000000000000000098
:10C0B0000000000000000000000000000000000080
:10C0C00000F002F800F042F80CA030C8083824183C
:10C0D0002D18A246671EAB4654465D46AC4201D1C0
:10C0E00000F034F87E460F3E0FCCB64601263342B0
:10C0F00000D0FB1AA246AB46334318475452000007
:10C1000074520000103A02D378C878C1FAD85207A6
:10C1100001D330C830C101D504680C6070470000FD
:10C120000023002400250026103A01D378C1FBD853
:10C13000520700D330C100D50B6070471FB500987F
:10C14000019900F096FB00F0DBFA1FBD02F04EFCF7
:10C150001146FFF7F3FF00F0FBFC03F0FAF90000D3
:10C16000056885F3088846680A4AEFF305839A4212
:10C17000304602D1084CA6463047074C064D0646CD
:10C18000064FF0B4034C034D024E024FF0B4044886
:10C190000047000000000000FFFFFFFF000000213B
:10C1A000F9FFFFFF401E00BF00BF00BF00BF00BF80
:10C1B00000BF00BF00BF00BF00BF00BF00BFF1D184
:10C1C00070470000401E00BF00BF00BF00BF00BF9F
:10C1D00000BF00BF00BF00BF00BF00BF00BFF1D164
:10C1E0007047000070B505460C46164602E00FCCBD
:10C1F0000FC5103E102EFAD2082E02D303CC03C571
:10C20000083E042E07D301CC01C5361F03E0217878
:10C210002970641C6D1C761EF9D270BD0748026837
:10C220000F210A4302600648804706480047FEE7A0
:10C23000FEE7FEE7FEE7FEE7FEE70000240500401C
:10C24000C9CC0100C1C001004343514330B55C1863
:10C25000010C130C0D4692B25D4380B251432C1970
:10C26000054655430A0C09044D1962415843010C17
:10C2700000044019514130BDFEB5054610460C463C
:10C28000184373D0AE468C460020AD1A01469C413F
:10C2900067D36646002701243D46B61A9D4102D366
:10C2A00013463A462124654676462F04360C3E4313
:10C2B0002D0CB61A9D4104D3150C1B042B431204FC
:10C2C0001034654676462F06360A3E432D0AB61AC6
:10C2D0009D4104D3150E1B022B4312020834654600
:10C2E00076462F0736093E432D09B61A9D4104D3E1
:10C2F000150F1B012B431201241D65467646AF071F
:10C30000B6083E43AD08B61A9D4104D3950F9B0075
:10C310002B439200A41C65467646EF0776083E4301
:10C320006D08B61A9D411AD392185B41641C16E041
:10C330000018764665464941B71A9D410191009023
:10C3400009D36046B11A98418E46844600980199F7
:10C350000025401C6941DD0752082A435B08641E22
:10C36000E6D57246634603B0F0BDFFE70020014604
:10C37000C046C0462A462346F5E7F8B507461546A7
:10C380000E46102000F0D6F9040009D06760A660C0
:10C39000E56000F0CBF90168216004600020F8BD81
:10C3A0000120F8BD034610B50B439B070FD1042AAB
:10C3B0000DD308C810C9121FA342F8D018BA21BA69
:10C3C000884201D9012010BD0020C04310BD002AC1
:10C3D00003D0D30703D0521C07E0002010BD037820
:10C3E0000C78401C491C1B1B07D103780C78401C9F
:10C3F000491C1B1B01D1921EF1D1184610BD000033
:10C4000030B5441C03E00178401C00290DD08107A1
:10C41000F9D10B4BDD0104C8D11A91432940FAD060
:10C42000001B0A0603D0C01E30BD001B30BD0A042D
:10C4300001D0801E30BD0902FCD0401E30BD00007E
:10C4400001010101F8B5042A2CD3830712D00B781F
:10C45000491C0370401C521E83070BD00B78491CEB
:10C460000370401C521E830704D00B78491C0370D4
:10C47000401C521E8B079B0F05D0C91ADF002023DA
:10C48000DE1B08C90AE0FFF7ADFEF8BD1D4608C96E
:10C49000FD401C46B4402C4310C0121F042AF5D2A4
:10C4A000F308C91A521EF0D40B78491C0370401CC3
:10C4B000521EEAD40B78491C0370401C012AE4D4B4
:10C4C00009780170F8BDD2B210B513029A1813049E
:10C4D0009A1800F00EF810BD01E004C0091F0429ED
:10C4E000FBD28B0701D50280801CC90700D00270E7
:10C4F000704700290BD0C30702D00270401C491EB0
:10C50000022904D3830702D50280801C891EE3E739
:10C510000022EEE70022DFE7002203098B4273D3FB
:10C52000030A8B4258D3030B8B423CD3030C8B4240
:10C5300021D312E003460B437FD4002243088B42F1
:10C5400074D303098B425FD3030A8B4244D3030B9A
:10C550008B4228D3030C8B420DD3FF22090212BA5F
:10C56000030C8B4202D31212090265D0030B8B42DB
:10C5700019D300E0090AC30B8B4201D3CB03C01AC5
:10C580005241830B8B4201D38B03C01A5241430BA0
:10C590008B4201D34B03C01A5241030B8B4201D390
:10C5A0000B03C01A5241C30A8B4201D3CB02C01AFB
:10C5B0005241830A8B4201D38B02C01A5241430A73
:10C5C0008B4201D34B02C01A5241030A8B4201D362
:10C5D0000B02C01A5241CDD2C3098B4201D3CB0109
:10C5E000C01A524183098B4201D38B01C01A5241B8
:10C5F00043098B4201D34B01C01A524103098B42BC
:10C6000001D30B01C01A5241C3088B4201D3CB00A6
:10C61000C01A524183088B4201D38B00C01A524189
:10C6200043088B4201D34B00C01A5241411A00D239
:10C6300001465241104670475DE0CA0F00D04942A2
:10C64000031000D34042534000229C4603098B4212
:10C650002DD3030A8B4212D3FC22890112BA030A9A
:10C660008B420CD3890192118B4208D3890192111C
:10C670008B4204D389013AD0921100E08909C309A1
:10C680008B4201D3CB01C01A524183098B4201D3A3
:10C690008B01C01A524143098B4201D34B01C01A8E
:10C6A000524103098B4201D30B01C01A5241C30806
:10C6B0008B4201D3CB00C01A524183088B4201D375
:10C6C0008B00C01A5241D9D243088B4201D34B0090
:10C6D000C01A5241411A00D20146634652415B10D2
:10C6E000104601D34042002B00D5494270476346B3
:10C6F0005B1000D3404201B50020C046C04602BDD9
:10C7000070B5064C7C44064D7D4403E0206800195A
:10C710008047241DAC42F9D170BD0000684C000078
:10C72000704C000000487047742F0020004870478C
:10C73000782F002070B5064600F07EF80568304678
:10C740000B30C408E400B44201D8002070BD686812
:10C750002A46002818D00168A14211D30B46214671
:10C7600008318B4208D3436801194B6003681B1BD7
:10C770000B605160046001E041685160001D70BDB4
:10C78000024640680028E6D12146284600F05CF8C1
:10C790000028DCD170BD70B50446051F00F04CF8D0
:10C7A0000068002C1AD0446801E020466468002C20
:10C7B00001D0AC42F9D301680A18AA4204D12A6810
:10C7C00005468918016000E0456028684119A142CA
:10C7D00005D16168696021684018286070BD6C608F
:10C7E00070BDF8B50646FFF7A1FF0090054615E0BD
:10C7F000002E02D0E068B0420FD120682860009877
:10C80000A1680768606888472046FFF7C4FF009862
:10C810000068B84202D00098E8E725462C68002C52
:10C82000E6D1F8BD10B500F05FF800F056F810BD85
:10C8300010B500F071F810BD004870477C2F002043
:10C84000704770477047704738B504460A46002065
:10C85000694600F0F3F8002805D00246204600990A
:10C8600000F09CF8012038BD10B5012000F0D4F88C
:10C8700010BDF8B500F0D6F8054600200C46102093
:10C88000C0460646A819A0420DD932466946002086
:10C8900000F0D4F8070001D100F0BEF80098A042E3
:10C8A00000D00546C419FFF7C7FFF61D074605600F
:10C8B000F008C0004619284600F008F8B44204D039
:10C8C00031463868A21B00F069F8F8BD002101600C
:10C8D0004160806070471020704710B5002801D07B
:10C8E00000F052F810BD000010B5002102A000F0C9
:10C8F00079F8012010BD00005349475056464E3A82
:10C900002050757265207669727475616C20666E50
:10C910002063616C6C65640010B500F00EF801696D
:10C92000002903D000220261884701E08068804727
:10C9300000F04EF810B500F04BF870B500F02AF892
:10C9400004680546002C15D12020FFF7F3FE0400F3
:10C9500012D0002009492C6003C4094921602071CC
:10C96000A060E06007492061083C002901D000F088
:10C9700081F8E061204670BD00F02AF80000000058
:10C9800035C901000000000001491820ABBEFEE7D8
:10C990002600020000487047802F002010B5034693
:10C9A000406801E003464068002801D08842F9D37E
:10C9B0001868C3188B4206D0CB1CD808C000001DD5
:10C9C000411A521A0146081D0A60FFF7E4FE10BD25
:10C9D00010B5002000F076F8C046C0460120FFF7F1
:10C9E000D3FF10BD70B505460C460A2000E06D1C53
:10C9F00000F061F8002D06D028780028F7D102E079
:10CA0000641C00F058F8002C02D020780028F7D1E0
:10CA10000A2000F050F870BD10B500F059F8FFF78B
:10CA20005CFF10BD01226946114B120382188A4235
:10CA30001A6001D8114670471960704770B50C4CE8
:10CA40006D46012636032368AD1B9A18AA420ED8FC
:10CA5000AD1A9019EE0F75196D10AA18904200D9F1
:10CA60001046C01D0B60C208D200D01A226070BDF3
:10CA7000A828002010B58820FFF75CFE002801D010
:10CA80000021017010BD802904D8002802D001784F
:10CA9000002901D000207047012101700830704743
:10CAA000002803D002460832914201D0002070478E
:10CAB00000210170704708B5694608700320ABBEBD
:10CAC00008BD704710B500F02BF8FFF706FF10BD4A
:10CAD00010B5012805D0002103A0FFF783FF012036
:10CAE00010BD09A1F8E7000053494752544D454D88
:10CAF0003A204F7574206F662068656170206D65FF
:10CB00006D6F7279000000003A2048656170206DF9
:10CB1000656D6F727920636F7272757074656400F1
:10CB200010B5002102A0FFF75DFF012010BD00003D
:10CB3000534947414252543A2041626E6F726D61CF
:10CB40006C207465726D696E6174696F6E000000AF
:10CB500010B503F014FC03F011FC02F0CFFE10BD81
:10CB600070B50D490546CC688B684A68C46083601F
:10CB7000103142601EC910351EC50446002520C074
:10CB8000064605701021401CFFF7C2FC7582257611
:10CB90006583A58370BD0000240E020070B5184C9B
:10CBA00063680225174A00211748002B04D0436808
:10CBB0005B1C436061609560144B1E68002E1DD0A5
:10CBC000196001231B0493604678002E16D0666816
:10CBD000002E04D04668761C46606160956044680B
:10CBE0000B4D24066D682C4385682C1B002C05DC3E
:10CBF000417008488360936003F046FF70BD0000F9
:10CC000000110140401301409428002040110140D0
:10CC100000150140001301400449012208785040EA
:10CC200008704968002900D0084770473428002060
:10CC3000F8B5244C6068002807D08047002803D04E
:10CC40000022114601F0DAFEF8BD20780028FBD062
:10CC50002069002807D00026E068002805D00025BC
:10CC6000002E04D013E00126F6E70125F8E7684618
:10CC700051DF052806D0002806D00022114601F019
:10CC8000BDFE04E0012602E0216900988847002DDE
:10CC900012D1608869460880A06861DF052806D047
:10CCA000002806D00022114601F0A8FE04E001256C
:10CCB00002E0E168A0688847002ED8D0002DCFD0D0
:10CCC000F8BD000060280020F8B528480126018C36
:10CCD000CAB22749012A17D1838C1B0714D1038DAF
:10CCE0001B061C0F03D1848D2406240F0FD01B0FAD
:10CCF000012B03D1848D2406240F08D0032B03D1EC
:10CD0000838D1B061B0F02D0012A07D014E0194A9D
:10CD10004A600122184BD2039A6102E0828C12070A
:10CD20000AD1028D1206120F042A05D1808D000649
:10CD3000000F01D1114886600D4800258661104C16
:10CD40006560800586600F4F606800280DD1C8209F
:10CD5000FFF728FA6D1CBD42F6D305490020886113
:10CD60008805866060680028FCD0F8BDC00F00F020
:10CD700000050040DFFF07C0006C004000060040D7
:10CD800000010040881300000C4841680A060C4965
:10CD900004D5CA69002A01D0012106E04068400795
:10CDA0000AD58868002807D00021064800680028B6
:10CDB00002D0044A926810477047000000230040E8
:10CDC0000021004080280020F0B58FB0044602F01A
:10CDD00011F9204600F05AF9208819287ED006DC87
:10CDE000102807D011285ED015285BD188E01B28B9
:10CDF00058D198E0A0880090207D049001F02AFC92
:10CE0000009901F01CFD20461630A61DF51D02906C
:10CE100001F020FC07460098691C84460498721CA7
:10CE2000864630780E902B78BD6D022602983543E9
:10CE3000BD6508910E9E0D90099260466946088175
:10CE400070468872CE7200208881C881088204A84A
:10CE5000033002AD8B74064601F03EFD0D9807903D
:10CE6000281D099901F046FD3046089901F042FD60
:10CE7000A4377E68002E15D03168002902D02846DC
:10CE8000884709E07068002806D0B369002B03D0FA
:10CE900031462A4608319847F069002877D029465C
:10CEA00003F036FF73E0A68801F0D4FB3B4901F0A4
:10CEB000C6FCA57901F0CEFB826D02218A43826512
:10CEC00069460E828D74AC30456804AE002D5ED08C
:10CED0002968002903D0304688470AE01AE06868CC
:10CEE000002806D0AB69002B03D029463246083112
:10CEF0009847E86900284AD0314603F03DFF46E0F4
:10CF000000F018FE4369A288A11D002B3FD01046F7
:10CF100098473CE001F09EFB026EA179002A36D0D2
:10CF20000846904733E0A51D01F094FB0490E87992
:10CF30000990287A691CC207D20F08924207C508D7
:10CF40002746960F0F37684601F0D4FC69460998CA
:10CF50008871089ACA710E724D72049D03978435C8
:10CF600029686E46002902D03046884709E0686883
:10CF7000002806D0AB69002B03D029463246083181
:10CF80009847E869002802D0314603F0DBFE00F044
:10CF90003BFC214600F07CFA0FB0F0BDFFFF000023
:10CFA00010B502F06BFC002010BD000084B0002220
:10CFB00002922821684603920181FF21913141812B
:10CFC0008281C181501C0107090F10316846017030
:10CFD00005220AA17CDF0004000C0CD101204002D4
:10CFE00078DF0004000C06D102A87ADF0004000CF0
:10CFF00001D177DF80B204B0704700006E52463531
:10D000007800000070B5144C002025462856401CBE
:10D0100004D12C22114912A003F000F968690068BC
:10D02000696801260840002801D0002500E001259C
:10D0300000202056401C04D12422084908A003F0F7
:10D04000EDF86068002D01D0E16800E0216908601A
:10D050000948067070BD00005C2F0020A41102007A
:10D060006F626A2D3E70696E20213D202850696EE6
:10D070004E616D65294E43007428002010B503F001
:10D080008BFA10BD004870473028002070B584B07E
:10D09000044600F0B3F80546228826460C361035C3
:10D0A000B01D303A092A6ED2110079440979491825
:10D0B0008F4404691169273269435700E0880028CA
:10D0C00004D028688168284688475CE031462846B5
:10D0D00000F08EFD57E0E088002805D0284640305B
:10D0E0000178022905D006E03146284600F072FF9B
:10D0F00049E00121017028462030017F491C017759
:10D1000041E0286841682846884700283BD03146DE
:10D11000284600F0BBFE36E0A28869460A80A28954
:10D120004A80E2898A80228ACA80029000F066F8EA
:10D1300042686946002A24D125E0A188684601801A
:10D14000A1894180A17B0171218AC180618A01810D
:10D150001434039400F052F882686946002A10D112
:10D1600011E0A28869460A80A2894A80A27B0A71DE
:10D17000228ACA80029000F041F8C2686946002AFB
:10D1800001D008469047284600F078FF284600F076
:10D190008FFD04B070BD000010B50C4C2068002855
:10D1A00002D10B4802F0D2F920680168C9688847AB
:10D1B000016802464B6D3432014604460A319847F5
:10D1C0002068211D826D2046904710BD78280020E0
:10D1D0005E11020010B5C08C4988884206D104480F
:10D1E0000068002800D0804701F02EFC10BD000030
:10D1F00014280020022070470220704770B5224892
:10D200000078C0073DD1204801F0A3FB002838D0AA
:10D210001E491F48086000248C750D460C8530356A
:10D220002C706C821B4A0A61896408462C776C77E3
:10D23000AC77EC77503110300C700423182216496B
:10D24000423001F075FB042320221449623001F0C2
:10D250006FFB014680310C604C608C60CC60A43860
:10D260000C6148610146FF313D310C604C608C60BF
:10D27000CC600C614861FF30013044650248C04613
:10D28000C046024870BD000020280020302B00203E
:10D29000080F02008C0F020057DA010061CB010079
:10D2A000F3B591B00446129801F0C6FD0F9009AA9B
:10D2B0000FA90120A0DF00287ED169461298898C31
:10D2C000818300200E901298007D002875D9204699
:10D2D000FF302130089012990E98097D814201D8C3
:10D2E000002003E012998000896908580A9040697B
:10D2F000002808D10A98008B002804D10A98203011
:10D30000007802287ED00A9801F096FD0F90002048
:10D3100000900A9D074606902035287A002822D9D9
:10D32000C0B2B84201D8002603E00A98416AB800AA
:10D330000E580022694601A80A7101301021FFF73A
:10D34000E7F852486946C8823178002906D1718AC7
:10D35000814203D170690090B08B06907F1C287ABF
:10D36000FFB2B842DCD80A9AA87A538B168B9E4635
:10D370006B78697A9C4652692B780C936379059196
:10D38000DB001F19069B06907C37049300980797D3
:10D390007346029300920390019663460FA9002002
:10D3A0000C9A01F089FC002846D161790A9889001D
:10D3B0000919C862617901E03EE061E0C90009191C
:10D3C00040310A98898FC18360790027401C6071C1
:10D3D000287A00284AD9C0B2B84201D8002603E012
:10D3E0000A98416AB8000E580022694602A80A72DB
:10D3F00001301021FFF78CF82448694648833178C2
:10D40000002900E032E002D1718A814229D0304601
:10D4100001F012FD0F900899708B097F338B490042
:10D4200072690919FF313F31019100900FA9002065
:10D4300001F0D9FC002802D0032013B0F0BD0898F9
:10D44000089A007F81000B19FF21401C1D311077C5
:10D450005E500898007F40000019FF300130C08FF7
:10D46000F0837F1C287AFFB2B842B4D80E98401CD3
:10D47000C0B20E901298017D0E98814200D92AE721
:10D480002079401C2071002013B0F0BD012900005C
:10D49000F0B5054608880C1D8FB051287FD037DCC9
:10D4A000012858D050284AD16F796688002F39D08A
:10D4B000F907C90F0020002908D9C200521980328B
:10D4C0001288B2420FD0401C8842F6D308468742E9
:10D4D00028D9C100491980310A88B24203D009898C
:10D4E000B1421CD1401C411C1CD080004019C06AB4
:10D4F0002021095C8A06920F14D0A28B8B0601D5DD
:10D50000930703D4C9060FD5D1070DD003210CE032
:10D5100052283DD0532812D10527668846E0801C4A
:10D520008742D6D8022741E00421C08B032908D0C6
:10D5300004290BD0052902D1A96A00296DD10FB0A9
:10D54000F0BD296A002968D10FB0F0BD696A0029D1
:10D5500063D10FB0F0BDEC680E7A002CF9D02168D1
:10D56000002902D03046884709E06068002806D0CC
:10D57000A369002B03D02146324608319847E06961
:10D580000028E6D0314603F011FC0FB0F0BD06E0F4
:10D59000002320881A461946A9DF0FB0F0BDA078F5
:10D5A00001283DD00228F8D10727A688687984464B
:10D5B0000028F2D06046C107C90F0020002909D910
:10D5C000C20052194032928F3346B24211D0401CF1
:10D5D0008842F5D308468445DFD9C10049197C2229
:10D5E000525A3346B24204D080318A88B24219D1AD
:10D5F000401C411CD1D0022F19D0824A0021062F95
:10D600007ED0072F3BD01846032F7AD0042F79D035
:10D61000052FC2D1A96A0029BFD088470FB0F0BD3D
:10D620000627C2E7801C8445D7D80FB0F0BD2188FB
:10D6300068460180438021790171218BC180618B13
:10D6400001811C3403946C696E46002CEDD0216876
:10D65000002902D03046884709E06068002806D0DB
:10D66000A369002B03D02146324608319847E06970
:10D670000028DAD0314603F031FB0FB0F0BD0021B5
:10D680000A910B910C910D91238869460B854E856B
:10D69000638B8B85A38BCB8521461E3104910C9126
:10D6A0008ECA800040190997089307920691C76AAD
:10D6B0002A21C95D0AA8002909D000216A4691865D
:10D6C0000090F96C4C37002903D088470BE000200C
:10D6D00011E07868002806D0BB69002B03D03946DA
:10D6E0000831009A9847F869002802D0009903F0A1
:10D6F000ADFA6846808E69468883208806A902E0D4
:10D700002BE073E078E0A8DF6946888B0028B4D16D
:10D710002188684601804680A1790171618BC180B2
:10D72000A18B0181049803906C696E46002CA4D0F3
:10D730002168002902D03046884709E06068002847
:10D7400006D0A369002B03D0214632460831984702
:10D75000E06900288ED10FB0F0BD049105910691CB
:10D76000079127886B461F825E82268B9E8210322D
:10D77000CCCA800040196D46CCC5C56A2920405DE1
:10D7800004AE002808D068468183E96A2C35002958
:10D7900004D0304688470BE0002111E0686800287B
:10D7A00006D0AB69002B03D0294632460831984792
:10D7B000E869002802D0314603F02EFA6846818BD2
:10D7C00068468180808B00280BD10698002808D0FD
:10D7D000012168468171818A0181C18A418106984F
:10D7E000039020886946A8DF0FB0F0BD296A0029A0
:10D7F00000D012E70FB0F0BD696A0029F9D10FB06F
:10D80000F0BD0000440E020070B521480078C0074A
:10D810003CD11F4801F09DF8002837D01D4C002551
:10D82000257165711C4AE560A2601C4A6561226130
:10D83000E5611B4A25622046A26145621948A5623E
:10D840002060204650212C30FEF764FE2046A021A7
:10D850007C30FEF75FFEE01DF930C5610562456270
:10D860008562C562056345638563FF203D300555CC
:10D870002046FF3010213F30FEF74AFE20460A4A7C
:10D880000A49FEF77AFD0248C046C046014870BD0D
:10D8900024280020982C0020E40F0200B40F02007E
:10D8A000A40F0200300F020000C00100E5D9010002
:10D8B00010B582B0049C0194009303681C69134660
:10D8C0000A460249A04702B010BD0000FFFF000059
:10D8D000FFB587B000248E469C46024610A90094EE
:10D8E00011980B8869460B8061460191002807D08A
:10D8F0006A4670460999A4DF00283ED10BB0F0BDFE
:10D900005679099D002E31D0F707FF0F0020002F18
:10D9100008D9C10089184031898FA94210D0401C14
:10D92000B842F6D33846864220D9C1008F187C21F0
:10D93000C95BA94204D08037B988A94213D1401CE1
:10D94000411C13D080008018C16A203109788906F3
:10D95000890F0BD06A461581C06A20300078C00656
:10D960000ED501200DE0801C8642DED806246A46D2
:10D9700029467046A4DF002823D003200BB0F0BD59
:10D9800002209072002090816046059010A81249F4
:10D99000049070468E4504D100F05CFE00F04CFF10
:10D9A000864602A9A6DF0004000C0AD0082807D08A
:10D9B00011280FD0094940180CD00949C84203D199
:10D9C000062420460BB0F0BD6A4670460999A4DFD4
:10D9D0000028D2D10524F4E7FFFF0000FDCFFFFFB0
:10D9E00002FCFFFF70B5174905460160183516485F
:10D9F00028606C68002C05D02046E46900F054FFD4
:10DA0000002CF9D100266E601048083D28606C6833
:10DA1000002C05D02046E46900F046FF002CF9D127
:10DA20006E600B48083D28606C68002C05D02046CD
:10DA3000E46900F039FF002CF9D1284608386E60FF
:10DA400070BD0000E00E0200A40F0200B40F02003F
:10DA5000E40F0200704770B50025044605701021E0
:10DA6000401CFEF755FD6582A582E582204670BD0B
:10DA7000FFB5044608467D21C90081B048431546DC
:10DA800012490A9EFEF748FD87B27D212846C9004B
:10DA9000484327800D49FEF73FFD81B2618004981D
:10DAA000A08004221003A671042F01D2228002E07C
:10DAB000874200D92080042901D2628002E081429D
:10DAC00000D96080204605B0F0BD00007102000062
:10DAD000F8B504460878069F2070488A164660828A
:10DAE0001D461022601C491CFEF7ACFC66612583B4
:10DAF0006783A5830020E08321462031079A0A70BE
:10DB000001224A70089A6262099A0A7248728872FF
:10DB1000E06220636063A063E06320646064A064EB
:10DB2000E06420656065A065E06520666066A066CB
:10DB30002046F8BD10B50B480078C00710D1094841
:10DB400000F007FF00280BD00748002141608160EA
:10DB5000C16001614161054901600248C046C0469B
:10DB6000014810BD28280020E82D0020640F020085
:10DB7000F0B40446006882B000282CD000251B4F6A
:10DB800004266069403006706068796800950191EC
:10DB900040016169A4300818428B69460A80408BB5
:10DBA0006A46401C4880606901A9808894DF00288B
:10DBB00018D0206800280ED0401E206009D0002117
:10DBC0008A0012199368401E491C53600028F7D13F
:10DBD00020680028D5D1606940300178042901D13E
:10DBE0000221017002B0F0BC70470000640E020018
:10DBF000F3B58DB00D9D0021203529770E980422B4
:10DC000000786877042800D96A770D980022FF30E1
:10DC100025300690D24342608260C260026101609A
:10DC2000687F0024002830D90E98E1000E18307962
:10DC300000282CD018200D996043401842300090E5
:10DC40007088099000206946087101AF1021781C86
:10DC5000FEF75EFC69460998C8823946F78836891E
:10DC600014220098FEF7EEFB009887820098C68287
:10DC7000687F641CA042D7D80D98FF300130406AFD
:10DC8000002802D0069800F0C3F80FB0F0BD069847
:10DC900001688A00491C12180160546018200D990F
:10DCA00060434018F188328942308182C282DFE7C6
:10DCB000F0B50646403605468BB0044620356CE08C
:10DCC000684600220270A71D1021401CFEF720FCB0
:10DCD0000020694648823A78002A02D1788A0028D2
:10DCE00020D0297F182359430919A01D4231002A49
:10DCF00002D0012A08D011E00A78002A0ED1408A09
:10DD0000498A88420ED009E00A78012A06D11022F9
:10DD1000401C491CFEF746FB002803D0287F401C0E
:10DD200028773AE0E069002816D00027694605A860
:10DD30000F7501301021FEF7EBFB6946CF84287880
:10DD4000002809D1688A002806D1287F1821484375
:10DD50000019E1694230884730780128DED1606BD4
:10DD60000028DBD0287F1821484300194230838ADD
:10DD7000C18AA2880020E877A87702203070684620
:10DD8000038541850AA9104692DF002805D0307826
:10DD90000228C3D101203070C0E73078012820D19B
:10DDA000287F697F88428BD30806000E19D0287F10
:10DDB000002816D018214843001940300188002758
:10DDC0006F772F771148E51DF93581420BD1206817
:10DDD0004168204688473770002802D0696D0029C5
:10DDE00010D10BB0F0BDA088002290DF0028F8D041
:10DDF000206841682046884737700028F1D0696D57
:10DE00000029EED0A08888470BB0F0BDFFFF0000CE
:10DE100070B40446006883B000282AD01A4E032547
:10DE20006069182240300570606831680191504384
:10DE3000616942300818828A69460A80C08A48802F
:10DE400060696A46808801A994DF002818D020689C
:10DE500000280ED0401E206009D000218A0012192F
:10DE60009368401E491C53600028F7D120680028A1
:10DE7000D6D1606940300178032901D101210170B8
:10DE800003B070BC70470000640E0200F0B5402281
:10DE9000135C0127BA1E85B0032B08D0042B1ED1BA
:10DEA00004460B88FF343D34012B4CD04EE0054630
:10DEB0000B88FF352535012B02D14B88102B10D054
:10DEC000286800280BD0401E286008D000218A0056
:10DED00052199368401E491C53600028F7D105B0C1
:10DEE000F0BD89683A4B082410316B440E46203E41
:10DEF000F67F5E70891E0E789E709B1C641EF5D1A5
:10DF0000296800290CD06A68491E296008D00023BE
:10DF10009C006419A668491E5B1C66600029F7D145
:10DF200018214A4314184234694627701022601C95
:10DF3000FEF788FA6846408840BA60822846FFF7B4
:10DF400067FF05B0F0BD4B88132B10D02068002868
:10DF5000F7D0401E2060F4D000218A001219936887
:10DF6000401E491C53600028F7D105B0F0BD8968F8
:10DF7000174B082513316B440E46203EF67F5E702A
:10DF8000891E0E789E709B1C6D1EF5D1216800299C
:10DF90000CD06268491E216008D000239D002D1915
:10DFA000AE68491E5B1C6E600029F7D151010D1847
:10DFB000A83569462F701022681CFEF743FA6846A0
:10DFC000408840BA68822046FFF7D2FD05B0F0BD18
:10DFD000FFFFFFFFF3B50446274683B0002020373C
:10DFE000B877049904220978F977042900D9FA77D7
:10DFF0002546FF353D3528600020C0436860A86095
:10E00000E8602861F87F0026002822D90A203146DE
:10E01000414304980818017900291CD042890189DC
:10E020000292019181796A4611704388700100194A
:10E03000A288A430A16B00F0E0F8F87F761CB04213
:10E04000E4D8FF340134E06B002802D02846FFF703
:10E050008FFD05B0F0BD29688A00491C521929605E
:10E0600056604289018901920091837970010019FB
:10E07000A288A430A16B00F08CF8DEE7F0B507466B
:10E080000026403704468BB00546203443E06846FE
:10E0900006701021401CFEF73BFA69464E8220783C
:10E0A000002802D1618A00292AD0A17F490149199B
:10E0B000A831002802D0012808D029E008780028DB
:10E0C00026D1608A498A88420AD021E0087801284E
:10E0D0001ED11022601C491CFEF764F9002817D1DC
:10E0E000694605A80E7501301021FEF711FA694640
:10E0F000CE84A979A81D002902D1408A002807D022
:10E10000696B002904D0A07F40014019A4308847E2
:10E11000A07F401CA0773878022822D1A07FE17F21
:10E120008842B4D30006C00C217F401918228030E9
:10E130005143008C49194031098B401C80B2E6776D
:10E14000A67788420FD26A4610805180A888694617
:10E1500092DF002805D03878022804D0207F401CA8
:10E1600020770BB0F0BD01203870F7E710B50446FA
:10E170000068416820468847002240210A5500284F
:10E1800006D0FF2055300159002901D0A0888847CA
:10E1900010BD30B4039D029C0160C283448385831B
:10E1A000017EDA0749084900D20F1143FD221140D0
:10E1B0009A07D20F52001143FB2211405A07D20F87
:10E1C00092001143F72211401A07D20FD2001143D7
:10E1D000EF221140DA06D20F12011143DF22114063
:10E1E0009A06D20F52011143BF2211405A06D20F94
:10E1F00092011143017630BC7047F0B585B00A9D9D
:10E200000160C2836E460021044631701F46102112
:10E21000701CFEF77DF96846478214223146201DA6
:10E22000FEF710F90B9860830C98A083207EE90715
:10E2300040084000C90F0843FD210840A907C90F45
:10E2400049000843FB2108406907C90F89000843BA
:10E25000F72108402907C90FC9000843EF210840EA
:10E26000E906C90F09010843DF210840A906C90FC3
:10E2700049010843BF2108406906C90F89010843C5
:10E28000207605B0F0BD0000F0B505460068A5B0E9
:10E2900001680968884700287ED195480078C00742
:10E2A0007BD1934800F055FB002876D00020914C9C
:10E2B000239065609048206025469049083512916A
:10E2C0002095012108A801750DAF10211530FEF72A
:10E2D0001FF9002610A8C6801022781C1299FEF79C
:10E2E000B1F812993B46C87889780002084341BAD0
:10E2F00010A8C1802146E03115911F9118220227F4
:10E300001A92199101201897287010A8C088688265
:10E310001022591C681CFEF795F8199A6A612F8320
:10E3200018986883AF83EE83284620301A990170CD
:10E33000012141706E62067246728672EE622E6331
:10E340006E63AE63EE632E646E64AE64EE642E653F
:10E350006E65AE65EE652E666E66AE66684908A8A7
:10E3600012910121017007466C351021401CFEF707
:10E37000CFF8684646861022781C1299FEF762F89C
:10E3800012992246C87889780002084341BA684643
:10E3900041863846E23201E0A5E0A3E004231421DF
:10E3A0001A9303461B92199218910120287068460F
:10E3B000408E0F4668821022591C681CFEF742F8F6
:10E3C000199A6A612F83189B6B83AF83EE8328466B
:10E3D00020301A9B0370012141706E6206724672F2
:10E3E0008672EE622E636E63AE63EE632E646E64BD
:10E3F000AE64EE642E656E65AE65EE652E666E6685
:10E40000AE661F9A142116801B98FEF781F83D48CE
:10E410000078002863D11599FF20087015996F4680
:10E42000487020981D951C9008AD374E1021681C2F
:10E43000FEF76EF800206A46508610223146681CAE
:10E44000FEF700F8F078B1780002084340BA6A4657
:10E4500050860123137083B253821CAE1022691CB4
:10E46000781CFDF7EFFF02206A4610750020069623
:10E47000908365682868002802D1244801F066F876
:10E48000286801684969884701680A6869469047B1
:10E490001F49239808601B49012008701D486668C1
:10E4A000876845683068002802D1184801F04EF8A6
:10E4B00030680168496988470646202000F0F8F96D
:10E4C0000021016001614161C76085604460C161F4
:10E4D000114981617169002907D0C16170610448E7
:10E4E000C046C046002025B0F0BD7061F7E70000CF
:10E4F00000280020B0280020D40E0200FC0D0200ED
:10E500000C0E0200AC280020EC0D020018110200D5
:10E5100014280020E00D0200810C020070B50446B2
:10E5200000202060002908D1054D2868002803D16B
:10E5300004480068804728602060204670BD0000C5
:10E5400010280020E00D02000220704702207047D2
:10E550000220704701688968084710B50A460469B7
:10E560000346011D204602F0D1F910BD10B5026925
:10E57000011D104602F00FFA10BD000010B5044650
:10E580000648206000206060A060E06001F0DAF8DA
:10E590000349206102F01FFA204610BDF810020066
:10E5A00055E5010010B5044603482060211D20698F
:10E5B00002F0F1F9204610BDF810020070B50D46CA
:10E5C0000446FFF7D3FF6561206902F0E1F9616954
:10E5D00041182046FFF7C1FF70BD10B50446FFF794
:10E5E000C5FF0020A061E06210BD10B50446406880
:10E5F000616941182046FFF7B0FF2146E26A1831F1
:10E60000A069002A04D0002801D0091D904710BD40
:10E610000028FCD0804710BD10B504460448206097
:10E620002046FFF7DAFF2046FFF7BCFF10BD0000D1
:10E630000C11020048DF704710B5FFF7E5F810BD78
:10E6400010B500F043FA002010BD10B500F002F83C
:10E6500010BD7047F8B534480078C00761D1324822
:10E6600000F077F900285CD0304C3149216000235C
:10E67000A02223712546E2800A3523811F212846E6
:10E68000FDF746FF012700267F02EE772F847901F0
:10E69000204633460A462C300096FFF7E9F9044637
:10E6A000054608352C3C1F212846FDF731FFEE7743
:10E6B0002F845C20A665065526666666A666E66615
:10E6C00026676667A6678020E66706512046843085
:10E6D000066046608660C660066146618661C66106
:10E6E00020301449466001600830134946602746CF
:10E6F00001600A371F213846FDF70AFFFE771F2108
:10E700002846FDF705FFEE770C482060711EB42007
:10E7100001530B4A0B492046FDF72FFE0248C04625
:10E72000C0460248F8BD00001C280020782A0020BE
:10E73000F40F0200C40F0200D40F02009410020074
:10E7400000C0010045E80100084678DF002800D03D
:10E750000320704738B56846112202700C460846FF
:10E76000FDF74EFE82B2214668467CDF002800D0CD
:10E77000032038BD30B4044674DF002802D030BC1A
:10E7800003207047A06D40084000A06530BC002009
:10E79000704700000A78012A01D10220704710B4A6
:10E7A000044601208003032A4A8887B01ED0202A0D
:10E7B00018D3824216D88888134A904212D8002073
:10E7C0000090019002900390049005900B786A46A7
:10E7D000137010724888108288885082684673DFF0
:10E7E000002808D007B010BC03207047A02AF9D336
:10E7F0008242F7D8DFE7A06D01210843A06507B08A
:10E8000010BC002070470000FF3F000030B40C46F1
:10E81000C97F1F2902D9012030BC7047002908D0C8
:10E82000D37F204672DF002803D1208C78DF0028B8
:10E83000F2D030BC032070478030808E704780302B
:10E840008186704770B5104905460160AC350F48A8
:10E8500028606C68002C05D02046E46900F024F89C
:10E86000002CF9D100266E600948083D28606C68CC
:10E87000002C05D02046E46900F016F8002CF9D1F0
:10E880002846A4386E6070BDF40F0200D40F020059
:10E89000C40F020040300078002800D001207047EB
:10E8A000002070471420704710B5FDF774FF10BDAD
:10E8B00010B5040008D1012406E0FDF733FF00681D
:10E8C000002800D1034880472046FDF733FF002889
:10E8D000F3D010BD31C8010000210170417081707A
:10E8E000C1700171417170470021018041808180B8
:10E8F000817170470A7802704B7843708A78827011
:10E90000CA78C2700B7903714A79427170470A78EC
:10E9100002704B7843708A788270CA78C2700B7923
:10E9200003714A7942718A798271CB79C3717047D8
:10E93000FFB581B01C4617460E0007D0019D02E0CE
:10E940002846B047ED192046641EF9D2019805B05B
:10E95000F0BD0168002901D000207047012101604D
:10E960000846704710B50020FDF75CFF10BD0000A1
:10E9700010B5044804490160044A0549FDF7FDFC4F
:10E9800010BD0000302800205810020000C0010017
:10E9900053E6010010B50648FFF7F0FD0022826142
:10E9A000C26204490160044A0449FDF7E6FC10BD57
:10E9B0001C2E00200C11020000C0010019E601000D
:10E9C00010B500210748FFF7A9FD074800220260A3
:10E9D00042608260C26002611221426100F0F6FE74
:10E9E00010BD0000782800205C2F002002486A46F5
:10E9F000C008C000704700008B2F00200004000CEE
:10EA000007D1BFF34F8F04490248C860BFF34F8F4F
:10EA1000FEE770470400FA0500ED00E038B5024655
:10EA2000074814230178074C59430818C368017933
:10EA30001B01E458C388009343690C30A04738BDDC
:10EA4000202F00204C2F002070B519480068804707
:10EA5000B12044DF002803D000221146FFF7CEFF8B
:10EA600011DF002803D000221146FFF7C7FF114C29
:10EA7000606913DF002803D000221146FFF7BEFFB4
:10EA800001210D4A880510600C4A002013680C4DC6
:10EA90000A4682401A4204D0C606F60E0A46B24022
:10EAA0002A60401C2028F3D3606900F00BF870BD89
:10EAB0005C2800200010001080E200E000E100E08F
:10EAC00080E100E010B5FDF74BFB10BD00B520481C
:10EAD00085B08069C00701D0082000E00D201D4BE3
:10EAE00048221D4901F02AFE002802D00004000C33
:10EAF00009D01A490868496800900191684660DFAA
:10EB0000002810D107E0BFF34F8F16491448C860A2
:10EB1000BFF34F8FFEE702A871DF002803D102A9DF
:10EB200070DF002802D0072005B000BD0E4801F0BC
:10EB3000FBFD0004000CF7D10C4801F01BFE0004A3
:10EB4000000CF1D1FEF732FA002005B000BD000044
:10EB500000050040A1CF0100A82900201C0E0200E2
:10EB60000400FA0500ED00E0C9CD01007DD00100F0
:10EB7000F8B5394914230A780F205A4354183749F5
:10EB8000227926698F88241D022A24D001252D0789
:10EB9000042A33D0052A1DD1286981B23046FDF7F9
:10EBA000BBFC0146A38828699A1980B24843101A11
:10EBB000820860881818861928694B1C80B258434F
:10EBC000801B8308204601F0E1FD002802D1224984
:10EBD00001228A70F8BDB80262882169121A0918E8
:10EBE000A3883018181801239B029A4202D2920877
:10EBF00029DFEAE7FF22013229DFE6E7A3681848A8
:10EC000019010818018942894068B04203D160881F
:10EC10005143814218D0022B16D0286981B2304668
:10EC2000FDF77AFC0146286980B24843301A820811
:10EC300028694B1C80B2584363889B19C01A83080B
:10EC4000204601F0A3FDC0E7286981B23046FDF7F8
:10EC500063FCC01928DFB8E7202F002050280020CF
:10EC60004C2F0020F8B5134C069E6578022D1ED05F
:10EC700027787D19EDB2022D01D3AD1EEDB2142718
:10EC80007D432D1928716A61086849682961E86027
:10EC9000EB802E81A1780020002904D1FFF768FFC6
:10ECA000112800D100206178491C6170F8BD042052
:10ECB000F8BD0000202F0020F0B591B086468C46AC
:10ECC000189E199D1A9C1798D10601D491060BD550
:10ECD00000216F460191BF79F92139406F46891CA7
:10ECE000B97111213971797100270297039704973F
:10ECF000059706970797694608970A72D10601D4C7
:10ED0000910601D501A900E000210791002C05D052
:10ED1000002D03D0694603950C824C826C46009707
:10ED2000A178F72421401B9CE4002143EF242140DB
:10ED30001C9C24012143C9B2F9242140891C6C4642
:10ED4000A170B04202D00124214301E049084900EA
:10ED50006C46A170910703D4D10601D4910610D559
:10ED6000062B0ED219007944097949188F440902FB
:10ED7000050717191121217003E0212100E031213D
:10ED80002170110701D4510716D5062B14D2190092
:10ED90007944097949188F440F06090C2023122160
:10EDA000EEE72221ECE71121617005E022462121E6
:10EDB00001E022463121517061460B910D970E976B
:10EDC0000C94A086268716980F900BAA02A970466D
:10EDD0001D9BA2DF80B211B0F0BD22461221EAE7EE
:10EDE00022462221E7E7F0B488B000276D4600975D
:10EDF000AC78F9252C4084460C9EA41C0D986D46D9
:10EE0000AC70B34202D001252C4301E064086400D9
:10EE10006D46AC7011242C706C70029104970597AC
:10EE200003952B82AE820692024602A96046A3DFBA
:10EE300008B0F0BC80B27047F0B587B00446408A95
:10EE40006946088000208870217801208E460029BC
:10EE50000BD000A8354A023084461368611C00209C
:10EE6000334D002B17D9002206E06946887058E020
:10EE7000022A2FD0032A2BD0060186197619B65CF8
:10EE80008F5CBE4202D1521C102AF1D3102A23D02B
:10EE9000401C9842E7D326460027714612360029C7
:10EEA00021D0601C69460F71C91D0822103003462D
:10EEB000203BDB7F4B70801E03788B70891C521EB9
:10EEC000F5D101A902A863DF00280ED038460EE074
:10EED0000422D1E70322CBE7010140184019017C4D
:10EEE000604601701DE03046DCE7684600796946FF
:10EEF00088702278002A17D0611C0C4C06462068C6
:10EF000008280ED00201801840191022FDF79AFA45
:10EF100020680101411849198F70CF700E74401C90
:10EF20002060009807B0F0BD3146E6E718280020C1
:10EF3000F0290020F0B50E4683B0044681786A4679
:10EF4000224801F047FA002825D160780C21204F93
:10EF50004843C019807A40061FD4022E1DD0012ECE
:10EF60001DD01C4DA0781C2148431B49002341188B
:10EF70001C226846A847002813D0022E0BD0207808
:10EF80000C21484315494018807A154980000A58D9
:10EF900021466846904703B0F0BD124DE2E7124D9E
:10EFA000E0E7022EF7D060780C214843C019817A3F
:10EFB000BF221140817260781C2148430B494118DF
:10EFC0001C231A466846A847D9E7000048280020B5
:10EFD000F02E0020890702004C2E0020FC2E00207D
:10EFE0006C0E0200A506020021050200BC2E0020C6
:10EFF00070470000F0B504469BB000200290FF4827
:10F00000FF25007800285BD0FD480068002857D015
:10F01000FF20694648718871C87100210D91211D3A
:10F0200004912A2369468B8200200871F5482288C2
:10F03000C17A807A102A0ED0A2880223F14E18429B
:10F0400009D0F14B9A4202D03389934203D16B46E7
:10F05000002299715A71ED4A26889446103213782D
:10F060000C32577A172E7DD01DDCE94A174610372F
:10F0700014971C370C971C370B971C370A97178B64
:10F080000997978E40320897178A0797978D102E09
:10F0900018D0112E67D0132E66D0142E10D1D94D52
:10F0A000FF296FD0F0E0D649DA4B897A8A00182E12
:10F0B00069D01C2E68D0522E02D1995801A88847D9
:10F0C0001BB0F0BDCF4EC007C00FF9D00221B17206
:10F0D000112269460A7300204871A08830813046A9
:10F0E0000722A11DFDF7AEF9607DC10706D04108DA
:10F0F000C948405CFF282DD005462BE0C248A41D1E
:10F100001CD0072221461498FDF74CF9002835D071
:10F11000072221460C98FDF745F9002830D0072238
:10F1200021460B98FDF73EF900282ED007222146F4
:10F130000A98FDF737F900280BD0E6E109998142DA
:10F140001CD0089981421BD0079981421DD087426B
:10F1500062D10325F572B07A08221043B0722946B5
:10F16000684602E015E126E097E0857101AC06AA49
:10F17000AA4801F02FF9002809D0C6E10025E9E7E7
:10F180000125E7E749E096E1BCE10225E2E76846B0
:10F1900041791C204143A2481C2308181A4606A99D
:10F1A00001F078F99648807A81009E4842582146BD
:10F1B00006A89047A9E1FD21924D0840A8720107D9
:10F1C00006D5C00923D0002101A8FFF7B3FE1EE039
:10F1D00068468479FF2C1AD01C20214641438C4874
:10F1E0000E1830461130FFF777FB30461021FDF73F
:10F1F0008FF9FF2131740020B176C04330837F48FE
:10F2000001224368A2409343436068468171102005
:10F21000A87212206946087377E1E189099A8A4247
:10F2200016D0089A8A4215D0079A8A4214D08F4283
:10F230002CD1032108221043E972A872684681711B
:10F2400001AE06AA754801F0C5F8002806D018E0FE
:10F250000021EFE70121EDE70221EBE76846407965
:10F260001C2148436E491C2340181A4606A901F088
:10F2700011F96348807A81006A484258314606A8ED
:10F280009047E87AFF2801D065480290604AA0883C
:10F290000023029982DF1BB0F0BD13256E46357343
:10F2A0000426584D3043A872FF2921D01620694604
:10F2B000087360460E21FDF72DF92846817A402219
:10F2C0001143817200204F491190CA7A1C214A4390
:10F2D0004F4913905118129151490E910F9010906F
:10F2E000A0880EAB504A00217FDF0028D3D10CE16B
:10F2F000444800258446A438877E4C49FE26FF2FCB
:10F300000CD04B48857DFF2D15D0907CFF2820D058
:10F310004848827BFF2A2AD00D91D3E7022B07D0E1
:10F32000FD218176072261461498FDF78BF800E0F5
:10F330008676284628E0022B07D0FD21817507221A
:10F3400061460C98FDF77EF800E0867501210846BD
:10F350001AE0022B07D0FD209074072261460B981B
:10F36000FDF770F800E09674022108460CE0022BCD
:10F3700007D0FD218173072261460A98FDF762F8E4
:10F3800000E0867303210846694688711D49C872EA
:10F3900098E71B4A7D086D005572FB22194D1040FD
:10F3A000A87214226E463273A279002A47D00D4605
:10F3B00006AA1A4801F00EF800281ED1542106A80A
:10F3C00001F032F8002818D11C202946414310488A
:10F3D0000E1830461130FFF77FFA30461021FDF746
:10F3E00097F8FF2131740020B176C0433083034881
:10F3F00001214268A9408A4342601DE03C28002068
:10F40000FC2E0020F02E0020FFFF0000E02E002048
:10F410004C2E00208C0E020044280020482800209A
:10F42000BC2E00207C0E0200002F00204380000034
:10F430006C2E0020AC2E0020A0790D9065E0E279C2
:10F44000520762D5B279FF2A5FD008263043A872EE
:10F45000E07A800708D51C2014464443374820181A
:10F46000847E640864008476FF294ED0022B12D07B
:10F470001C20324C42431019294607221030FCF759
:10F48000E1FF684680791C2148430019827EFD21F6
:10F490000A4082760AE02A48418A1C2042432748D3
:10F4A00010180183817E490849008176012101A855
:10F4B000FFF740FD29E0A1790C09012C17D10907BC
:10F4C000090F012913D11F4C010710D560460E21E9
:10F4D000FDF720F8162069460873A07A60210843DA
:10F4E000A072194839460222114341720DE01549B4
:10F4F000802420438872152069460873995801A812
:10F50000884702E01320694608730F4B01A81B6867
:10F5100003A90D9A98476846007B122800D0BAE6E6
:10F520000848817A0129FAD001218172891E01815E
:10F53000FF21C172FFF7D8F91BB0F0BD4C2E00209F
:10F54000BC2E0020F02E0020FC2E0020012000F018
:10F5500000F8002801D000F083FEFEE7002070478D
:10F560000020704700207047F8B505464078182104
:10F570004143254A0C238A18944658430024526874
:10F58000224B2746C01826469646002A0BD0837A7F
:10F590001A46DB0907D0530605D41B4A6446734656
:10F5A00056589FB20834008933463A462146A9DFAF
:10F5B0000B281BD0002800D01548012E15D16878E3
:10F5C0000C2148431149134A401800890C21A7DF38
:10F5D00000280AD01049884213D0082811D0891C6D
:10F5E00088420ED011280CD00020F8BD68780C217C
:10F5F000484306490123401800893A462146A9DFBD
:10F60000DDE70348F8BD0000D82E0020F02E0020D2
:10F6100041800000FFFF00000230000070B50C4682
:10F62000014660781822084D50434019382300F0F5
:10F6300031FF002807D161781822514349194A68DF
:10F64000521C00D14A6070BDD82E0020F3B585B0A1
:10F650000D460E206946088268780C21032748432E
:10F66000244E3B468019008904AA6946AADF002877
:10F670003DD16878182148431F4C694600190A8A11
:10F680000830FCF78FFE0028687807D0182148431F
:10F6900001194968002912D0184E11E00C2141438C
:10F6A0008919897A890722D4182148430019002131
:10F6B000016041608160C1600161416117E0104EED
:10F6C00027506846028A687818214843001942602A
:10F6D00068784843001969460830FCF783FD68786C
:10F6E000182148430119382318220598B0470020F3
:10F6F00007B0F0BDF02E0020D82E0020A506020095
:10F700002105020010B5FFF72FFF10BD70B50C46A4
:10F71000014660781822084D50434019382300F004
:10F72000B9FE002807D161781822514349194A6867
:10F73000521C00D14A6070BDD82E002010B5FFF7D2
:10F7400085FF10BD00487047C40E020070B5044626
:10F75000002020560D46401C04D12A220A490BA045
:10F7600000F05CFD0F48002D08D0012D05D10022CE
:10F77000A256012192001018016070BD002162564E
:10F7800092001018016070BD741202006F626A2D41
:10F790003E70696E20213D202850696E4E616D6576
:10F7A000294E43000007005001704A1C0AD0012274
:10F7B0008A4005494260C160091D0161091D41611E
:10F7C000091D8160704700000805005070B50D46A6
:10F7D00004460026FFF7E8FF6D1C12D0A057401C1E
:10F7E00004D124220749084800F018FD2169606807
:10F7F000086001212046FFF7A9FF3146204600F0AE
:10F8000035F870BD0012020054F80100F8B5044646
:10F810000E4600271546FFF7C7FF761C16D0E057A7
:10F82000401C04D124220A490AA000F0F7FC6068B9
:10F83000002D01D0E16800E0216908600121204627
:10F84000FFF784FF3946204600F010F8F8BD0000AD
:10F85000001202006F626A2D3E70696E20213D2009
:10F860002850696E4E616D65294E430010B5024601
:10F870000020105600F08AFD10BD0000F8B51E4CA7
:10F880002078002837D02069002807D00026E068BB
:10F89000002805D00025002E04D013E00126F6E74D
:10F8A0000125F8E7684651DF052806D0002806D074
:10F8B00000221146FFF7A2F804E0012602E02169C8
:10F8C00000988847002D12D1608869460880A0689A
:10F8D00061DF052806D0002806D000221146FFF778
:10F8E0008DF804E0012502E0E168A0688847002E59
:10F8F000D8D0002DCFD0F8BD60280020FF4C0020CC
:10F90000FFB02056FFB0C0B0401C04D12422FC49F7
:10F91000FC4800F083FCE16860680860FCAC2046AD
:10F92000FEF72CFEF849016000218161C1620F469B
:10F93000FFABF64A1F622046F549DA60FEF73EFE4D
:10F94000F448FEF7A1FCF34C2068002802D1F248ED
:10F95000FFF7FCFDEF4800680168C9688847044666
:10F96000EE4DAC342020FEF7A3FF47608760C760F0
:10F97000076147618761C7610560616800297DD0C3
:10F98000C1616060FFA90322A4310A71E148E44922
:10F990000590049168460776877664244476FFA82C
:10F9A000843000270090077004AE0098354610217F
:10F9B000401C0835FCF7ACFDFFA8DA4984304182D1
:10F9C000009812218446032001910090029702239F
:10F9D0002A4603976146281DFEF77AF8FFA96C3086
:10F9E0008862FFA8FFAE44305C3607761021701C99
:10F9F000FCF78EFDFFA8CC4944304185022001234D
:10FA00000190FFAA029703970093FFA83146A832FE
:10FA1000806AFEF75DF806466C30FFAAFB907032F4
:10FA2000FFA800926430077300981021401CFCF777
:10FA30006FFDFFA8BD494430C1870122009908200D
:10FA40001346009201903246029703976D3AFB9855
:10FA5000FEF73EF80646D838E43E0190304678304E
:10FA600002906C300390FFABFFA8243384304361D5
:10FA70004038FB9007701021FB9800E026E0401C06
:10FA8000FCF746FDFFA8AA4944304182FFAA01A91C
:10FA90008432FB989161FFA9536924310F70A44A05
:10FAA000FFA9CA86411C1022581CFCF7CBFCFFA8FA
:10FAB00003212430017560308169FFA8C163001DF6
:10FAC000878777683868002802D004E0606059E7CB
:10FAD0009848FFF73BFD3868016849698847016825
:10FAE0000A68FFA924319047934877688268416883
:10FAF000FFA88430826141613868002802D18D48B6
:10FB0000FFF724FD3868016849698847FFAA8432F5
:10FB1000936951690746D36120209161FEF7C8FEC1
:10FB2000FFAA8432D36991690022026002614261B6
:10FB30004660C360C2618160804981617969002942
:10FB40007ED0C1617861FFA87DA2843042657DA22C
:10FB500082657EA2C2657EA202667FA2426680A204
:10FB60006C498266589158AE406DFCF749FC82B2F0
:10FB7000FFA884300192406DFCF742FC81B2FFA8DF
:10FB80008430416700210171071D1021781CFCF7AA
:10FB9000BFFC7649381FC1820020019A02230290DF
:10FBA000039001930092381F436F426D3946301D18
:10FBB000FDF78EFF061F381F806DFCF721FC82B217
:10FBC000381F0192806DFCF71BFC81B2381F016762
:10FBD0000021017614371021781CFCF799FCFFA84E
:10FBE0006349843041850020019A029003900223EA
:10FBF000FFA8019300928430036F826D304639462E
:10FC00007030FDF765FF0646FFA88430703EC06D7A
:10FC1000FCF7F6FB82B2FFA884300192C06DFCF7BE
:10FC2000EFFB81B2FFA88430816500212030017391
:10FC300014371021781CFCF76BFC4E49FFA800E03C
:10FC4000E5E08430C1870020019A029003900223EE
:10FC5000FFA8019300928430836DC26D304639460F
:10FC6000DC30FDF735FF0646FFA88430DC3E006E31
:10FC7000FCF7C6FB82B2FFA884300192006EFCF74D
:10FC8000BFFB81B2FFA88430816514370021397031
:10FC90001021781CFCF73CFC374938464182002093
:10FCA000019A029003900223FFA8019300928430EE
:10FCB000836D026E3046FF3039464930FDF708FF4C
:10FCC0000646FFA8FF3E8430493E406EFCF798FB95
:10FCD00082B2FFA884300192406EFCF791FB81B2A2
:10FCE000FFA884308165002120380174503F102125
:10FCF000781CFCF70DFC2149FFA841E05C2F002097
:10FD0000A411020060D001000C11020005D0010016
:10FD100040420F00782800205E11020099D10100B6
:10FD2000580F0200372A0000382A0000392A000044
:10FD30000D180000181102009C0E0200AF0C02000A
:10FD400041524D004D6F64656C310000534E3100DF
:10FD500068772D726576310066772D726576310091
:10FD6000736F66742D72657631000000292A0000D9
:10FD7000242A0000252A0000272A0000262A000045
:10FD8000843041800020019A029003900223FFA852
:10FD9000019300928430836D426E3046FF303946C5
:10FDA000B530FDF795FE0646FFA8FF3E8430B53E10
:10FDB000806EFCF725FB82B2FFA884300192806E32
:10FDC000FCF71EFB81B2FFA884308165303F002123
:10FDD00039701021781CFCF79BFBF94938464182A9
:10FDE0000020019A029003900223FFA83946019354
:10FDF0000092843011277F01836D826EF019FDF728
:10FE000067FEC61BEF48007800284AD101E0786100
:10FE100099E6311DFFA8C1656C3101666C31416600
:10FE20006C3181666C31C166F1190167FFAB24301A
:10FE300044330190002119701F461021581CFCF713
:10FE400067FBFFA8E04944304182FFAA01980023E4
:10FE5000243213703946DC4BFFAAFFAFD3865C37E0
:10FE60001022401C491CFCF7EDFAFFA806212430A3
:10FE70000175FFA8C7630021001D818736683068BF
:10FE8000002802D1D148FFF761FB30680168496959
:10FE9000884701680A68FFA924319047C9490120B1
:10FEA0000870CB4E3068002802D1CA48FFF74EFBDD
:10FEB000C74800680168C968884706460746FFA822
:10FEC0000621243001720121FFA88162FFA92C3193
:10FED000416201200A36FB90F07FC11C1F2922D805
:10FEE000801902220121FCF7EEFAF07FFFA9401CE5
:10FEF000C0B2F0778A6A80190121FCF7E4FAF07F3A
:10FF0000FFA9401CC0B2F0778019FB9A496AFCF740
:10FF100099FAF07F3A46401CF077396838464B6DC5
:10FF2000343231469847AA4E3068002802D1A94899
:10FF3000FFF70CFBA64800680168C96888470646B9
:10FF400007460A360323FFA80296A34AC362042188
:10FF50004262FB91F07F811D1F2922D88019052262
:10FF60000121FCF7B0FAF07FFFA9401CC0B2F07786
:10FF7000CA6A80190121FCF7A6FAF07FFFA9401C8C
:10FF8000C0B2F0778019FB9A496AFCF75BFAF07F00
:10FF90003A46001DF077396838464B6D3432029985
:10FFA00098478B4E3068002802D18A48FFF7CEFA76
:10FFB000874800680168C9688847074600680D26B9
:10FFC000B601C26B31463846904738460A30FFA921
:10FFD00002908E857E8506461921FFA88162FFA9C1
:10FFE0002C3141620220FB90F07F011D1F2924D893
:10FFF000801903220121FCF766FAF07F0121401CE1
:020000040002F8
:10000000C0B2F0778319FFA8826A1846FCF75BFA42
:10001000F07F401CC0B2F0778319FFA8416AFB9AB9
:100020001846FCF70FFAF07F3A46801CF0773968E3
:1000300038464B6D343202999847654E3068002837
:1000400002D16448FFF782FA614800680168C96814
:10005000884707460920FB90604802900820FFA9C6
:10006000C86238680299426B384690473E460A3665
:100070000396FFA9FB98886202984862C86AFB90C1
:10008000F07F01460A311F2923D880190922012156
:10009000FCF719FAF07FFFA9401CC0B2F0778A6A1A
:1000A00080190121FCF70FFAF07F401CC0B2F077F5
:1000B0008319FFA8416AFB9A1846FCF7C3F9F07F41
:1000C0003A460830F077396838464B6D3432039938
:1000D00098473F4E3068002802D13E48FFF736FA75
:1000E00030680168C96888470021017130680028BC
:1000F00002D13848FFF72AFA354800680168C96814
:100100008847064600687D278168FF00304688479B
:10011000B84204D9306881683046884707467D2157
:100120003846C90048432E49FCF7F6F9F080284EBE
:100130003068002802D12748FFF708FA30680168C4
:10014000C9688847074600683A4634323946436DE5
:100150000A31384698473868391D826D38469047CD
:10016000204F387800284CD03068002802D11E4833
:10017000FFF7ECF930680168C9688847806D80072F
:100180003FD500203870641CE4B2AF2C00D1642449
:100190006846007E41084900684601764476059F1E
:1001A0003868002802D10948FFF7D0F9386801689B
:1001B000496988476946097EC90717D0022316E0B6
:1001C000282A0000AD2800200A180000181102009B
:1001D000782800205E1102009C0E0200A80E02008A
:1001E0007102000074280020811102000123694679
:1001F000498F0027009707682A46FF685B1CB847AD
:10020000AEE73068002802D10348FFF79FF9306855
:100210000168896A8847A3E73B11020013460A4632
:1002200010B5014601A0FFF791F910BD6D6265643C
:10023000206173736572746174696F6E20666169A1
:100240006C65643A2025732C2066696C653A20251C
:10025000732C206C696E65202564200A0000000064
:1002600098B012216846FFF7B1FA132106A8FFF7EC
:10027000ADFA12210CA8FFF7A9FA132112A8FFF773
:10028000A5FA694600200856401C04D124223449AE
:1002900034A0FFF7C3FF039901980860694618204E
:1002A0000856401C04D124222D492EA0FFF7B6FF8A
:1002B0000A990798086008A910200856401C04D124
:1002C0002422274927A0FFF7A9FF10990D9808605D
:1002D00010A908200856401C04D12422204921A03E
:1002E000FFF79CFF159913980860962000F086FC94
:1002F000694600200856401C04D12422184919A040
:10030000FFF78CFF04990198086069461820085689
:10031000401C04D12422124912A0FFF77FFF099943
:100320000798086008A910200856401C04D1242210
:100330000B490CA0FFF772FF0F990D98086010A9E8
:1003400008200856401C04D12422054905A0FFF7C7
:1003500065FF169913980860962000F04FFC90E70F
:10036000001202006F626A2D3E70696E20213D20EE
:100370002850696E4E616D65294E43007047704785
:1003800000207047002070470020704770B5044679
:100390000D46401C04D11A22074908A0FFF73EFF72
:1003A0000B48A100081801680C2291430160016804
:1003B000AA001143016070BDE412020070696E2052
:1003C000213D202850696E4E616D65294E43000025
:1003D00000070050124B1B78002B05D0002801D0DD
:1003E000002A03D10E2070470820704730B40468FB
:1003F000002C0DD10B4B1D68002D09D045681889C4
:10040000414369185D89454358682818884202D8D5
:1004100030BC072070471460516030BC002070472A
:10042000502800204C2F0020F8B5044617480E46EF
:100430000078002805D0002C05D0206800281BD1AA
:1004400003E00820F8BD0E20F8BD1149002508681A
:10045000002811D048890A894968504343186068C8
:10046000834209D9830701D01020F8BD401A1146F4
:10047000FCF752F8002901D00720F8BD33460022CE
:10048000214604200095FEF7EDFBF8BD5028002022
:100490004C2F0020F8B507461F48164600780D4639
:1004A000002807D0002D07D0002F05D0286800288D
:1004B00017D103E00820F8BD0E20F8BD174C2068C6
:1004C00000280ED0608921896268484382186868D4
:1004D000824206D9002E04D0B14202D3F2188A42D9
:1004E00001D90720F8BD39461943890701D1810791
:1004F00001D01020F8BDC11832463846FBF7A2FFE4
:10050000009628680022000124583B460321284613
:10051000A0470020F8BD0000502800204C2F0020EC
:10052000F8B50C461A490978002907D0002C07D0E5
:10053000002805D00168002917D103E00820F8BD84
:100540000E20F8BD13490D68002D0ED04E890D897F
:1005500049686E43761841688E4206D9002A04D055
:10056000954202D3D618AE4201D90720F8BD2546E0
:100570001D43AD0701D1890701D01020F8BD0093BC
:100580001346014622460220FEF76CFBF8BD000030
:10059000502800204C2F002040498A78012A7CD125
:1005A000F8B500243E4A8C705378082B07D00228F7
:1005B00016D0032802D10D20FEF730FAF8BD02282C
:1005C0000CD0147048780028F8D0FEF7D1FA002833
:1005D000F4D01128F2D0FEF721FAF8BD5470F1E7FB
:1005E0002E4814250178694308182D498A88521C21
:1005F00095B28D800279001D022A05D14688A90294
:10060000B14201D3012600E00026052A01D1072BC3
:1006100003D00021042A02D003E00121FAE7072BCE
:1006200003D00027042A02D007E00127FAE7408818
:10063000AA02824201D3002B2DD00020394301436E
:1006400031431CD0164D20466C70FEF7E7F9134875
:1006500014220178514309180C71CC800C610122DD
:100660004C61CA600C81AC804178491E41700178B0
:10067000491CC9B20170022901D3891E01700748C3
:1006800040780028A9D0FEF773FA0028A5D01128D9
:10069000A3D0A0E701E00120D0E77047202F002081
:1006A00050280020F8B50C461A490978002907D0CF
:1006B000002C07D0002805D00168002917D103E0DD
:1006C0000820F8BD0E20F8BD13490D68002D0ED08E
:1006D0004E890D8949686E43761841688E4206D965
:1006E000002A04D0954202D3D618AE4201D9072081
:1006F000F8BD25461D43AD0701D1890701D0102063
:10070000F8BD00931346014622460520FEF7AAFADB
:10071000F8BD0000502800204C2F002010B50846DE
:100720001146C046C04610BD002803D00249C8602B
:10073000002070470E20704760280020002901D15A
:100740000720704730B48C0702D0072030BC7047B8
:10075000064CA16062800649636010DF0028F5D175
:100760000120207016202EDF30BC7047602800204A
:100770001D070200002803D00249086100207047CD
:100780000E2070476028002000207047FFB581B020
:100790000F465C4D049B039906466A781943032073
:1007A0008E46002A03D1002912D001216970039AD4
:1007B000554B697892001C040092072978D20A00F0
:1007C0007A4412799218974473051E314D7584004E
:1007D0000221EBE75869401C05D0206981B25869B5
:1007E000FBF79AFE00E060692169401E89B2484328
:1007F000216909048A0C216989B2794329DF00281B
:1008000056D1022153E0384628DF002850D1039901
:10081000002901D003214AE00499002904D131784C
:10082000042940D1072142E0042140E05869401CDE
:1008300005D0206981B25869FBF76EFE00E060695F
:100840002169401E89B241432069039A80B27843EE
:1008500029DF00282CD104990029E5D13178042919
:1008600024D020E05869401C05D0206981B2586925
:10087000FBF752FE00E060692169401E89B24843DF
:100880007188421800981018226992B27A4352185F
:100890000099531801461846049A29DF002807D109
:1008A0003178042902D0052101E001E006216970B8
:1008B00005B0F0BD2069009980B278434018718876
:1008C0008A08316929DF0028F2D171460029EDD16B
:1008D000A8E75869401C05D0206981B25869FBF728
:1008E0001BFE00E060692169401E89B2484321690E
:1008F00089B2FBF711FE28DF0028D9D107216970E2
:1009000005B0F0BD502800200010001070B50D4655
:1009100072B64B600A60436800215C68002C0CD002
:100920002668961B03D42146A468002CF8D1002920
:1009300003D08D60AC6062B670BD5D600068016917
:1009400010468847F6E710B504460068C06880473F
:10095000606840680028206811D04068804761685E
:100960000246486803689A1A002A0BDC82684A60CB
:10097000616809680029EBD040688847E8E780682B
:10098000804710BD4868216800680969884710BD24
:1009900000684068004710B572B643685A688A42DA
:1009A0000DD189685960002905D00068096802697D
:1009B000084690470DE000688068804709E0002AFB
:1009C00007D09068884202D18868906001E00200F8
:1009D000F7D162B610BD70B5044600680D460068D8
:1009E00080476068056070BD024900204860024988
:1009F00008607047001101404011014006484178ED
:100A0000002907D00121054A09049160044A916038
:100A1000002141707047000094280020001301401D
:100A20004013014070B5104C207800281BD10F49AD
:100A300088600F49022088600E4948600E490868A6
:100A4000FF22120290430322012592031043086003
:100A50000A49680408600A4908600A4805602F20AE
:100A6000FBF7B0FB257070BD9428002000150140F5
:100A7000401301400013014010E400E080E200E078
:100A800000E100E00010014010B50248FFF75BFFF5
:100A900010BD0000C40E020010B5114C20780028D3
:100AA00001D1FFF7BFFF0F4841680022002906D09F
:100AB0006168491C616042600B490220886060687F
:100AC0001106030A1943094B00065B6811431843DA
:100AD000074A0023FBF7B8FB4904C00B084310BDCD
:100AE00094280020001101404013014000150140EE
:100AF00040420F00F8B5394C05462078002801D156
:100B0000FFF790FF364F78680021364E002805D059
:100B10006068401C606079600220B0602F484068C7
:100B20000C46020A090611432F4A00065268214367
:100B300010432E4A0023FBF787FB02464804D20BE2
:100B40000243C90B601961410123DB079A4204D9B2
:100B50009D4202D20122001C5141420CC903244B88
:100B60001143C0030022C01851415A1C0023FBF757
:100B700083FB1A494A78002A02D08A6890422CD016
:100B80007A68002A05D04A68521C4A607C600222BA
:100B9000B2604A68144B12065D682A43821A022A20
:100BA0000DDC7868002805D04868401C48607C60EF
:100BB0000220B06048685A6800061043801C020298
:100BC0000C4B120A1A6088604878002805D1012071
:100BD00048700004B06008494860F8BD94280020BF
:100BE00000110140401301400015014040420F0038
:100BF0003F420F00401501400013014070B57D21B8
:100C0000C90048430446FFF747FF0546FFF744FF86
:100C1000401BA042FAD370BD70B50D460168044672
:100C2000002902D02846884709E06068002806D0DD
:100C3000A369002B03D021462A4608319847E06972
:100C4000002802D02946FFF7E7FF70BD70B50D46BA
:100C500001680446002902D02846884709E06068F8
:100C6000002806D0A369002B03D021462A4608316C
:100C70009847E069002802D02946FFF7E7FF70BDDA
:100C800030B583B0044615466846FDF740FE01982E
:100C9000019940100019C90707D00099026851183E
:100CA0000B682946984703B030BD009BF9E730B583
:100CB00083B0044615466846FDF729FE0198019960
:100CC00040100019C90707D00099026851180B6835
:100CD0002946984703B030BD009BF9E770B50D4633
:100CE00001680446002902D02846884709E0606868
:100CF000002806D0A369002B03D021462A460831DC
:100D00009847E069002802D02946FFF7E7FF70BD49
:100D100070B50D4601680446002902D02846884770
:100D200009E06068002806D0A369002B03D02146A3
:100D30002A4608319847E069002802D02946FFF783
:100D4000E7FF70BD70B50D4601680446002902D06A
:100D50002846884709E06068002806D0A369002B70
:100D600003D021462A4608319847E069002802D07E
:100D70002946FFF7E7FF70BD70B50D4601680446D0
:100D8000002902D02846884709E06068002806D07C
:100D9000A369002B03D021462A4608319847E06911
:100DA000002802D02946FFF7E7FF70BD70B50D4659
:100DB00001680446002902D02846884709E0606897
:100DC000002806D0A369002B03D021462A4608310B
:100DD0009847E069002802D02946FFF7E7FF70BD79
:100DE00085D0010000000000010000000000153067
:100DF0001212EFDE1523785FEABCD1230000153113
:100E00001212EFDE1523785FEABCD1230000153201
:100E10001212EFDE1523785FEABCD1230100000037
:100E200000000000000000000000000000000000C2
:100E300000000000000000000000000000000000B2
:100E400000000000020000000000000000000000A0
:100E50000000000001000000000000000000000091
:100E6000000000000028010003280100890302009F
:100E70004DF6010065F501003DF701008503020014
:100E80001DF6010061F501000DF70100810302006C
:100E900069F501005DF5010005F701000D180A185C
:100EA00000000000010000004279655F526F62009F
:100EB000250A0200990A0200FD090200E909020060
:100EC000F50A0200B00E0200A02800200000000079
:100ED00000000000D5D1010000000000000000006B
:100EE000F5D101000000000000000000F9D1010070
:100EF00000000000000000000000000000000000F2
:100F000000000000000000000000000000000000E1
:100F100000000000000000000000000000000000D1
:100F200000000000000000000000000000000000C1
:100F3000A1D201000000000000000000B1D80100B3
:100F4000D1D80100000000000000000000000000F7
:100F5000000000000000000055DA01000000000061
:100F60000000000000000000000000000000000081
:100F70000000000000000000000000000000000071
:100F80000000000000000000000000000000000061
:100F900095E801006DE10100000000000000000084
:100FA0000000000000000000000000000000000041
:100FB0000000000000000000000000000000000031
:100FC0000000000000000000000000000000000021
:100FD0000000000000000000000000000000000011
:100FE0000000000000000000000000000000000001
:100FF000000000000000000000000000A1E8010067
:10100000000000000000000051E5010000000000A9
:1010100000000000000000000000000000000000D0
:1010200000000000000000004DE50100000000008D
:1010300049E5010000000000000000000000000081
:10104000000000000000000065E9010065E9010002
:10105000000000000000000041E601000000000068
:10106000000000004BE601000000000039E601002E
:101070000000000000000000000000000000000070
:1010800035E6010053E6010000000000000000000A
:10109000000000000000000000000000A5E80100C2
:1010A000000000000000000075E7010000000000E3
:1010B0000000000000000000000000000000000030
:1010C000000000000000000055E7010000000000E3
:1010D00049E70100000000000000000000000000DF
:1010E00000000000000000000DE8010095E701008D
:1010F0000000000000000000A5E501000000000065
:1011000065E90100000000000000000019E6010090
:1011100000000000EBE501006261642068616E641C
:101120006C6520746F20756E6465726C79696E678A
:10113000207472616E73706F7274006261642068F3
:10114000616E646C6520746F20756E6465726C7975
:10115000696E67207472616E73706F727400626181
:10116000642068616E646C6520746F20756E6465C0
:10117000726C79696E67207472616E73706F7274CD
:10118000006261642068616E646C6520746F207514
:101190006E6465726C79696E67207472616E7370CB
:1011A0006F7274002F6578747261732F6D6265645D
:1011B0005F3466366333303837366466612F5441A6
:1011C000524745545F4E524635313832322F5441E2
:1011D000524745545F4E4F524449432F5441524762
:1011E00045545F4D43555F4E524635313832322FAC
:1011F0006770696F5F6F626A6563742E68000000D4
:10120000433A5C436F64655C6769745F7265706FD5
:101210005C6769746875625C6D6265642D6F666693
:10122000696369616C5C6275696C645C6D6265645C
:101230005C5441524745545F4E5246353138323244
:101240005C5441524745545F4E4F524449435C54AD
:1012500041524745545F4D43555F4E5246353138F4
:1012600032325C6770696F5F6F626A6563742E68A3
:1012700000000000433A5C436F64655C6769745F1B
:101280007265706F5C6769746875625C6D626564D5
:101290002D6F6666696369616C5C6C69627261720C
:1012A0006965735C6D6265645C74617267657473B3
:1012B0005C68616C5C5441524745545F4E4F5244E8
:1012C00049435C5441524745545F4D43555F4E522C
:1012D0004635313832325C6770696F5F6170692EF4
:1012E00063000000433A5C436F64655C6769745F48
:1012F0007265706F5C6769746875625C6D62656465
:101300002D6F6666696369616C5C6C69627261729B
:101310006965735C6D6265645C7461726765747342
:101320005C68616C5C5441524745545F4E4F524477
:1013300049435C5441524745545F4D43555F4E52BB
:101340004635313832325C70696E6D61702E6300E3
:101350007C13020000280020B000000004C101003E
:101360002C140200B0280020D406000020C1010087
:1013700001D6FFFF21D6FFFF49D6FFFF0000000086
:10138000000000000000000000000000000000005D
:10139000000000000000000000000000000000004D
:1013A000000000000000000000000000000000003D
:1013B000000000000000000000000000000000002D
:1013C000000000000000000000000000000000001D
:1013D0000000000000000000F1EF0100000000002C
:1013E00000000000000000000000000000000000FD
:1013F00000000000000000000024F40000000000D5
:1014000000000000000000000000000000000000DC
:1014100000000000000000000000000000000000CC
:0C142000000000000000000000000000C0
:00000001FF
