:020000021000EC
:10B0000000800020DD570300255803002758030067
:10B010000000000000000000000000000000000030
:10B02000000000000000000000000000295803009C
:10B0300000000000000000002B5803002D58030002
:10B040002F5803002F580300651703002F580300E3
:10B05000F93B030000000000291903002F580300EA
:10B060002F580300B95403002F5803002F58030032
:10B070002F5803002F5803002F5803002F580300A8
:10B080002F580300411F03002F5803002F580300BF
:10B09000C91B03002F5803006D3D03002F58030008
:10B0A0002F5803002F58030000000000000000008C
:10B0B0000000000000000000000000000000000090
:10B0C000164B002B00D1144B9D46402292029A1A37
:10B0D000924600218B460F461348144A121A00F07C
:10B0E00067F80F4B002B00D098470E4B002B00D079
:10B0F00098470020002104000D000D48002802D0D0
:10B100000C4800E000BF00F02DF82000290000F0FE
:10B1100059F800F011F8C046000008000080002037
:10B120000000000000000000781F00208C5C002060
:10B130000000000000000000084B10B50400002BC8
:10B1400002D0002100E000BF054B1868836A002B85
:10B1500000D09847200000F033F8C04600000000FF
:10B160002C7D03000E4B70B500251E000D4CE41A1B
:10B17000A410A54204D0AB00F35898470135F8E776
:10B180001CF0C8FD084B00251E00084CE41AA41052
:10B19000A54204D0AB00F35898470135F8E770BDDD
:10B1A000781F0020781F0020781F0020781F0020C3
:10B1B00003008218934202D019700133FAE77047F6
:10B1C000FEE7C046002308221800F0B5D54CD64D46
:10B1D000D1B023706370A37023716371E2705A1948
:10B1E000043300211060402BF9D18022A323D20523
:10B1F000DB00D150CD4B9960013191609A68002AF3
:10B20000FCD00023CA4A01251360962292012592A0
:10B21000FF27082225A90B728B720B330B711620A6
:10B22000023BCA714D724B718F7118F05FFFC14BB9
:10B23000C149A5605A58A120AA435A500322C00010
:10B240001D58C2262A430F251A5008301A58B60036
:10B25000AA430B3D2A43B94D1A50AA59B848024097
:10B260001000C022120210438022A851893E920091
:10B27000FF3EAA5180262A6005327602FF329E5098
:10B28000B04EAF4A330044331B781D910092002B1F
:10B290001FD11A0001332032B754202BF9D10122DB
:10B2A0000023524299007250032B02D919003C31FD
:10B2B00072540133082BF5D10321062016F0C0FB90
:10B2C0008021C123A04A9B000906D15001234436A6
:10B2D000337016F03FFC002303219C4AC520136005
:10B2E0009B4A2373117021009A4A0C311160052288
:10B2F0002100A273A275A2772200243121612100CE
:10B300001532FF322262944A9C311360934AA16144
:10B310001370934A80211370C02263732375637581
:10B3200023776377FF2449035200A95080002A58ED
:10B33000A2433F3C22432A50A12229608949D200DE
:10B340008B5004382A58009C2240C02424022243F7
:10B350002A501D9A08208958834A1160834A8449DB
:10B3600054320A604821834A1180834A834913601A
:10B3700018F04CFD002807D10122814B16301A70BD
:10B3800018F046FD002801D016F0CEFD0126022758
:10B3900042AC142200212000FFF70AFF794D7A4ABF
:10B3A0002095267227802673209B954210D0290075
:10B3B000764805F08BFB3100380005F023FE744B16
:10B3C000197F5A7F9142FBD10021022005F01AFE1D
:10B3D0002195219B34A92000349318F015FD0028F5
:10B3E00001D016F0A1FD6B4A6B4B01201A606B4A2D
:10B3F0006B4B6C491A6000226B4B1A705A706B4B86
:10B400001A705A809860DA601A619A8014330024A6
:10B410009942F5D15E4EFF27F48316F075F980232B
:10B420005B051D69624B02381C60624BADB21C604B
:10B430001C815C81604B45431C70604B35621C6015
:10B440005F4B604E1C60042333605F4B5F481C60A1
:10B450005C729C7201238372023B0381C3720722D8
:10B460002100FFF7A5FE242221005948FFF7A0FE86
:10B47000200018F09BFB574B1F550134072CF7D1C8
:10B480000423326808201A4200D1B1E080267605F4
:10B4900033699BB25F2B01D80720A9E016F034F97D
:10B4A000336901389BB25843A8239B00EB188342B1
:10B4B000F2D80022484B1C2724C33E4B474A5D600C
:10B4C0001A6060225C811A813069454B316980B213
:10B4D000C01889B21AF032FB34690123A4B2604368
:10B4E0002B4E451935620025F3833E4E3370A8B2CA
:10B4F00042A919F0D9FB041E0CD1380068433A4B1D
:10B500001C22C01842A9230014F0F8F9002804D026
:10B5100034706BE00023337068E00135072DE6D10D
:10B5200068E0C046781F002094560020FC000040D0
:10B5300000250020009000400405000000E100E02C
:10B54000FF00FFFF245700200060004084570020C8
:10B5500080570020FC5A00207C57002071570020A3
:10B5600072570020001001406C570020F820002086
:10B57000B0580020AC5800209C580020A938030087
:10B58000A0580020001F0020001E0020507D030056
:10B5900078210020E1A40200A8580020BD5003003B
:10B5A000A4580020F45B0020285B00202C5B0020C6
:10B5B000D8560020F05A0020205B0020245B002099
:10B5C000E8560020E45A0020B4250020C0250020C1
:10B5D00098260020CC250020E85A0020ED8D02009E
:10B5E0009F020000B0250020D4250020002801D0B3
:10B5F00016F09AFC8D2320A81B18052218000021A4
:10B60000FFF7D6FD0D23012642AC6371F04A063BDD
:10B61000A3710933E3711278EE4B26714293002A2D
:10B6200001D101F0DEF9EC4D2F68002F01D001F0BF
:10B63000DAF9280008C08D2320A95B18190005221B
:10B640001CF019FB022204212B7AAE72B343134380
:10B650008B432B72EB791E43E04B16438E4305332D
:10B66000EE71DF77112334A81322DD4903700EF049
:10B67000E3FE002801D016F057FC0822002120002C
:10B68000FFF796FD102323802C3363805533FF335F
:10B690002000E3800EF0D2FE002801D016F044FC1A
:10B6A0001022D0492BA81CF0E6FA0123CE4A5B42B7
:10B6B0009382CE4B1100936100232BA893750DF05C
:10B6C000FFFD041E00D0A6E00127C74B24A91B786C
:10B6D000C74A38008B700F800DF038FF041E00D071
:10B6E00099E022AD010003222800FFF761FD10233D
:10B6F0003B432B70102306223B436B70AB78210039
:10B700009343043A134342A81A32AB70FFF750FD3B
:10B710008822882120AB9B181B78783A134320AAF3
:10B7200052181370B04B66391B7820AA5218137048
:10B73000032220AB479523AD1A8421000322280061
:10B74000FFF736FD10233B432B70102306223B43AB
:10B750006B70AB7834AE9343043A13433B43210000
:10B7600012323000AB70FFF723FD28AB3493142363
:10B77000B3819D4B75603781588832009D4B42A93B
:10B780000DF0E2FE041E48D101001C2242A8FFF782
:10B790000FFD882220AB9B181A780C2388211343B5
:10B7A00020AA52181370904B66391B7820AA5218A1
:10B7B0001370022220AB1A84210003222800FFF715
:10B7C000F7FC0F222B78210093433B431340D219FF
:10B7D00013432B706B78013A93433B431340D219C8
:10B7E00013436B70AB780A3A9343043A13433B43D9
:10B7F00012323000AB70FFF7DBFC28AB349314231C
:10B80000B381794B75603781588832007A4B42A9F1
:10B810000DF09AFE0400002C02D0200016F084FBEC
:10B820000C22002128A8FFF7C3FC0122734B6D49AD
:10B83000299320AB1A840123714A5B4213801022A2
:10B840002BA889181CF017FA0E216E4B23AD2B8004
:10B8500020ABC9182BA80DF033FD42AF041E00D059
:10B86000F2E0694A290001200DF070FE0090041EEC
:10B8700000D0E9E0AC78624B01001C2238009C71DA
:10B88000FFF796FC04223B7822AD13433B7020ABBC
:10B890009C745E4B20AA1382009903222800FFF7B4
:10B8A00087FC0122102313436B70AB78053293435E
:10B8B000043A34AE1343013A134300991332300073
:10B8C000AB70FFF775FC24AB34931423B3814C4B5E
:10B8D0007560988832004E4B39000DF035FE041E1D
:10B8E00000D0B3E001001C223800FFF761FC082201
:10B8F0003B7821001343921813433B70404B20AA1E
:10B900009B7928009374434B13820322FFF750FC6A
:10B910000F226B78210093430E3A13430E321340EB
:10B92000013213436B70AB780A3A9343043A1343E2
:10B930000E3213430F3A134330001332AB70FFF74C
:10B9400037FC24AB34931723B3812D4B7560988853
:10B950003200314B39000DF0F7FD041E76D10100A5
:10B960001C223800FFF724FC02223B7821001343FD
:10B970003B70234B20AA9B7928009374274B13829A
:10B980000322FFF715FC0F222B78210093430E3A78
:10B9900013430E321340013213432B70AB780A3A33
:10B9A0009343043A1343013A134330001332AB700C
:10B9B000FFF7FEFB24AB3360022333810223B38104
:10B9C00028AB33610E4B75609888320028E0C04682
:10B9D000B0250020AD500300B425002078210020C0
:10B9E000957D0300307D030020250020C1A20200C8
:10B9F000222500202C250020242500202993020048
:10BA0000802500203015000084250020321500001C
:10BA100088250020311500009025002034150000F5
:10BA2000DC4B39000DF090FD041E0FD1299B0093D3
:10BA3000009AD94B9A622A9B002B01D0D64AD36236
:10BA40000122D64B1A7004E0002C02D0200016F020
:10BA50006BFAD34AD34BD44C1A60D44A631D127884
:10BA6000DB7F002A01D100F0C3FF002B01D000F0E2
:10BA7000BFFFCF4A1268002A01D100F0B9FFCD4ABA
:10BA80001370012600253822002134A8FFF790FB0F
:10BA9000382200213800FFF78BFBC74B24220021FE
:10BAA0002BA83E827B61FFF783FB3822C34BC4493E
:10BAB0001D70C44B1D60C44B1D6020AB9B181E70D5
:10BAC00040232F93743330930B002BAA43CA43C3F4
:10BAD00043CA43C343CA43C307222900BB48FFF7F5
:10BAE00067FB2200BA4B48349C60BA4C28322900CC
:10BAF0001A6020003822FFF75BFB02232370033318
:10BB0000E370230038AA103303CA03C3230036AA04
:10BB1000083303CA03C323003AAA183303CA03C372
:10BB20003900200018F0F8F9A84201D016F0FCF90D
:10BB300042AC1C2200212000FFF73AFBA0239B020D
:10BB40006360F0231B03A3600323A34A2373A34B67
:10BB5000A34963611300A16125CC25C325CC25C36E
:10BB6000002219609F4BA0481A7018F0D3F90028E2
:10BB700001D000F043FF01229C4B52421A809C4BA3
:10BB800018709C4B1B68002B01D100F036FF9A4BBC
:10BB900008301A7C002A01D000F030FF1A745A7461
:10BBA000964A5A6119F078FA01F05CFA1622944B21
:10BBB00001201A7002F0C6FB924B9A68012A01D14B
:10BBC00000229A60784B68331A78FF2A01D001323C
:10BBD0001A7017F0EFFB0027431E0D9300280DDCB1
:10BBE00017F0E8FB2E2800DD3CE30121142017F0BC
:10BBF0003BFB0121162017F037FB33E334AD28005F
:10BC000017F0ECFB0028EBD00121080005F0FAF951
:10BC100000223F20644B2C7868331A70784B204008
:10BC20001B78834236D10121080005F0EBF900258D
:10BC30000226A40934AB5B195878002803D15A4B6B
:10BC4000693318701EE0012802D102F01BFB19E0D5
:10BC5000042803D1002002F0AFFB13E0052802D135
:10BC600002F0EEFA0EE00300B343152B02D105F00B
:10BC700013FB07E01B2803D14B4B69331E7001E017
:10BC800002F0DAFE0135AC42D4DA0021012005F0E1
:10BC9000B9F9E4E20300113B0A2B00D90BE117F0DC
:10BCA0007BFB594B0100002218680CF04EFB0CF096
:10BCB00005FA050001F0A6F8002800D1F9E00022FD
:10BCC000524928000CF02FFC040001F09BF80028DA
:10BCD0000AD000224E4920000CF025FC01F0E1FBC7
:10BCE000C7B2FB1F022B00D90827200001F048FB38
:10BCF00015F03DFA00900490002800D1D5E0010035
:10BD0000002242A816F076FB0123BB40013BDBB2C8
:10BD10000C93002334AE34780493A40901345127E2
:10BD200020AB0134FF18341939780C9B42A8194014
:10BD3000013716F007FBBC42F6D13F2332781A4098
:10BD4000194B19006A310C7819006B31087884425C
:10BD50000DD1459801F014FB2E4E009B00223100BE
:10BD6000280023930CF0F1FA041E55D16AE00878FC
:10BD7000052141436C33CB5C3F210B409342E8D11A
:10BD8000300017F02BFB049B34780133A409049393
:10BD90000134C4E7A025002080250020A424002031
:10BDA00069A402006C1F002078210020B02500202B
:10BDB000B4250020E8240020641F0020F55B00204B
:10BDC000005C0020245C0020745C0020F65B0020F6
:10BDD0002C5C00203C5C00206425002045A402006F
:10BDE000B9A20200B4580020945800205825002021
:10BDF00062250020FC5A0020005B0020853A0300E9
:10BE0000721F0020781F00208C5A0020A97D03009B
:10BE1000B27D0300BB7D0300010023AB012228009B
:10BE200002F0FCFB00283AD1874811F019FB0421ED
:10BE3000864B28006C331A780A4331001A700CF0D4
:10BE4000CFFA2CE0824E0200310028000CF06BFB90
:10BE5000040001F039F9002805D1239A31002800A7
:10BE60000CF04CFB1EE020000FF004FB06002398B2
:10BE70000FF000FB802330189B00984205D9022167
:10BE8000724B6C331A780A431A70724B9E4206D872
:10BE900001339B1B0022239920000FF0D6F92000CC
:10BEA00001F06EFA009801F06BFA0D9B049A9B1A50
:10BEB0000D932800D1E103001C3B052B22D83F2322
:10BEC000A01F184017F068FA634B010000221868A1
:10BED0000CF03BFA0CF0F2F8040000F093FF00289D
:10BEE0000ED02B785B0603D55C49200018F0E4FDEA
:10BEF00034AB1B787F2B03D95949200018F0DCFDA7
:10BF00002000AAE101380F2800D9A8E1554B188874
:10BF100000F0E4FD109001002BA80EF004FF2B9B15
:10BF20002BA8002B00D195E10EF0EDFE00224E492A
:10BF300007000CF0F8FA05F033F84C4A8300D318E8
:10BF40000490587818F0EAF93F2334AD2C78234058
:10BF5000834201D0002573E1454B464AD158002366
:10BF60000993349B08911A0A2B791B0613438B42C1
:10BF700008D9089D099E0121002049422D184E41F3
:10BF8000089509960293099B640603930022E30F28
:10BF9000394938000C930CF0C6FA01F082FA00908F
:10BFA000002800DCBFE0354C0022210038000CF0F6
:10BFB000BAFA01F060FA16900C980FF0B4F821006C
:10BFC000020038000CF0A9FA2D4E00223100380092
:10BFD0000CF0A9FA041E59D000222A490CF0A3FA49
:10BFE00011900FF053FC050011980E0001F0C8F9F4
:10BFF0000099254B0E91C9171A685B680F9102983A
:10C000000399801A9941AD185E410E9A0F9B8018D2
:10C0100059410FF0A6F81B49020020000CF06EFAFF
:10C0200001F0AEF9039BB34203DC75D1029BAB4236
:10C0300072D90E9A0F9BAD1A9E41169B02950396DC
:10C040000C93012569E0C046C37D0300F82300205E
:10C05000F77D0300FF0100008C5A0020FC7D0300E7
:10C06000077E0300D4560020AEA30300F3B0030004
:10C070000405000000B00040117E03001A7E03009A
:10C08000207E0300287E0300F0240020052000F01D
:10C09000C6FD0400051E40D03A00AF490CF02EFA50
:10C0A00002980399AD4B1A685B68801A9941009B0E
:10C0B0001893DB171993189A199B801859410FF0A0
:10C0C00050F8A749020020000CF027FAA54D0022E5
:10C0D000290038000CF027FA2900020020000CF09B
:10C0E0001CFAA14D0022290038000CF01CFA29008E
:10C0F000020020000CF011FA04980FF026F89B497A
:10C10000020020000CF009FA200001F0DDFF2200FF
:10C11000310038000CF0F2F90025200001F030F970
:10C12000002D00D116E702980399FA22002392000D
:10C1300019F02CFCCB175B045B0C069300230A0060
:10C1400001000793069B079CC91862415304C80B62
:10C150001843D11319F07EFE0022854B1AF0BCF96A
:10C160000EF0D6FF0C990090380001F0BFFF079D3C
:10C17000002860D02A007B4938000CF0D4F9079AD7
:10C180007C49119038000CF0CEF901F074F90600EA
:10C190000400052000F043FD051E429020D0079AC0
:10C1A000714938000CF0BFF96F49020028000CF00B
:10C1B000B4F9009A6A4942980CF0A0F90498429D9B
:10C1C0000EF0C3FF6949020028000CF0A6F90C9894
:10C1D000429D0EF0A8FF6849020028000CF09DF96E
:10C1E00042AB01221199002002F018FA051E0BD172
:10C1F000002E09D0614811F033F904212C00604B66
:10C200006C331A780A431A700025429801F0B8F886
:10C21000AC420DD110992BA80DF03CFE049802F011
:10C22000C9F90135002803D12100049818F0A2F8BB
:10C23000119801F0A5F8009A4B4938000CF06DF9FF
:10C24000380001F09DF8002D00D068E62BA80EF014
:10C2500046FD64E60EF03EFD109801F091F80127CE
:10C260000D98B9E41D9A474B9B58129300231393E2
:10C270003A4B1299139A1C685D68091BAA411691E2
:10C2800017921299139A19605A603D4B169A196FBA
:10C290008A18914201D90122524208241A673A4A67
:10C2A0001388A3431380394B188800F017FC0D90B6
:10C2B000010022A80EF037FD0122354B52420492B4
:10C2C00005931F94229B002B0BD122A80EF002FD98
:10C2D0000D9801F055F80EF05FF8002800D07AE1D3
:10C2E00070E1294B1C881F9B1C40EED122A80EF048
:10C2F0000AFD22001A490C900CF015F906000FF007
:10C30000C5FA04000D00300001F03AF8169A179BA8
:10C31000A41A9D4100940195019B002B00DD31E1A1
:10C3200003D1009B002B00D02CE10121080004F078
:10C3300069FE00220B490C980CF0F5F800221090D1
:10C3400005490C980CF0EFF80023041E42939C4220
:10C3500020D10123119380E02D7E0300F0240020E2
:10C36000287E0300337E03003C7E0300AEA303005F
:10C3700000408F40457E03001A7E03004B7E030081
:10C38000F823002000B00040F824002004250020FD
:10C39000FFFFFF7F052000F042FC42900028D8D02C
:10C3A0000022B04920000CF0BEF801F07AF8009DA0
:10C3B000019EAD4BC1171A685B68521973411A9000
:10C3C0001B911A981B99121A8B411000FA2219001E
:10C3D0009200002319F0DAFACB175B045B0C0A9386
:10C3E00000230B930A9A0B9B801859410A00C00B3B
:10C3F00053041843D11319F02DFD9C4B00221AF061
:10C400006BF80EF085FE9A4D060029000B9A20006D
:10C41000429F0CF088F82900020038000CF06EF8FA
:10C4200001F029F80100200001F060FE914D11900B
:10C430000B9A29002000429F0CF075F82900020099
:10C4400038000CF06AF83200290020000CF056F891
:10C450003200894942980CF060F8002287490C9814
:10C460000CF061F8119B0500002B2AD0429E002E93
:10C4700007D042AB01221099002002F0CFF806004D
:10C480000EE032007E490C980CF04DF81099070030
:10C490000200300002F02CF90600380000F070FFB6
:10C4A000002E0ED1002D0CD0764810F0D9FF0421BB
:10C4B000754B28006C331A7835000A431A7000F067
:10C4C0005FFF429800F05CFF002C37D000226F49DC
:10C4D00020000CF013F8119B002B2CD000226C498B
:10C4E00020000CF020F800F0C6FF002823D1694B93
:10C4F000188800F0F3FA01222100060006F022F865
:10C50000071E06D0010030000BF00FFC380000F0D1
:10C5100037FF300000F034FF5F49002220000CF0AC
:10C5200002F804F03DFD060002F044F8011E02D1BD
:10C53000300017F01FFF200000F022FF002D0FD069
:10C5400028000FF0A3F906000F00280000F018FFE4
:10C55000009B019C9B197C4100930194002409E0FD
:10C560000D9922A80DF096FC01235B42DC17009385
:10C5700001940124109800F003FF019B0127002B78
:10C580000EDB00E00024059B019A934204DC07D1F6
:10C59000049B009A934203D9009A019B049205934D
:10C5A000002C0BD1009801990EF0DBFD32490200FE
:10C5B0000C980BF0B2FF22A80EF091FB0C9800F043
:10C5C000DFFE7FE6002F07D12F4B586F00F06CFB8A
:10C5D000002801D10AE001270022304B68331A708D
:10C5E000002F03D00021012004F00CFD10F08EFA82
:10C5F000002868D1244B586F00F056FB002862D009
:10C600000121080004F0FEFC1F4C656F280000F0BB
:10C610004BFB011E48D0280005F005FF0BF04EFD36
:10C6200000221F4904000BF07EFF002205001D4977
:10C6300020000BF078FF00220600114920000BF0CB
:10C6400072FF0700200000F09BFE29003A00300036
:10C6500002F04EF8380000F093FE3100280000F0A0
:10C66000C3FED1E7117E0300F024002000408F407C
:10C670001A7E03003C7E0300287E0300787E0300C0
:10C68000817E0300867E0300F8230020207E0300C5
:10C69000457E0300D4560020AEA30300782100207D
:10C6A000B67E0300BB7E0300012004F0ABFC10F05B
:10C6B0002DFA002803D1226FD24B9A4203D80122CF
:10C6C000D14B78331A70D04B78331A78002A0BD0BC
:10C6D0000820CE498A8E82438A8600221A7004F08E
:10C6E0003BFBCB4804F00CFAE023CA4C5B002288E9
:10C6F0001A4200D1BAE00121080004F083FC258829
:10C70000EB050BD5C44B2B40238005F007F804F054
:10C7100021FD00F0A7FC002001F014FE40210D4295
:10C7200000D18AE0BB4A13888B43138005F00EFDCD
:10C7300004F0F4FF04F000FD00F030FCB74804F012
:10C74000DFF9FD2025AA24A9800215F087FC002826
:10C7500000D099E10023B24FB24EB34844934297C0
:10C76000439604F0CDF9B14A42ABB149B1480AF061
:10C77000C3F8B14B439C42A900202894E41811F05F
:10C78000AAF842A9002011F0A6F842A9002011F051
:10C79000A2F8439B429A009393421CD32100A74ADC
:10C7A000A74804F093F9002400F020FC04F0DDFC1D
:10C7B00001F0B0FDA04207D0A24804F0A1F901F0B9
:10C7C000A9FD0028FBD1012404F0B6FC00F0E6FB33
:10C7D000002CB3D12BE0220095499B4804F076F958
:10C7E000FD2028A9800218F078F9984B2BA9380071
:10C7F0002B9318F072F9964804F082F90023954AB9
:10C8000043938B4942AB8B4842960AF075F8439CA0
:10C8100011F082FC002803D18F4804F071F9013433
:10C82000002C00D143E121008C4804F04FF900F0C6
:10C83000DDFB04F09AFC04F03FFD80210D4211D095
:10C84000744A13888B43138004F068FF04F074FC6F
:10C8500000F0A4FB11F072FC00F0C8FB04F085FCB2
:10C8600004F02AFD0021012004F0CCFB7C4B68334E
:10C870001B78012B23D1059B002B05DC1FD14823FE
:10C88000049AFF339A421AD921240C255E4B694E33
:10C890007A331888002812D0013C002C05D00138CA
:10C8A0006843801900F0B3F9F4E70121080004F0AF
:10C8B000A9FB05F04BFC2100012004F0A3FB684B11
:10C8C0001A0068321278012A53D91A006A32117894
:10C8D0001A006B32127891424BD11A7F5B7F9A42D9
:10C8E00047D1049805995F4B5F4AD25842AB1492E6
:10C8F00000221592149C159D0019694144924290A2
:10C9000043911A7772B6594B594A10781978159B8A
:10C9100088421DD01D2312785343564AD3185A78A3
:10C9200018781202024311009A7812040A43D97847
:10C93000090611431E915A79187912020243110017
:10C940009A79DB7912040A431B0613431C930123D3
:10C9500062B6002B08D0439B1C9A934204DB06D19D
:10C96000429B1E9A934202D242A816F087FA18F010
:10C9700033FF01F015FCC022244B1201998E1142A5
:10C980000DD0998E3C4A204C0A40E06F9A860FF0F9
:10C9900024F8002801D00023236704F07DFC374CE5
:10C9A0002378002B01D1FFF707F90023237004F04F
:10C9B000C9F9002801D1FFF7FFF83E2004F096F8EE
:10C9C000114D3A220021E86F04F02CFFED6F280092
:10C9D0000EF050FD62680100280004F0CBF8FFF76C
:10C9E000EBF8274800E0274815F09EFAFEF73AFEDC
:10C9F000234815F099FAFFF744F8082015F094FA47
:10CA0000FFF7D0F8CB0C0000F82300208C5A002050
:10CA1000C07E0300F8240020FFFEFFFFF07E03002D
:10CA2000FCFF030004F40300017F0300D7D80200D9
:10CA3000D02F0000BC260020000CFCFFFC0B0000E7
:10CA40000D7F0300407F0300AA7F0300EFBEADDE31
:10CA5000C57F0300B1D802006E7F0300897F030009
:10CA6000782100200405000000B00040B9580020E3
:10CA7000BA580020BB580020FFF3FFFF78240020A5
:10CA80000880000004800000249815F00BFB259A14
:10CA9000249B9B18084A934200D95BE6074804F0A0
:10CAA0002FF8259A249B24A9981825AA4DE6044816
:10CAB00004F026F8BBE6C046FBFF030056A60300C1
:10CAC000A27F0300020010B5643213783E2B04D815
:10CAD0005C1CC31801331470D97710BD0C2380225D
:10CAE00001385843034B9200181843899B1843811F
:10CAF0007047C046BC260020031E06D0044B054AE2
:10CB0000C31A9B10534301339BB218007047C046B1
:10CB1000BC260020ABAAAAAA4289044B4172090A8A
:10CB200013404903194341817047C046FF9FFFFFEF
:10CB3000C02243899200407A5B0913401843704732
:10CB400070B5C26F0400C36E111E00D0D15C256F9A
:10CB500001332170E366AB421CD3A06F5B1BE3661D
:10CB6000666F002810D0FFF7E3FF00280CD00C23DD
:10CB700001385843084B7519C018A067E06765670E
:10CB800004F006FF206705E000237519A367E3673B
:10CB90006567236770BDC046BC26002010B50378CA
:10CBA0004380FFF7CDFF10BD3F23C2794171090AD1
:10CBB000134089011943C17170473022C379017153
:10CBC0000909114093431943C1717047002370B59F
:10CBD0000400438172B6054D2988FFF7EEFF20005F
:10CBE000FFF78AFF288062B670BDC046722400201D
:10CBF0000323C2798171090A9A430B401343C3711D
:10CC00007047C37940799B091B0218437047C022C3
:10CC1000C379920000791B01134018437047F8B59F
:10CC2000050008261B4F3B88002B14D072B60C233E
:10CC30003C88013C5C43184BE4182000FFF7E7FFF9
:10CC4000388062B60023A3602360636080239B006A
:10CC50001D4365811BE0114C23783343237005F09D
:10CC600075FA0028DED101F055FB0028DAD12378CF
:10CC7000DB0602D40A4810F0F3FB102223780821C7
:10CC8000134323700024074A938E0B43938620009E
:10CC9000F8BDC04672240020BC2600206424002079
:10CCA000308103008C5A0020C022C3799200807921
:10CCB0001B0213401843704710B5FFF7F5FF8305BB
:10CCC00001D5024BC01880B200B210BD00FCFFFFBE
:10CCD000031E0AD03F2342891A403E3B0E2A04D04D
:10CCE00000230421103A91425B4101201840704713
:10CCF000031E0AD042893F23002013400100062270
:10CD00000E3B9BB29A4241410B00012018407047F4
:10CD1000031E0AD042893F230020134001000D2248
:10CD20000C3B9BB29A4241410B00012018407047D6
:10CD300070B506000025FFF7EBFFA8420BD03000CE
:10CD4000FFF765FF041EAC4205D03000FFF759FF26
:10CD5000201A45424541280070BD031E05D03F23DF
:10CD600040890340023B584243410120184070472C
:10CD7000031E05D07F2340890340463B5842434170
:10CD8000012018407047031E02D043895B06DB0F69
:10CD9000012018407047031E05D03F2340890340FF
:10CDA0000C3B58424341012018407047031E05D0F8
:10CDB0003F2340890340043B58424341012018402F
:10CDC000704770B50400FFF7F1FF0123051E0BD17A
:10CDD0002000FFF79DFF2B00002805D02000FFF763
:10CDE00087FF01235840C3B20120184070BD031EC5
:10CDF00005D03F2340890340033B58424341012073
:10CE000018407047031E05D03B2340890340013B77
:10CE100058424341012018407047031E07D03F236A
:10CE2000428901211A400023063A91425B410120C8
:10CE300018407047031E0AD042893F230020134048
:10CE400001000722083B9BB29A4241410B0001209E
:10CE500018407047031E05D03F2340890340223B02
:10CE600058424341012018407047F0B589B0029004
:10CE70000C210B3018F0D8FD00250124431C019330
:10CE8000434B290005A81D80FFF797FE05AB0093D3
:10CE90000C26631E03933300621E53433D4FFB1861
:10CEA00059893F2319401AD1019B0135AB4238D82B
:10CEB000E31A01339BB2013B73430198364A704336
:10CEC000DD19A9606A81029A6960DA5102000134B1
:10CED0000C3AA819FEF76CF9A4B2019638E0651B6C
:10CEE000ADB2A5420CD20C236E1E5E43294B290025
:10CEF0009E1900980135FFF760FEADB20096F0E78D
:10CF00000C23039E00255E43224B9819FFF7A2FFD6
:10CF1000A84206D0B8590C210B3018F085FD241812
:10CF2000A4B2FF230134A4B29B009C42B0D90025D7
:10CF300021E0019B661E5E43164BF7187B899B061A
:10CF40000BD121000098FFF738FE00970134A4B2FE
:10CF5000FF239B009C42ECD90DE03800FFF77AFFDD
:10CF60000028F3D00B4B0C21F0580B3018F05CFD6F
:10CF70002418A4B2EAE700210098FFF71EFE05A8D6
:10CF8000FFF745FE024B1880280009B0F0BDC046EF
:10CF900072240020BC260020220200000022F8B5E6
:10CFA00001243F270F4B1A800C23651E5D430E4E54
:10CFB000A8194189394003D11A00FEF7F9F80AE0AF
:10CFC000FFF748FF002806D0A8590C210B3018F0B5
:10CFD0002BFD2418A4B2FF230134A4B29B009C4271
:10CFE000E2D9F8BD72240020BC2600200021F0B553
:10CFF000012487B0194D03A8298003AEFFF7DDFD9A
:10D0000001950C233F22651E5D43154BEF187B896C
:10D01000134205D130002100FFF7CFFD3E000CE0A8
:10D020003800FFF717FF002807D00D4B0C21E858F8
:10D030000B3018F0F9FC2418A4B2FF230134A4B279
:10D040009B009C42DDD900213000FFF7B6FD03A80C
:10D05000FFF7DDFD019B188007B0F0BD72240020B2
:10D06000BC26002070B501240B4D28000026013499
:10D07000A4B22E800A382100FFF79FFD074B0C3524
:10D080009C42F2D131000648FFF797FD0122054B83
:10D090001A80FFF7ABFF70BDC6260020FD0300001D
:10D0A0008056002072240020031E0AD042893F23AC
:10D0B0000020134001000922243B9BB29A424141C7
:10D0C0000B00012018407047031E0AD042893F23FD
:10D0D0000020134001001322103B9BB29A424141B1
:10D0E0000B0001201840704710B50400FFF7ECFF5B
:10D0F00003000120002B02D12000FFF7D5FF012300
:10D10000184010BD70B50400FFF771FE012500281E
:10D1100012D12000FFF776FE00280DD12000FFF786
:10D120007CFE002808D12000FFF7CEFF002803D1A5
:10D130002000FFF73BFE05000120284070BD10B520
:10D140000400FFF777FE03000120002B02D120002E
:10D15000FFF7BAFF0123184010BD10B5021E06D01C
:10D16000438900225B0602D5FFF7AEFF02000123D0
:10D170001A40100010BD011E08D03F234089012134
:10D1800003400A2B02D00F3B594259410122114062
:10D1900008007047031E05D03F2340890340093B28
:10D1A00058424341012018407047031E0AD03F23D4
:10D1B00042891A4000230F2A04D8E9231B02D340D6
:10D1C00001221340012018407047031E05D03F2361
:10D1D000408903400B3B58424341012018407047AF
:10D1E00070B50400FFF7E1FF012500280DD12000F4
:10D1F000FFF7EBFF002808D12000FFF7BCFF002855
:10D2000003D12000FFF7A9FD05000120284070BDD3
:10D21000031E05D03F2340890340013B5842434150
:10D2200001201840704770B50400FFF7F6FD012596
:10D2300000280DD12000FFF7E5FD002808D12000CF
:10D24000FFF7D5FD002803D12000FFF7E1FF05001F
:10D250000120284070BDF8B5037A0400002B00D0EF
:10D260008AE0FFF721FF002800D085E063899B0654
:10D2700000D181E02000FFF73BFD002810D1200005
:10D28000FFF79FFD00280BD02000FFF70DFD0028C1
:10D2900006D0FFF723FC037A013B037200F070F81D
:10D2A0002000FFF721FF002809D12000FFF7BBFF76
:10D2B00000284DD02000FFF7F7FC060030E02000EA
:10D2C000FFF736FC0C260500002D0BD0013D754301
:10D2D0002A4FEF193800FFF72BFC05003800FFF745
:10D2E00075FCF1E72000FFF7B5FD0028DDD02068D0
:10D2F0000C210B3018F098FB05002000FFF7FCFB19
:10D300000C26401980B2013DCFD3013887B270435B
:10D310001A4B181800234381FFF758FC3800F2E736
:10D32000002E26D03000FFF7D9FB0500FFF76FFC79
:10D33000002106002800FFF737FC28000021FFF736
:10D340003CFC2B7A2800013B2B7200F019F8E7E730
:10D350002000FFF7DDFC00280BD02000FFF757FC72
:10D36000002806D000F01EF82000FFF74AFC00F06D
:10D3700019F82000FFF72AFCF8BDC046BC260020A3
:10D3800010B500280AD04389054A9B18F0229BB2A9
:10D3900052014381134201D1FFF75DFF10BDC0462A
:10D3A00000FEFFFF10B5FFF799FB037A013B037204
:10D3B000FFF7E6FF002010BD70B504000D00002C43
:10D3C00005D0013CA300E858FFF7DAFFF7E770BD8E
:10D3D00070B50D001400FFF7D3FF2800FFF7D0FF52
:10D3E0002000FFF7CDFF70BD10B50C00FFF7C8FFA0
:10D3F0002000FFF7C5FF10BDF8B500200C250C4E2E
:10D40000441C68438019A7B2FFF702FF002803D02D
:10D410003800FFF763FB0AE0FF2320009B009C42DB
:10D42000EED10120FFF7FBFB037A01330372F8BD55
:10D43000BC26002070B504680500002C0DD020002B
:10D44000FFF7E5FB06002000FFF79AFF0020864269
:10D4500002D03000FFF742FB286070BD10B5040019
:10D460000800FFF721FC0023984202D0FFF736FBAB
:10D470000300236010BD70B504000EF01EF8050017
:10D480002000FFF77DFF280070BDD0B504000AF032
:10D490004AFE06000F002000FFF772FF300039003F
:10D4A000D0BD70B504000EF099F905002000FFF71B
:10D4B00067FF280070BD0300F0B5213BC3B0050035
:10D4C0000C0016005E2B06D827230B7060708B7043
:10D4D0000023CB7050E00223FF33984213D006DCC8
:10D4E00000280ED0013B984211D1244921E081232C
:10D4F0005B00984209D00423FF33984207D12049AA
:10D5000017E0204915E0204913E0204911E0AF1F42
:10D51000FF3F342F20D8812201AD52001C49280042
:10D520001AF0A9FB812200215200002F05D1320000
:10D53000691820001AF0DAFB1EE00223FF3399423B
:10D54000F5D8685C4B1C002802D11900013FECE7BC
:10D550009142FAD01900F4E732000E4920001AF087
:10D56000C5FBA11C012228000A230FF0FBFB32009F
:10D57000094920001AF0A6FB43B0F0BD4381030027
:10D58000508103003F810300468103004A8103006C
:10D59000D27F0300578103007FAC0300002310B546
:10D5A0004380836F0400002B04D080215A898900B6
:10D5B00052185A81A06FFFF7E3FE206E002803D0B7
:10D5C000FFF7DEFE00232366A06EFFF7D9FE0023DF
:10D5D0002361237610BDF0B5040089B025782800BA
:10D5E00013F014FF002803D02000FFF7A9FAF5E795
:10D5F0002F2D26D1E36F002B23D0E26E9B5C2F2BC7
:10D6000008D12378002BEFD00A2BEDD02000FFF7B4
:10D6100097FAF6E72A2B14D12378002B00D195E353
:10D620002A2B03D02000FFF78BFAF5E7E36F002BDE
:10D63000F8D0E26E9B5C2F2BF4D12000FFF780FA2C
:10D64000D2E723000025643365801D70206EA84258
:10D6500002D0FFF795FE2566E26863689B182200FA
:10D66000013BE3616C32231D23CA23C303CA03C3F6
:10D6700026783300213B26765B2B00D962E3BF4B33
:10D680009B191F3B18780F2800D962E318F0C2F9E4
:10D6900010003201FE015A03AA02BD02CA02D702DB
:10D6A000E3020703F702EF02FF0220030F03340334
:10D6B000202521780B00AB43413B192B06D82000D5
:10D6C000FFF700FA2000FFF73BFAF2E75F29F6D0F8
:10D6D0000B00303B092BF2D92429F0D080235B00CA
:10D6E0006380631CD87F6238152800D931E318F0B5
:10D6F00091F916001F003700570060003003300317
:10D700007E003003300330033003950030033003D4
:10D710003003A600AE00B600DE00F000E700984936
:10D72000200017F043FC9123002800D00FE310E302
:10D730009449200017F03AFC9A23002800D006E311
:10D740009149200017F032FC9523002800D0FEE21A
:10D750008E49200017F02AFC2423002807D1F8E284
:10D760008B49200017F022FC002802D03623FF331B
:10D77000EEE28849200017F019FC9B23002800D016
:10D78000E5E28549200017F011FC20230028EED1A6
:10D790008249200017F00AFC3A230028E7D1D8E29A
:10D7A0007F49200017F002FC8F23002800D0CEE232
:10D7B000CFE27C49200017F0F9FB2E230028D6D1B8
:10D7C0007949200017F0F2FB2C230028CFD17749AC
:10D7D000200017F0EBFB22230028C8D17449200059
:10D7E00017F0E4FB9223002800D0B0E2B1E27149C7
:10D7F000200017F0DBFB1E230028B8D16E49200063
:10D8000017F0D4FB32230028B1D16C49200017F067
:10D81000CDFB9923002800D099E29AE268492000C4
:10D8200017F0C4FB9823002800D090E2654920003F
:10D8300017F0BCFB9723002800D088E289E26249F8
:10D84000200017F0B3FB2623002890D181E25F4926
:10D85000200017F0ABFB3423002888D179E25C4923
:10D86000200017F0A3FB2823002880D1594920006D
:10D8700017F09CFB9423002800D068E25649200052
:10D8800017F094FB9623002800D060E25349200053
:10D8900017F08CFB2A23002800D068E750492000AD
:10D8A00017F084FB3823002800D060E751E24D498F
:10D8B000200017F07BFB3023002800D057E748E218
:10D8C0004949200017F072FB9023002800D03EE267
:10D8D0003FE24649200017F069FB9323002800D05F
:10D8E00035E24349200017F061FB9C23002800D05B
:10D8F0002DE22EE22E2E11D12000FFF721F9237800
:10D90000303B092B08D881235B0063803100200065
:10D91000FFF7D8F8012582E066801AE2302E01D0A8
:10D9200001251AE031002000FFF7CCF82000FFF7B6
:10D9300007F9217820230A009A431300423BDBB207
:10D94000162BEDD82B4A0125DA409543E8D120006B
:10D95000FFF7B8F82000FFF7F3F802232026FF3383
:10D96000638021780B00303B092B45D82000FFF75E
:10D97000A9F82000FFF7E4F8F3E7C046D2800300DF
:10D980005A81030060810300658103006B810300FD
:10D99000748103007C81030083810300868103007E
:10D9A0008F810300948103009A810300A281030008
:10D9B000D5AA0300A6810300EA9F0300A981030002
:10D9C000B4810300B8810300BD810300C48103005A
:10D9D000BB7E0300CB810300D1810300D68103000D
:10D9E000DA81030073B00300E1810300E7810300E3
:10D9F000EB81030001204000002D05D10B00B34353
:10DA0000413B052BB2D90AE02E2908D181235B00C6
:10DA100020006380FFF756F82000FFF791F80223FB
:10DA2000E25E81235B009A4202D0002D0CD190E18E
:10DA300021780B00303B092BF7D82000FFF742F884
:10DA40002000FFF77DF8F3E7217820230A009A43AE
:10DA5000131E452B00D07CE1BD3363802000FFF70F
:10DA600031F82000FFF76CF82178FD230A002B3AEB
:10DA70001A4205D12000FFF725F82000FFF760F8D3
:10DA800021780B00303B092BF4D962E113F06FFBD6
:10DA9000011E206601D160805BE1002203A814F022
:10DAA000A9FC2000FFF74CF82178002900D191E073
:10DAB0008E4200D18EE020005C2900D083E0FFF789
:10DAC0003FF8257828006238162847D817F098FFC5
:10DAD0001146464616464646464646460C46464685
:10DAE0001B46202A25462A002000FFF729F80A2590
:10DAF00060E02000FFF724F808255BE02000FFF736
:10DB00001FF80C2556E02000FFF71AF80D2551E00C
:10DB10002000FFF715F809254CE02000FFF710F86A
:10DB20000B2547E001AF05228B4938001AF0A3F816
:10DB3000752D05D12000FFF703F82000FFF700F84E
:10DB40002000FEF7FDFF23782000BB70FEF7F8FFF2
:10DB500023782000FB70FEF7F3FF23E02B00303B1F
:10DB6000072B24D830230193002301AF20003B7101
:10DB70007D70FEF7E5FF2278022311003039072976
:10DB80000ED82000BA70FEF7DBFF227803231100C5
:10DB90003039072904D82000FA70FEF7D1FF04239A
:10DBA0000022FA5438000FF0C3FDC5B202E0200095
:10DBB000FEF7C6FF29002000FEF784FF290003A816
:10DBC00014F0C0FB70E7FEF77DFF217803A814F086
:10DBD000B9FB66E70698FFF7D3FB2000FEF7B0FF1E
:10DBE0000423C4E52000FEF7D9FF23783D2B00D0A5
:10DBF000AFE00823FF3363802000FEF7A1FF237806
:10DC00003D2B00D0A5E0CB3395E02000FEF7C6FF0A
:10DC100023783D2B01D1122382E02B2B00D098E0FA
:10DC200014237DE02000FEF7B9FF23783D2B01D1BE
:10DC3000D53380E02D2B00D08BE0E7337BE0200054
:10DC4000FEF7ACFF23783D2B01D1DB3373E0262BAD
:10DC50007FD11A2364E02000FEF7A0FF23783D2B3C
:10DC600001D1DD3367E07C2B73D11C2358E0200009
:10DC7000FEF794FF23783D2B6BD1DF335BE0200070
:10DC8000FEF78CFF23783D2B63D1162348E020005C
:10DC9000FEF784FF23783D2B5BD1D9334BE0200086
:10DCA000FEF77CFF23783D2B53D1182338E020006A
:10DCB000FEF774FF23783D2B4BD10623FF3363809F
:10DCC0002000FEF73DFF23783D2B42D1C93332E0DF
:10DCD0002000FEF763FF23783D2B01D10A231FE0CC
:10DCE0003C2B36D1CE3363802000FEF729FF23780A
:10DCF0003D2B2ED10C2313E02000FEF74FFF23789D
:10DD00003D2B01D1CF3316E03E2B22D10E23FF3322
:10DD100063802000FEF714FF23783D2B02D11023EF
:10DD2000FF3308E03E2B14D12000FEF709FF2378D3
:10DD30003D2B05D1D33363802000FEF701FF08E0BF
:10DD4000872304E02000FEF729FF02E082235B0026
:10DD5000638009B0F0BDC046F081030030B5040017
:10DD60000223C05E89B00D0088424BD080235B0047
:10DD7000984212D110222649684619F0B7FF2300B5
:10DD80000022210064331B782031E3180133DA7755
:10DD90006846103219F096FF1DE00423FF3310226D
:10DDA000984215D11B49684619F0A0FF23000022B4
:10DDB000210064331B782031E3180133DA77684699
:10DDC000103219F07FFF1449684619F05DFF02E038
:10DDD0006946FFF770FB2800102204A9FFF76BFBD0
:10DDE0006268E368E5699B18013BE3616A4604AB3E
:10DDF0000A4902200FF012FA2000E561FFF7EBFB61
:10DE0000002003E02000FFF7E6FB012009B030BD51
:10DE1000F5810300F9810300008203000282030000
:10DE200070B5836F86B005000E00002B04D08021F2
:10DE30005A89890052185A81A86FFFF7A1FA310058
:10DE4000684614F058FC2B006C466C3307CC07C3B3
:10DE500006CC06C3A86FFFF793FA337D28002B701A
:10DE600000232B612B76FFF7B6FB06B070BD802236
:10DE70004B8992009B184B810300002210B50400CF
:10DE800064338166428002610276C2611A70026662
:10DE90005A806C3014F0AEFAA06FFFF771FA2000D0
:10DEA000FEF74EFE2000FFF796FB10BD70B50D008B
:10DEB000040014F020FC2B7D2000237570BD10B5EC
:10DEC000C068FFF75DFA10BDF8B506001A20FEF72E
:10DED000A6FE051E03D122480FF0A4FA3EE08022E0
:10DEE0000400438992009B18438133782000002B63
:10DEF00032D0FFF7D9F80921002806D12000FEF71B
:10DF000007FF0421002800D1033100233278002AC2
:10DF100005D0E254013301368B42F7D100E01900FD
:10DF200020000A3014F088F93378002BDDD024204B
:10DF3000FEF775FE071E04D10A480FF073FA2000A1
:10DF40000AE0FEF7D9FD01002000FEF7E5FD200004
:10DF5000FFF716FA3C00C8E7FFF712FA2800F8BDF1
:10DF6000158203004282030010B50300006E0028F2
:10DF700005D08022438992009B18438109E01A0052
:10DF8000643212789A1801322033D0771800FFF7E4
:10DF90009BFF10BD70B50B4B040000220A49586866
:10DFA0000AF0C1FA051E0BD02100012204F0CAFAC2
:10DFB0000400631E9C412900E4B2FFF715FA20001B
:10DFC00070BDC0468C5A0020698203007FB5114C99
:10DFD000114D060003AB02AA216828680DF0A3F9D1
:10DFE000002E01D1266003E028680DF043FA20607E
:10DFF000039B28680193029B6A460093216801AB4A
:10E000000DF091F9009B019A0299039802F088FDA6
:10E010007FBDC0467C24002074240020F0B5194C3C
:10E0200085B0070020680DF0D4F9174D03AB02AAA4
:10E030000600296820680DF076F9029B039AF8180B
:10E040000192002801D0009001E001230093009B81
:10E050009E4200D20096009920680DF02FF901AB86
:10E06000010028606A4620680DF05DF902F0D0FEDC
:10E07000002805D0009B019A0299039802F050FDF8
:10E0800005B0F0BD742400207C24002070B50C4B3A
:10E090001A78002A12D000220A4C1A702068FFF762
:10E0A00079FF00280AD020680AF0D0FA051E05D0B2
:10E0B00002F036FE2068FFF763F9256070BDC046A8
:10E0C000802400207424002070B5074B04001888B9
:10E0D000FEF704FD2100050016F034FC04002800C2
:10E0E000FFF74EF9601E70BD0425002010B5002218
:10E0F0000C0008490AF017FAFFF7D3F901230028AA
:10E1000005D0C30F002C02D0C3171B1ADB0F180059
:10E1100010BDC04671820300F7B5070005200D0051
:10E1200001920093FEF77BFD041E2FD0184A2900B0
:10E1300009F00BFFFFF724F9009B002B18D00320F8
:10E14000FEF76DFD0026051E12D0009BB34207DDD1
:10E15000019AB300D158280004F0CBF90136F4E756
:10E1600029000C4A200009F0F0FE2900FFF73CF9D5
:10E17000002F06D0084A3900200009F0E6FEFFF71C
:10E18000FFF8064B2100186804F0D2F9F7BDC0462D
:10E19000B67E0300817E0300BB7E03006C2400205A
:10E1A00070B5224C0022224960680AF0CEF8051EA4
:10E1B00012D009F02BFF29000600606809F0B5FDB8
:10E1C0002800FFF7DDF8002E06D01A48310002F0D3
:10E1D0007DFC3000FFF7D4F80EF098FC002808D042
:10E1E00002F0BAFD144802F08BFC0822A38E934380
:10E1F000A3860022114960680AF0A7F8051E13D013
:10E2000009F004FF29000600606809F08EFD28006F
:10E21000FFF7B6F8002E07D000223000110003F0FF
:10E2200001FB3000FFF7ACF870BDC0468C5A0020EF
:10E23000768203007D8203008A820300A1820300AC
:10E2400070B50E4C20680DF015F906000C4D2968CC
:10E250008E4212D920680CF0DFFF0A280DD002F0A0
:10E26000D7FD002805D0296820680CF0D5FF02F002
:10E270003DFC2B6801332B60E8E770BD742400205F
:10E280007C24002010B50B4C2168002911D00A4BCA
:10E29000013918680CF0C0FF0A280AD002F0B8FD56
:10E2A000002802D0082002F021FC2368013B2360F3
:10E2B000E9E710BD7C2400207424002070B5040020
:10E2C00002F0A6FD114D124E00280FD028680DF067
:10E2D000D1F831680200286802F04CFC286802F08E
:10E2E000C5FC3A220021200003F09CFA02F018FD40
:10E2F0002868FFF745F88022638992009B186381A4
:10E3000020002C600DF0B6F8306070BD7424002041
:10E310007C24002070B5094B0022094958680AF096
:10E3200002F9051E09D004F07EF80400631E9C412A
:10E330002900E4B2FFF758F8200070BD8C5A002085
:10E340006982030070B50024050002F00EFFFF2271
:10E35000134B1C70134B1C80134B1A70A5420DD02D
:10E360000FF0DAFE041E09D002F0E6FEFEF716FEFC
:10E370000FF0E4FEFEF73AFE02F0F7FE02F09CFF1B
:10E3800002F0E0FC00280AD0002C02D1074802F07D
:10E39000B7FB074802F0B4FB0122064B1A7070BDB0
:10E3A00070240020F8240020711F0020A8820300A0
:10E3B000A87F030078240020F0B5494C85B0019077
:10E3C00020680DF057F8474D019B02902968002BFB
:10E3D00002D0002904D181E0029B8B4269D87DE004
:10E3E000013920680CF018FF03000A3B5A425A41D9
:10E3F00003920A2868D102F00BFD002812D00122F6
:10E400002968206802F0CEFB019B002B61D03648C2
:10E4100002F076FB2B6820685A1E190002F0AAFB56
:10E4200002F07EFC12F0A3FE2E4B07001E68019B3B
:10E43000002B00D0013E002E05D0330000222168C1
:10E4400038000CF002FF029B721C934204D9274B48
:10E45000216838000CF0F9FE02F062FC2068FEF73B
:10E460008FFF019B2760002B02D02B68013B2B60A4
:10E4700002F0CEFC002831D0039B002B0ED029687F
:10E480003A22380003F0CEF9246820000CF0F2FFA5
:10E490002A680100200002F06DFB1FE0019B002BA9
:10E4A00002D0082002F022FB2968206816F050FDF7
:10E4B00014E020680CF0B0FE03000A3B5A425A41B7
:10E4C00003920A2805D196E712F051FE2E68070044
:10E4D000B0E712F04CFE2E680700ACE705B0F0BDC7
:10E4E000742400207C24002075830300FFFFFF7F3D
:10E4F000F8B52B4B070000222A4958680AF013F898
:10E50000051E36D0284B0122196804F01BF8061EA0
:10E5100015D0002F05D0FEF774FB0024A0420AD0CE
:10E5200004E0FEF774FB3C00002804D0FEF7D6FAA6
:10E5300009F0C4FD04003000FEF722FF0AE00400E9
:10E54000002F07D02B682800591E04F034F809F07A
:10E55000B5FD04002800FEF713FF002C09D02000B1
:10E56000FFF7ACFE2000FEF70BFF01220F4B1A70E5
:10E5700014E0002F12D102F04BFC0B4C002802D00B
:10E58000206802F073FB02F0CBFB2068FEF7F8FE78
:10E5900012F0EDFD0022064B20601A60F8BDC04667
:10E5A0008C5A0020698203007424002080240020FB
:10E5B0007C240020F0B5174B85B001901888FEF739
:10E5C0008DFA0100050003A80CF0ADFB0024039BAD
:10E5D00003A8002B15D00CF096FB00220E49070073
:10E5E00009F0A1FF060002F0C2FC019B984200D195
:10E5F000012430003900FEF7F7FE03A80CF06FFB92
:10E60000E5E70CF067FB2800FEF7BAFE200005B036
:10E61000F0BDC046D4560020AEA30300F0B585B0CF
:10E620000190080016001F0009F0F0FC051E04D13F
:10E630000EF06CFA002846D14AE0FEF7D8FB00281D
:10E640001FD0290003A80CF06EFB039B002B13D0F6
:10E6500003A80CF058FB3B00010000903200019829
:10E66000FFF7DCFF04000098FEF78AFE03A80CF019
:10E6700036FB002CE9D100E0012403A80CF02AFBB2
:10E680001CE02800FEF7C9FB041E06D03B00320048
:10E690000199280002F0ECFC09E02800FEF714FDC7
:10E6A000002807D022002100280002F00DFDFEF70F
:10E6B00067FE02E00A480EF0D3FE01242800FEF7B0
:10E6C0005FFE002CB4D10122064B00201A7005E039
:10E6D000054B01201A68054B9A42F4D905B0F0BDEC
:10E6E000788303007024002068240020CB0C0000F5
:10E6F000F0B587B000AFB8607960002A31D000264D
:10E700001568B5422FD06946AB000E33DB08DB003D
:10E71000CB1A9D4614231100F8186E46FEF79EFE94
:10E7200000247B69FB60002B10D0A54209D9631C33
:10E73000FB601423F8180CF0E6FAA40034192060EA
:10E74000FC681423F818FEF775FEEAE71433F8188E
:10E750000CF0C0FAFB68A54205D9A200B350013401
:10E76000F9E71600150033002A007968B868FFF74A
:10E7700055FF040031002800FEF71EFE2000BD46B4
:10E7800007B0F0BDF0B5A14CABB0A14D0290206830
:10E790002E680CF06FFE0190019BB3420AD9310044
:10E7A00020680CF039FD12F031FE071E00D1E9E0BF
:10E7B0000136F1E7029B002B00D1D6E00AAF2168B9
:10E7C0003800FFF754FB00267B88002B19D08221EC
:10E7D0001AB249008A4212D020218B431BB25B2B14
:10E7E00001D0282A00D101365D2B01D0292A02D17F
:10E7F000013E00D204E13800FEF7EDFEE4E7FA2620
:10E80000B6003800FEF7CAFE002E00D0ADE002F0E0
:10E81000FFFA002802D07F4802F072F97E4B1A8876
:10E820000393930702D401227C4B1A70236801934F
:10E8300012F09DFC06000022019905A813F0DAFDF4
:10E8400000223100380013F0D5FD00230193069B10
:10E850000293029A059B934224D205A812F080FCF1
:10E86000029005A813F086FE029B202B02D1019B8B
:10E870000133EBE7029B0A2B04D11900380013F097
:10E8800061FDE2E7019B002B07D02021380013F047
:10E8900059FD019B013B0193F4E70299380013F005
:10E8A00051FDD4E70898FEF76BFD0D98FEF768FD63
:10E8B00002F036FA2068FEF763FD12F058FC0027DC
:10E8C0002060574C3900628830002F6002F0FCFB5A
:10E8D00001940500BE4221D030000CF0CBFDB842BF
:10E8E0001CD0504B03225049586809F01CFE041EEE
:10E8F000BC4213D03A00310003F024FE071E06D0BC
:10E900000100200009F011FA3800FEF739FD31004E
:10E91000200003F0EEFD2000FEF732FD3000FEF790
:10E920002FFD0023019A538002F00CFA002810D02A
:10E930003C4B9C8E38231C400BD13D2002F0D6F876
:10E9400028002300394A172110F046F9314802F017
:10E95000D7F82800FEF714FDFFF722FC0222039BE4
:10E960001B889343039A13804EE002F051FA00286B
:10E9700002D02F4802F0C4F8FFF788FB254802F0C8
:10E98000ADF939E0FFF782FB02F042FA002804D02B
:10E990003A002968206802F005F912F0E8FB2B68BC
:10E9A0000600002B03D0002221680CF04EFC0A2345
:10E9B0000AA930000B7015F0B1FF1E4B2A682168C0
:10E9C00030000CF042FC02F0ABF92068FEF7D8FCF6
:10E9D000266002F01DFA00280ED03A222968300085
:10E9E00002F020FF246820000CF044FD2B68010099
:10E9F0005A1C200002F0BEF82B6801332B6003E0A4
:10EA00003800FEF7CBFD02E72BB0F0BD74240020E8
:10EA10007C240020A87F0300F82400207824002014
:10EA2000802400208C5A002069820300010B020020
:10EA3000A0830300FFFFFF7FF0B5984B85B01A78E5
:10EA400005001C00022A0DD10020013218704F2D44
:10EA500002D05B2D02D104221A7062E10A2D00D08F
:10EA60005FE1F0E0032A1FD100221A70462802D18C
:10EA7000FFF7E6FB55E1482802D1FFF703FC50E120
:10EA80002F206F2D02D06A2D03D12A20FFF7D4FF4B
:10EA900047E12D206D2DF9D02B206B2DF6D00D20C8
:10EAA0004D2D00D03DE1F1E7042A70D100221A700B
:10EAB0000200303AD1B2092903D879498A80052267
:10EAC000CAE7442816D1774C2168002900D128E1F3
:10EAD000754B013918680CF09FFB0A2800D120E122
:10EAE0002368013B236002F093F9002800D118E16C
:10EAF0006E4814E1432818D16B4D28680CF0BAFC1D
:10EB0000684C2168884200D80BE128680CF084FB2F
:10EB10000A2800D105E123680133236002F078F967
:10EB2000002800D1FDE06248F9E0412813D15E4C95
:10EB300020680CF09FFC051E05D15A4B1B689D42B6
:10EB400006D101201CE02068FFF724FA0028F4D148
:10EB50000120404218E0422800D0E2E0524C2068F8
:10EB60000CF088FC051E05D14E4B1B689D420AD156
:10EB7000002005E02068FFF70DFA0028F4D102E03C
:10EB8000FFF7B6FCCDE00120FFF748FAC9E0052AFF
:10EB900039D10300303B092B07D80A23404A91881A
:10EBA0004B43303B1D189580BBE0642803D13C4BA0
:10EBB0009A885A8024E0482806D1394B9B88022B3A
:10EBC0001ED102F069FB1BE07E2819D1344B9B88D3
:10EBD000012B02D1FFF756FB12E0032B03D10020DB
:10EBE000FFF7EAFB0CE0042B02D1FFF729FB07E05B
:10EBF0000020052B02D0062B02D10120FFF7E6F9F9
:10EC0000002323708DE010280BD1274B18680CF0DF
:10EC100031FC002805D10221264A13880B431380BA
:10EC20007FE000232370082D01D07F2D03D1012028
:10EC3000FFF7C2FB75E00D2D02D00A2D06D101E0D1
:10EC4000012323700120FFF79DFD6AE01F2D01D8ED
:10EC5000092D66D1002303AC25706370092D00D106
:10EC6000154CFFF713FA631C1A1B013301925A1E4D
:10EC70001278002AF8D1114E3368002B04DA0A4BBF
:10EC800018680CF0F7FB3060064D33682A689A422A
:10EC900016DB200002F022F836E0C046E121002019
:10ECA000802400207C24002074240020A8830300FA
:10ECB000AC830300F8240020A3830300681F002016
:10ECC00012F055FA2B680600002B04D016490022DA
:10ECD00009680CF0BAFA210030000CF06BF9124F01
:10ECE000124B2A68396830000CF0AFFA02F018F8BD
:10ECF0003868FEF745FB3E6002F08AF8002803D032
:10ED00002968300016F024F9094A019B11688C46E5
:10ED10006344136002F07CF8002802D0200001F068
:10ED2000EFFE05B0F0BDC04674240020FFFFFF7F5A
:10ED30007C24002010B5042206F0B6FB06F056FC39
:10ED40000422524206F0B0FB10BD10B51B4A1378E6
:10ED50001100012B19D11A4B1B681B0715D1194B38
:10ED6000E0241A68F0231000184022420BD1164A02
:10ED700012681A4209D1154A154B1A608022154BA8
:10ED800012021A6001E03028F1D00B68DBB2012BCF
:10ED900012D10B4A126812070ED1F021094A1268EB
:10EDA0000A40402A08D1084A12680A4204D1C12206
:10EDB0008021D200C9058B5010BDC046E00F00F085
:10EDC000E40F00F0E80F00F0EC0F00F0DFFF07C0E9
:10EDD00004050040186C0040F7B500230022040031
:10EDE0000D0016F0C3FF002847D101AA200029001A
:10EDF00006F0C8FB234A244B17F092FF234A244B0A
:10EE000017F03EF8019EF30703D5224A224B17F074
:10EE100087FF721006F048FB06000F0002000B008F
:10EE20002000290017F058FB32003B0017F028F8AB
:10EE300000221A4B17F074FF06000F0002000B00AF
:10EE40002000290017F048FB32003B0017F018F8AB
:10EE50000022124B17F064FF06000F0002000B00A7
:10EE60002000290017F038FB32003B0017F008F8AB
:10EE700000220A4B17F054FF01E00020002103B0EC
:10EE8000F0BDC04679CF2F8F9BE2E23F528E34EF28
:10EE90002AB5DA3FCD3B7F669EA0F63F0000E03FFB
:10EEA000F8B506000F0006F0A1FB02000B000400FD
:10EEB0000D003000390018F0ADF90022184B0600A3
:10EEC0000F0016F05DFF00281FD10022144B300008
:10EED000390016F03BFF00281FD00022104B200005
:10EEE000290017F01DFF06F081FB02000B0016F051
:10EEF000C7FF02000B002000290018F08BF9002248
:10EF0000084B16F023FF002807D02000290000221C
:10EF1000044B16F0B5FF04000D0029002000F8BDD9
:10EF20000000E03F0000F03FF8B514001D000CCCDD
:10EF300006000F0016F0A4FF013D32003B0017F061
:10EF4000EFFE0CCC013D16F09BFF002DF5D1F8BD76
:10EF5000F8B514001D0006000F0003CC32003B0082
:10EF600017F0DEFE0CCC013D16F08AFF002DF5D126
:10EF7000F8BDF7B5284B002206000F0016F080FF01
:10EF8000264A274B04000D0016F0E6FE002807D1A4
:10EF9000224A244B2000290016F0F2FE002804D05B
:10EFA0002000290000F0ACF934E032003B003000D2
:10EFB000390017F0B5FE00221B4B04000D0017F0BE
:10EFC000AFFE062300900191184A30003900FFF788
:10EFD000BFFF02000B002000290017F0A1FE134A1A
:10EFE00004000D003832062330003900FFF79CFF83
:10EFF00002000B002000290017F06EFA32003B00DF
:10F0000017F08EFE009A019B16F03AFF32003B008B
:10F0100016F036FF03B0F0BD0000F03FCD3B7F6639
:10F020009EA0E63F9EA0F63F0000E0BFB083030035
:10F03000F7B50023002204000D0016F087FE061E1F
:10F0400076D16F007F083C4A3C4B2000390016F017
:10F0500097FE0022002809D000232000290016F086
:10F060008FFE002862D10400354D61E0354B200051
:10F07000390016F08FFE2200002828D03B00200027
:10F08000390016F0FDFE06F071FB00222E4B16F043
:10F09000F7FE0B0080210200C905002017F01CFAC2
:10F0A00002000B000020284918F0B4F800220600E6
:10F0B000009120000F000023290016F04DFE3400BF
:10F0C000009D002834D080231B06FD1830E02B0063
:10F0D0002000290017F024FE1C4A02236832009009
:10F0E0000191FFF735FF032306000F0000980199F7
:10F0F000174AFFF719FF02000B003000390017F024
:10F10000EBF9009A019B06000F002000290017F080
:10F1100007FE32003B0017F003FE02000B00200048
:10F12000290016F0ADFE04000D0001E03400064D8C
:10F130002000290003B0F0BDEF39FAFE422E7640E0
:10F140000000F0BF0000E43F0000F03FB083030088
:10F1500030840300F0B5070087B00191002200233E
:10F160003800019916F0F2FD002800D0A9E0594AB4
:10F17000594B3800019916F003FE002807D1574A71
:10F18000574B3800019916F0FBFD00280BD00022E8
:10F1900000233800019916F0F3FD002800D093E019
:10F1A0000400504D92E0019B00225C0064084E4B2D
:10F1B0003800210016F0E4FD002850D04B4A4C4B9B
:10F1C0003800210016F0E6FD002821D00022494B2E
:10F1D0002100380017F0A4FD06F0C8FA0022454BC4
:10F1E00004000D0017F09CFD02000B002000290018
:10F1F00017F096FD00220D0004000023380001994D
:10F2000016F0AAFD002861D080231B06ED185DE0F2
:10F210002100380006F0AAFA0022364B04000D0047
:10F2200017F07EFD2200029003912B00002031494F
:10F2300017F052F902000B000298039917F0EAFF49
:10F2400000220E0004000D0000233800019916F082
:10F2500083FD00283AD080231B06F51836E02300F2
:10F260003A002100380017F05BFD05000E00020097
:10F270000B003800019917F053FD1F4C04900591C5
:10F2800022000323183228003100FFF761FE22001C
:10F29000029003913832032328003100FFF744FE27
:10F2A00002000B000298039917F016F9049A059BC7
:10F2B00017F036FD3A00019B16F0E2FD04000D0048
:10F2C00004E03C00019D01E000240C4D20002900D9
:10F2D00007B0F0BD7DF8B98FCE338640E0EEEC6527
:10F2E0009C4E87400000F0FF0000F03F617B3A6ECB
:10F2F000B72886400000E03F308403000000F07F24
:10F30000F0B5020087B00B0006000F0018F0D6FA27
:10F3100034003D00002800D010E10122894B524208
:10F320003000390016F02CFD002800D006E1002244
:10F3300000233000390016F019FD00280BD0002200
:10F3400000233000390016F001FD0024002800D110
:10F35000F3E07D4DF2E005AA3000390006F012F925
:10F36000059E0400B31C0D00784A042B71D9784B1C
:10F3700016F0F2FC00280CD0013E0022754B200054
:10F380002900059617F046FF002206000F00714B7A
:10F390000FE000226F4B2000290017F03BFF0022F6
:10F3A0006C4B17F037FF002206000F0020002900E9
:10F3B000684B17F0B5FC0022664B16F061FD0200A9
:10F3C0000B003000390017F087F802000B00040032
:10F3D0000D0017F0A5FC604A0223503206000F0012
:10F3E000FFF7B6FD02000B003000390017F098FC63
:10F3F000594A009001916832032330003900FFF729
:10F4000093FD02000B000098019917F065F82200A7
:10F410002B0017F085FC00900191059818F0A4FAD4
:10F420004E4A4F4B06000F0017F07AFC02000B000B
:10F430000098019917F0EEFE02000B002000290051
:10F4400016F01EFD002204000D00464B300039006E
:10F450006AE03F4B16F080FC002809D00122013EF3
:10F4600020002900059606F01FF800223E4B03E01D
:10F470000022200029003C4B17F0CCFE02000B00BC
:10F4800006000F0017F04CFC052302900391374A49
:10F4900030003900FFF75CFD02000B000298039971
:10F4A00017F03EFC314A04000D00303205233000D5
:10F4B0003900FFF739FD02000B002000290017F08A
:10F4C0000BF83B00320017F02BFC059B04000D00ED
:10F4D0000093002B0ED0180018F046FA1F4A204B5C
:10F4E00017F01EFC02000B002000290017F092FE0E
:10F4F00004000D00029803990122524205F0D4FF46
:10F5000002000B002000290017F084FE3B003200AF
:10F5100016F0B6FC009B04000D00002B0ED0180066
:10F5200018F022FA00220F4B17F0FAFB22002B00F2
:10F5300016F0A6FC04000D0000E00D4D200029008F
:10F5400007B0F0BDFFFFEF7F0000F0FFCD3B7F660F
:10F550009EA0E63F0000E03F30840300A80C615C01
:10F5600010D02B3F0030E63F0000F03FB084030096
:10F570000000F87FF0B5020087B00B0004000D001A
:10F5800018F09CF926002F00002800D0F4E001229A
:10F590007B4B52422000290016F0F2FB002800D0DD
:10F5A000EAE0002200232000290016F0DFFB0028FB
:10F5B0000BD0002200232000290016F0C7FB0026F4
:10F5C000002800D1D7E06F4FD6E005AA200029001F
:10F5D00005F0D8FF059E0400B31C0D006A4A042BF9
:10F5E00054D96A4B16F0B8FB00280CD0013E00221B
:10F5F000674B20002900059617F00CFE002206003C
:10F600000F00634B0FE00022614B2000290017F030
:10F6100001FE00225E4B17F0FDFD002206000F00E8
:10F62000200029005A4B17F07BFB0022584B16F0A4
:10F6300027FC02000B003000390016F04DFF0200DD
:10F640000B0006000F0017F06BFB524A02235832E2
:10F6500004000D00FFF77CFC02000B0020002900D5
:10F6600017F05EFB4B4A009001917032032320009B
:10F670002900FFF759FC02000B000098019916F0D1
:10F680002BFF32003B0017F04BFB4AE03F4B16F0DC
:10F6900063FB002809D00122013E200029000596C5
:10F6A00005F002FF00223C4B03E00022200029006D
:10F6B000394B17F0AFFD02000B0006000F0017F0EA
:10F6C0002FFB364A04000D000832052330003900B4
:10F6D000FFF73EFC02000B002000290017F020FB82
:10F6E0002E4A029003910523383230003900FFF78B
:10F6F0001BFC01220090019152422000290005F0DC
:10F70000D3FE009A019B04000D000298039916F0A5
:10F71000E3FE32003B0017F003FB22002B0017F042
:10F7200079FD1F4A1F4B04000D0017F0F9FA1C4A1F
:10F73000009001911B4B3000390017F0F1FA009A4C
:10F74000019B16F09DFB02000B002000290016F023
:10F7500097FB02000B003000390016F091FB04000B
:10F760000D00059818F000F922002B0016F088FB18
:10F7700006000F0000E00C4F3000390007B0F0BD6C
:10F78000FFFFEF7F0000F0FFCD3B7F669EA0E63FCE
:10F790000000E03FB08403000000F03F308503002C
:10F7A000F80BAE941D55DC3F0000F87FF0B5020069
:10F7B00085B00B0004000D0018F080F826002F0023
:10F7C000002800D0B4E001225B4B52422000290007
:10F7D00016F0D6FA002800D0AAE00022002320006C
:10F7E000290016F0C3FA00280BD0002200232000C5
:10F7F000290016F0ABFA0026002800D197E04F4F01
:10F8000096E003AA2000290005F0BCFE4C4A4D4BAF
:10F8100004000D0016F0A0FA00280AD0039B012274
:10F82000013B20002900039305F03EFE0022464BD9
:10F8300003E0002220002900434B17F0EBFC0200FC
:10F840000B0006000F0017F06BFA404A0090019180
:10F850000623603230003900FFF77AFB02000B000C
:10F860000098019917F05CFA394A04000D0006234C
:10F87000183230003900FFF757FB02000B00200060
:10F88000290016F029FE3B00320017F049FA012248
:10F8900004000D0000980199524205F005FE020097
:10F8A0000B002000290017F0B5FC04000D00020039
:10F8B0000B003000390016F0E3FA264A264B17F009
:10F8C0002FFA002200900191244B2000290017F00C
:10F8D00027FA009A019B16F0D3FA04000D000022CB
:10F8E0001E4B3000390017F01BFA22002B0016F0D7
:10F8F000C7FA060003980F0018F036F8184A194B9B
:10F9000004000D0017F00CFA32003B0016F0B8FAB4
:10F9100006000F000022144B2000290017F000FA07
:10F9200032003B0016F0ACFA06000F0000E00F4F6B
:10F930003000390005B0F0BDFFFFEF7F0000F0FFA1
:10F94000CD3B7F669EA0E63F0000F03F3085030080
:10F95000B0850300651CCA4D2AF6463F00C0DB3F58
:10F96000CCFBE77D424D303F0040D33F0000F87FA5
:10F970000348044B0840C018411E88417047C046E8
:10F980000000F07F00001080F0B5002285B0002359
:10F9900005000C0016F0DAF9002800D0C8E02A00B3
:10F9A00023002800210017F089FF002800D0BFE0C5
:10F9B00028002100FFF7DCFF002800D1B3E000237E
:10F9C00000222800210016F0C7F90123002804D0E6
:10F9D00080231B06E41801235B4201930022564B4F
:10F9E0002800210016F0CCF9002800D09EE0534BEF
:10F9F000534A2800210016F06FFD05F0F7FD0322A1
:10FA0000524206000F0005F04FFD05F0EFFD032206
:10FA100005F04AFD0B0002003900300017F0FAFB38
:10FA200017F06CFF03000090DB070AD503000133D9
:10FA30000093300039000022424B16F021FA0600F4
:10FA40000F00A0223D4BD2053000390017F068F9B5
:10FA500002000B002800210017F0DCFBC02204008C
:10FA60000D00D205384B3000390017F059F902006B
:10FA70000B002000290017F0CDFB344A04000D00D4
:10FA8000334B3000390017F04BF902000B00200017
:10FA9000290017F0BFFB02000B0005000C0017F057
:10FAA0003FF92C4A2C4B06000F0016F069F900288C
:10FAB00027D02A4A0223483230003900FFF748FA9B
:10FAC00002000B003000390017F02AF9234A029097
:10FAD00003916032042330003900FFF725FA020059
:10FAE0000B000298039916F0F7FC2A00230017F088
:10FAF00017F902000B002800210016F0C1F90500DB
:10FB00000C00009B9B0707D52A0023000020144906
:10FB100016F0E2FC05000C00019B013308D18023A4
:10FB20001B06E41804E005000E4C01E000252C0043
:10FB30002800210005B0F0BD0000D041FB21E93FC5
:10FB4000182D44540000F03FB410413E075C1433BC
:10FB500026A6813C9B2BA1869B84063DB085030095
:10FB60000000F0BF0000F87FF0B5020085B00B0088
:10FB700006000D0017F0A2FE002800D0D3E03000F0
:10FB80002900FFF7F5FE002800D1C7E0002200237E
:10FB90003000290016F0E0F8002802D080231B0670
:10FBA000ED180022624B3000290016F0E9F8002819
:10FBB00000D0B6E05F4B604A3000290016F08CFCA4
:10FBC00005F014FD042252420090019105F06CFCF6
:10FBD00005F00CFD042205F067FC02000B00009804
:10FBE000019917F017FB17F089FE0400C30708D529
:10FBF000009801990022514B16F042F900900191B2
:10FC0000013407231C40063B0393032C02DD023B17
:10FC1000043C0393012C02DD039B5B42039380228F
:10FC200000980199D205434B17F07AF802000B00B7
:10FC30003000290017F0EEFA002206000F000098AD
:10FC400001993F4B17F06CF802000B0030003900AF
:10FC500017F0E0FA3B4A06000F00009801993A4B72
:10FC600017F05EF802000B003000390017F0D2FAEE
:10FC700002000B000090019117F052F8013C0600C1
:10FC80000F00012C16D802000B000098019917F004
:10FC900047F8052304000D002C4A30003900FFF717
:10FCA00057F902000B002000290017F039F8009ADC
:10FCB000019B28E00122524205F0F6FB32000400CD
:10FCC0000D003B003000390017F02AF81F4A009061
:10FCD00001910523303230003900FFF739F9220055
:10FCE0002B0006000F000020144917F093FA320091
:10FCF00004000D00009801993B0017F011F8020074
:10FD00000B002000290016F0BBF8039B06000D0035
:10FD1000013308D180231B06CD1804E006000C4DEA
:10FD200001E0002635003000290005B0F0BDC046D6
:10FD30000000D041FB21E93F182D44540000F03F62
:10FD40002D44643E7051CC989846E83C30860300C0
:10FD50000000F87FF0B5002285B0002306000D00FA
:10FD600015F0F4FF002800D0DAE032002B0030005C
:10FD7000290017F0A3FD002800D0D1E030002900B1
:10FD8000FFF7F6FD002800D1C5E000230022300077
:10FD9000290015F0E1FF0123002804D080231B0671
:10FDA000ED1801235B42039300225F4B30002900D2
:10FDB00015F0E6FF002800D0B0E05C4B5C4A300054
:10FDC000290016F089FB05F011FC04225242009034
:10FDD000019105F069FB05F009FC042205F064FBC4
:10FDE00002000B000098019917F014FA17F086FD35
:10FDF0000400C30708D50098019900224D4B16F066
:10FE00003FF800900191013407231C40032C03DDCF
:10FE1000039B043C5B420393802200980199D20526
:10FE2000424B16F07DFF02000B003000290017F056
:10FE3000F1F9002206000F00009801993E4B16F0E0
:10FE40006FFF02000B003000390017F0E3F93B4A66
:10FE500006000F0000980199394B16F061FF02006F
:10FE60000B003000390017F0D5F902000B000090AC
:10FE7000019116F055FF013C06000F00012C29D816
:10FE80000122524205F010FB320004000D003B003D
:10FE90003000390016F044FF2A4A009001910523F2
:10FEA000303230003900FFF753F822002B000600F3
:10FEB0000F0000201F4917F0ADF9320004000D00BB
:10FEC000009801993B0016F02BFF02000B00200068
:10FED000290015E002000B000098019916F020FFA0
:10FEE000052304000D00174A30003900FFF730F8F1
:10FEF00002000B002000290016F012FF009A019B5F
:10FF000015F0BEFF039B06000D00013308D18023CE
:10FF10001B06CD1804E006000B4D01E0002635005D
:10FF20003000290005B0F0BD0000D041FB21E93FC1
:10FF3000182D44540000F03F2D44643E7051CC987D
:10FF40009846E83C308603000000F87FF0B51600C4
:10FF500091B0009307000C000022002330000099AC
:10FF600015F0F4FE002801D000F0C4FC3A00230094
:10FF70003800210017F0A2FC002801D000F0BFFCDF
:10FF80003200009B3000009917F098FC002801D047
:10FF900000F0B2FC0022B94B3000009915F0D6FEFB
:10FFA000051E01D000F0ABFC30000099FFF7E0FC2B
:10FFB00000220390002812D1B04B3800210015F028
:10FFC000C5FE051E01D000F09DFC0022AC4B3800A0
:10FFD000210015F0BBFE00280AD000F094FCA74BCE
:10FFE0003800210015F0B2FE002801D000F08DFC91
:10FFF0000122A44B52423000009915F0CBFE00289C
:020000022000DC
:1000000033D000229D4B3800210015F0B9FE0028A6
:1000100075D1002200233800210015F0B1FE002820
:100020000BD00022954B3800210015F095FE0028DA
:1000300003D00025290000F0ADFC0022904B3800D1
:10004000210015F089FE002859D100228C4B380080
:10005000210015F095FE002807D00022002338006B
:10006000210015F079FE0028E3D10122864B52428F
:100070003000009915F07AFE00282FD000227F4B27
:100080003800210015F07CFE0028D2D10022002388
:100090003800210015F074FE002807D00022774BAD
:1000A0003800210015F058FE002828D10022744B9A
:1000B0003800210015F050FE0028BAD10022704B04
:1000C0003800210015F05CFE002807D00022002334
:1000D0003800210015F040FE002810D10122694BA4
:1000E00052423800210015F055FE00280AD00022A7
:1000F00000233000009915F043FE002899D0002518
:1001000000F047FC3000009905F070FA03900A9166
:1001100002000B003000009915F018FE002801D0F5
:1001200000F0F5FB050003900122574B52423800C6
:10013000210015F01BFE00281BD0002200233000F8
:10014000009915F01DFE002806D0039B002BD6D089
:1001500000254E4900F01EFC0022002330000099CB
:1001600015F0FAFD002804D0039B002B00D160E7B6
:10017000BCE3002200233800210015F0F7FD002821
:1001800024D0002200233800210015F0DFFD0028D4
:1001900016D0002200233000009915F0DDFD002864
:1001A00002D0002CD1DBAAE7002200233000009906
:1001B00015F0E6FD002800D196E3002CD4DB38E7EB
:1001C000002D00D19FE301230A9303E0002D00D10D
:1001D000BEE30A903800210005F008FA02000B0087
:1001E0003800210015F0B2FD002800D114E1009B79
:1001F00000225D003000264B690815F0ADFD002897
:1002000000D109E10099300017F078FB00220500C9
:1002100000233800210015F099FD002808D0002D9A
:1002200000D172E300DA6AE7EB0700D567E300E785
:10023000002D00D169E36B1C07D13A002300002098
:100240000E4916F049F90500A4E300220023380006
:10025000210015F081FD002806D080231B06E4183C
:1002600001235B42009300E000900120002D11DA91
:100270006B42039301235B420A930DE00000F03FC1
:100280000000F0BFFFFFEF7FFFFFEFFF0000F0FF78
:100290000000E04003950A90039B009A03400493FA
:1002A0005B421A40009238000FAA210005F06AF95B
:1002B0000F9E039B06900791701E5843002803D0A1
:1002C00003004033802B32D906980799AD4AAE4BD4
:1002D00016F0A0FFAB4A0890099106980799AA4B1F
:1002E00015F0CEFD02000B000898099916F0F4F8FD
:1002F000A64AA74B16F014FD0022A64B16F08AFF63
:1003000006900791300017F02FFB02000B000698B3
:10031000079915F0B5FD06900791280017F024FB0A
:1003200002000B000698079916F0FAFC01E017F09E
:100330001BFB994A994B16F0F3FC974A984B050022
:100340000E0015F01DFD069000285BD1954A964BD6
:100350002800310015F000FD002843D18E4A934B50
:100360002800310015F0F8FC00280CD00A9B01335E
:1003700009D123003A0000208D4916F0ADF8012381
:1003800007000C000A93049B002B02D03D002600BE
:1003900016E0049D864E13E03A0023003800210049
:1003A00016F0BEFC0122039B07000C00134207D08D
:1003B00002000B002800310016F0B2FC05000E0010
:1003C000039B5B100393039B002BE5D10A9B013336
:1003D0000AD12A0033000020754916F07DF8050087
:1003E0000E0001E0069D2E00009B3100002B00D185
:1003F000D0E2002200232800310015F0A7FC0028DD
:1004000006D073E2009B002B00D1C1E20025694EAB
:1004100080231B06F118BDE20A9B002B03D00123A9
:10042000640064080A930022614B3800210016F032
:10043000F1FE009B02005B005B080D00049006913A
:100440000B9330000B00009916F06AFC0C914900E8
:100450004B086D0008900D93574A584B0498690853
:1004600015F084FC002807D00022514B30000B9976
:1004700015F07CFC002811D14F4A504B08980D997B
:1004800015F074FC002800D1ACE00022484B30008D
:100490000B9915F07FFC002800D1A3E00099002201
:1004A000474B300016F0B6FE049A069B16F038FC57
:1004B0000022444B16F010F8434A444B15F0E0FC80
:1004C000049A069B16F02CFC002204000D00404B01
:1004D0000099300016F09EFE02000B00200029005B
:1004E00016F01EFC3B4A3C4B15F0CAFC049A069BD6
:1004F00016F016FC002204000D00384B0099300065
:1005000016F088FE02000B002000290016F008FCFF
:10051000304A334B15F0B4FC049A069B16F000FCED
:10052000802304000D0000220099DB05300016F046
:1005300071FE02000B002000290016F0F1FB0022E2
:10054000144B15F09DFC049A069B16F0E9FB002263
:1005500004000D00164B3000009916F05BFE0200FF
:100560000B002000290016F0DBFB089A0C9B16F00C
:10057000D7FB089A0C9B15F083FC00220C4B15F05E
:100580007FFC9FE1CD3B7F669EA0E63FE69D3F332B
:100590004F5007400000E03FEF39FAFE422EE63FA1
:1005A000422E864052302DD5104987C0421E86C04B
:1005B0000000F03F0000F07FFCA9F1D24D62503FF7
:1005C0000000144000808640111111111111813F6B
:1005D00000001040555555555555A53F00000840A1
:1005E0005555C53F0FAA2100380004F0CBFFD94A6A
:1005F000D94B0490059115F0B9FB0924002800D1CE
:10060000083C271DD54DFB00EB181A6E5B6E049855
:10061000059915F0ABFB002800D03C000498059923
:10062000A71CFB00ED182A6E6B6E15F09FFB0028CF
:1006300000D03C0004980599C94ACA4B15F0AAFBA2
:10064000002801D001246442671CC44AFB00D3186F
:100650001C6E5D6E0498059922002B0016F0DAFDE1
:10066000C14A7B10DB00D3189A6EDB6E16F0D2FD08
:1006700022002B0015F030FF02000B0004900591C2
:1006800016F04EFBB94A069007910498059930324E
:100690000323FEF75DFC02000B000698079916F095
:1006A0003FFBB24A04000D00049805995032042320
:1006B000FEF73AFC02000B002000290015F00CFFA9
:1006C000049A059B16F02CFB012204000D000698ED
:1006D0000799524204F0E8FE02000B0020002900B6
:1006E00016F098FDA24AA34B04000D0016F018FB6B
:1006F00002000B002000290015F0C2FB9C4A0400F8
:100700000D00049805999B4B16F00AFB02000B00A4
:100710002000290015F0B4FB0B0002000498059995
:1007200015F0AEFB08900991784217F01DF90422EC
:10073000524204F0B9FE04000D000F9817F014F9AE
:1007400022002B0015F09CFB0690079130000099C9
:10075000FEF7F0FA0490059102000B0030000099BA
:1007600016F058FD069A079B16F0DAFA089A099BCC
:1007700004000D003000009916F0D2FA02000B00C0
:100780002000290015F07CFB04000D00FEF7D2FAD2
:1007900006000F0002000B002000290016F03AFDB1
:1007A000049A059B009001910698079916F0B8FAF3
:1007B00032003B0015F064FB04000D00FEF7BAFAAE
:1007C00002000B0006000F002000290016F022FD99
:1007D00002000B000098019915F052FB049005915E
:1007E000FEF7A8FA0B0000900191020039003000DA
:1007F00015F046FB042204F057FE00225E4B040075
:100800000D0015F0BDFA002804D00A9B002B00D083
:100810009BE474E40022594B2000290015F09CFA57
:10082000002805D00A9B002B00D09DE4FFF701FCB7
:100830002000290017F062F8009A019B0400049838
:10084000059916F0E7FC0022002306000F0015F0C2
:1008500097FA002801D10F9409E0300039000134E3
:100860000022474B0F9416F0D5FC06000F003F4ABC
:100870000623703230003900FEF76AFB0F9A0F230F
:10088000D443E50FD4171C40A41824112B1900934E
:100890001B019A1A314BD2009A18146E556E0B0038
:1008A00002003900300016F03BFA22002B0016F04F
:1008B00037FA02000B002000290015F0E1FA009A37
:1008C00004F0F2FD0A9B05000C00002B18D0039BDE
:1008D000002B15D00022002315F038FA002805D18E
:1008E00080231B06E11855E005000EE0802100255D
:1008F00009064FE0002508E0350000994AE03D0078
:10090000210047E0039D1F4944E01F4942E0009B4E
:1009100000225D0069081D4B300016F001FA04F05A
:1009200065FE0A9B049005915D000022174B039819
:10093000690816F0F5F9049A059B15F007FA434289
:10094000584101234042034003930125FFF7ECFB8C
:100950000A9568E5295448DD07ABE53F308603007A
:10096000DA90A4A2AFA4EE3FB08603003087030064
:10097000F80BAE941D55DC3F80FFCF4000C8D0C0BF
:100980000000B03F0000F87F0000F03F0000E03FB3
:100990001D000249280011B0F0BDC0460000F07FE4
:1009A000F7B5154B019206000F0000220199186857
:1009B00007F0B9FD051E1DD00022104907F0B3FD58
:1009C000041E13D03000019B0D4A39000CF050FB7F
:1009D0002000FCF717FA002805D03B003200102158
:1009E00020000EF0F9F839000648B0472900200031
:1009F000FCF7FAFCF7BDC0468C5A0020A97D030025
:100A0000188803000389030070B50A4B0100032214
:100A1000586807F088FD0400051E05D0037A0133ED
:100A20000372FCF769F805002000FCF7A9FC280018
:100A300070BDC0468C5A0020F7B5150001930F4BCE
:100A400006000F0001222900186801F07BFD041E3A
:100A50000DD0FCF739FB002809D0019B9C4206D041
:100A60002300074A390030000CF002FB05E03B0090
:100A70003200132128000EF0AFF8F7BD8C5A002089
:100A8000E2A90300F7B50D000400170003210C4A8A
:100A900018000AF0BFFC06003B0029000090094A3C
:100AA00020000CF0E5FA3000FCF76AFC2900002376
:100AB000089A2000FFF7C0FF29000348A047F7BDB0
:100AC000FFFFFF7F22880300038903000FB407B5EF
