:020000040007F3
:10A000000854002059A5070061A5070063A50700B3
:10A0100065A5070067A5070069A507000000000007
:10A0200000000000000000000000000015A4070070
:10A0300000000000000000006DA507006FA50700EC
:10A0400071A5070071A5070071A5070071A507009C
:10A0500071A5070071A5070071A5070071A507008C
:10A0600071A5070071A5070071A5070071A507007C
:10A0700071A5070071A5070071A5070071A507006C
:10A0800071A50700C5A6070071A5070071A5070007
:10A09000E9A6070071A50700EDA6070071A5070056
:10A0A00071A5070071A5070071A5070071A507003C
:10A0B00071A5070071A50700000000000000000066
:10A0C00071A5070071A5070071A5070071A507001C
:10A0D00071A5070071A50700000000000000000046
:10A0E0000000000000000000000000000000000070
:10A0F0000000000000000000000000000000000060
:10A10000000000000000000000000000000000004F
:10A11000000000000000000000000000000000003F
:10A40000DFF80CD000F0ECF80048004769CA0700FC
:10A41000085400206FF00200704502D1EFF309816B
:10A4200001E0EFF30881886902380078004A10479C
:10A4300005A60700401E00BF00BF00BF00BF00BF51
:10A4400000BF00BF00BF00BF00BF00BF00BF00BF14
:10A4500000BF00BF00BF00BF00BF00BF00BF00BF04
:10A4600000BF00BF00BF00BF00BF00BF00BF00BFF4
:10A4700000BF00BF00BF00BF00BF00BF00BF00BFE4
:10A4800000BF00BF00BF00BF00BF00BF00BF00BFD4
:10A4900000BF00BF00BF00BF00BF00BF00BF00BFC4
:10A4A00000BF00BF00BFC5D170470000401E00BF05
:10A4B00000BF00BF00BF00BF00BF00BF00BF00BFA4
:10A4C00000BF00BF00BF00BF00BF00BF00BF00BF94
:10A4D00000BF00BF00BF00BF00BF00BF00BF00BF84
:10A4E00000BF00BF00BF00BF00BF00BF00BF00BF74
:10A4F00000BF00BF00BF00BF00BF00BF00BF00BF64
:10A5000000BF00BF00BF00BF00BF00BF00BF00BF53
:10A5100000BF00BF00BF00BF00BF00BF00BFC5D16C
:10A5200070470000056885F308884068FF2464B21E
:10A53000EFF30585002D01D1A646004725460646C6
:10A5400021273FBAF0B40024002500260027F0B4EC
:10A55000F92040B2004700000648804706480047FF
:10A56000FEE7FEE7FEE7FEE7FEE7FEE7FEE7FEE7C3
:10A57000FEE7000011A7070001A4070040EA01035D
:10A580009B0703D009E008C9121F08C0042AFAD2A9
:10A5900003E011F8013B00F8013B521EF9D270476D
:10A5A000D2B201E000F8012B491EFBD27047002215
:10A5B000F6E710B513460A4604461946FFF7F0FFC2
:10A5C000204610BD30B504460020034600E05B1C69
:10A5D000934203D2E05CCD5C401BF8D030BD00005C
:10A5E000064C074D06E0E06840F0010394E80700E0
:10A5F00098471034AC42F6D3FFF706FF70D8070037
:10A6000090D8070010B50C4610B10120086010BDAD
:10A61000216891B11148421A814213D03C2A0ED2CE
:10A6200001223C3011F13C0111F8013900F80139E7
:10A630001346521C3C2BF7D904E00E200BE03C22C1
:10A64000FFF79CFF00223C21044801F039FA03493E
:10A65000891E08800020206010BD0000827F00203D
:10A6600000F01F02012191404009800000F1E0202C
:10A67000C0F88012704700F01F020121914040098C
:10A68000800000F1E020C0F80011704700F01F02C8
:10A69000012191404009800000F1E020C0F8001243
:10A6A00070474907090E002806DA00F00F0000F194
:10A6B000E02080F8141D704700F1E02080F80014BD
:10A6C0007047000007480021C0F84011C0F844114D
:10A6D000C0F84811C0F84C11C0F80011C0F80411BE
:10A6E00002F052BF0010014002F0EABE074810B568
:10A6F000406830B18047002807D0BDE8104000F026
:10A700003FBBBDE8104002F075B810BDBC2C002066
:10A71000F0B58C480022041D0378211D081D012678
:10A72000062B17D125782D0714D10D78C5F3031505
:10A73000032D03D1077817F0F00F0ED0042D03D1AD
:10A74000077817F0F00F08D0052D03D1057815F024
:10A75000F00F02D0062B09D014E04FF08055D5F849
:10A760004452794FC5F342353D6002E025782D070C
:10A7700008D10D78C5F30315032D03D1057815F025
:10A78000F00F02D0062B06D01DE0704D2F6827F089
:10A7900080772F601AE025782D0714D10D78C5F346
:10A7A0000315032D03D1077817F0F00F0ED0042DF9
:10A7B00003D1077817F0F00F08D0052D03D10578E5
:10A7C00015F0F00F02D0062B0AD015E04FF08045AF
:10A7D000C5F80C21C5F810215B4D2D1F2A6002E041
:10A7E00025782D0708D10D78C5F30315032D03D166
:10A7F000057815F0F00F02D0062B05D066E0524C1C
:10A8000003236434236002E023781B075ED10978B8
:10A81000C1F30311052959D1007810F0F00F55D17B
:10A820004B4800684B4908604948001D0068091DF5
:10A830000860474808300068091D086044480C302B
:10A840000068091D0860424810300068091D086052
:10A850003F4814300068091D08603D481830006802
:10A860003C49203108603A481C300068091D0860E6
:10A87000374820300068091D0860354824300068DA
:10A88000091D0860324828300068091D08603048FA
:10A890002C300068091D08602D48303000682D49B3
:10A8A000403108602A4834300068091D0860284893
:10A8B00038300068091D086025483C300068091DD3
:10A8C0000860234840300068091D08601F4874383C
:10A8D000016841F470010160BFF34F8FBFF36F8FC8
:10A8E0004FF01021D1F80002002803DBD1F800025C
:10A8F000002822DA184B1E6018480468002CFCD08F
:10A900001524C1F800420568002DFCD0C1F80442AE
:10A9100001680029FCD01A6001680029FCD0BFF34F
:10A920004F8F0A48F03801680D4A01F4E061114385
:10A930000160BFF34F8F00BFFDE70B490948086076
:10A94000F0BD0000E00F00F03C050040FCED00E031
:10A950000404001020C5004004E5014000E401406B
:10A960000400FA050090D003D02C002002E008C8B3
:10A97000121F08C1002AFAD170477047002001E079
:10A9800001C1121F002AFBD170472DE9FC5F002591
:10A99000168807461580406B14468946A8464FF036
:10A9A0000C0A11234FF0020B98B101784846032E90
:10A9B00048D380F800B02288521C92B2228083547F
:10A9C0002288521C92B2228009F802102088401C72
:10A9D00020803A6BDAB12088494600F11205B54271
:10A9E00030D80B5420881023401C80B220800B5498
:10A9F0002088401C20800F202388155C401ECD54E9
:10AA0000238840B25B1C23800028F5DA454697F87E
:10AA10002E0030B133462246494601F037FF05008B
:10AA200011D197F82D0030B132462146484600F04A
:10AA300007FC050007D1B87820B32088C846001D60
:10AA4000B04202D95046BDE8FC9F684679DF002835
:10AA5000F9D12188032008F8010020881921401C21
:10AA600080B2208008F800102088401C80B220802E
:10AA700000EB0801BDF8000002F0C8FD0146208887
:10AA800008442080F878B8B1228897F90310D31CC5
:10AA90004846B342D6D800F802B022880123521C9F
:10AAA00092B2228083542288521C92B2228009F8EA
:10AAB00002102088401C20807868B8B1218890F965
:10AAC0000020CB1C4846B342BCD800F801B0218816
:10AAD0000A23491C89B2218043542188491C89B228
:10AAE000218009F801202088401C2080388950B13D
:10AAF000CDE900464B460622022107F1080002F08C
:10AB0000F9FD05009FD1388A50B1CDE900464B468A
:10AB10000722032107F1100002F0ECFD050092D19D
:10AB2000388B50B1CDE900464B461522142107F170
:10AB3000180002F0DFFD050085D1386A30B13346D8
:10AB40002246494600F048FF0500DBD1786A30B163
:10AB500033462246494602F025F80500D2D197F83F
:10AB60002C0038B1334622464946384602F0C4FB31
:10AB70000500C7D1387838B13346224649463846B1
:10AB800002F042F80500BDD128465CE710B5044646
:10AB9000114890B0382180798DF83A0041F2305058
:10ABA000ADF838006846FFF702FD02208DF800007E
:10ABB00000208DF802000120ADF808000EA80390D7
:10ABC0008DF803400021684600F08EFA002801D07D
:10ABD00000F0D6F810B010BD603200202DE9F0432F
:10ABE000284C8BB0A078002838D118212648FFF7D0
:10ABF000DEFCA046E078244C00254FF02809012611
:10AC000078B304F148070095019502951022694632
:10AC1000F81D0395FFF7D6FC20B3F81DCDE9080712
:10AC200009A8049008A806908DF814608DF81C609F
:10AC30000420FFF7ABFF25700220207204A8E0601B
:10AC4000A4F810906582104873DF08B100F098F8FE
:10AC50000E494FF40030086088F802600BB0BDE880
:10AC6000F08307E00520FFF791FF267067602572EB
:10AC70002582E7E70620FFF789FF257065602572CA
:10AC8000DEE70000942C0020483200200C05005024
:10AC90002DE9FF410546087A0E4681070AD00322B6
:10ACA0001146284600F0FCFB002801D000F068F8AF
:10ACB000BDE8FF812849009001F046FD010011D157
:10ACC000254C7168143C009A6069FFF757FC0098A6
:10ACD00001F006FD010005D169461F4801F010FD95
:10ACE000010003D0284601F0A5F8E1E70420019017
:10ACF0000098800802906069039001A801F064F850
:10AD000007000BD0092F10D0606901F0B3FC0100DF
:10AD100002D0284601F08EF83946E3E7307A2169FF
:10AD2000084420616069A061C2E7307A216901446A
:10AD3000216160780028BBD06089401E0004000CAF
:10AD40006081B5D1284600F073FB08B100F018F817
:10AD500020896081ACE70000A82C0020BFF34F8F52
:10AD600005480168054A01F4E06111430160BFF341
:10AD70004F8F00BFFDE700000CED00E00400FA0576
:10AD80000EB500210091CDE901106A4644F20100A0
:10AD9000FFF7E4FF38B50C46064BE268097853F834
:10ADA000225062680092024604F10C006369A847D1
:10ADB00038BD0000242C002070B50F4B054605203F
:10ADC0001C785E78A64216D01C7818789E88B0420F
:10ADD00001DA401C00E0002018705E88D86804FB8F
:10ADE00006002860986800EBC4039B880B8050F82D
:10ADF00034001060002070BD2C2C00202DE9F84F8D
:10AE0000374C8246934660880F46814265D8354864
:10AE10004FF000098DF800904FF6FF780068454626
:10AE200010EAE81012D0103840B2002806DA00F01C
:10AE30000F0000F1E02090F8140D03E000F1E02095
:10AE400090F800044609012E01D107E00426684667
:10AE500036DF022809D008B1FFF792FF2178607829
:10AE6000A288904203DA401C02E072B6F6E70020A6
:10AE7000C0B2884207D065786078904201DA401C01
:10AE800000E000206070012E08D062B69DF800003E
:10AE900037DF022802D008B1FFF772FF45451AD00C
:10AEA000A068BAF1000F40F835B00DD067B16188E5
:10AEB000E0683A4605FB01005146FFF75FFBA068DA
:10AEC00000EBC500878003E000EBC500A0F804900C
:10AED0000020BDE8F88F0420FBE70920F9E7000017
:10AEE0002C2C002004ED00E00EB504E0029ABDF821
:10AEF00004100098904702AA01A96846FFF75CFF7A
:10AF00000028F3D00EBD000030B5CB0008339DB251
:10AF100093074FF0000401D0072030BD044B9A6026
:10AF20002A44DA605C701C7058809980002030BD23
:10AF30002C2C0020074B9B6823B12AB120B100685C
:10AF4000037C1BB1082070470720704741744261A1
:10AF5000002070473C2C002010B50446082902D080
:10AF60000020FFF70DFFD4E90010BDE810400847AE
:10AF70001CB5044ACDE9000108216846FFF73EFFF1
:10AF80001CBD000059AF07002DE9F04780469946E7
:10AF900014460F4690074FF0000634D11C4D8CB379
:10AFA00002F04CF90320C5F81490287004F1180041
:10AFB000002107EB4703AC6004EBC102491C16708B
:10AFC00056709770506000EBC3000329F4DBEE600D
:10AFD0006E70AE701420FFF743FB03211420FFF7BF
:10AFE00060FB1420FFF747FB0A49C1F800800321EA
:10AFF0001120FFF756FB0748001F0068286100205A
:10B00000BDE8F08701E00720FAE7AE60FBE700004B
:10B010003C2C0020081501402DE9F843DFF8709022
:10B020000D461746D9F80810044651B34CB3052D08
:10B0300002D20720BDE8F883606910B3607C012864
:10B0400021D0002602F020FBD9F80810804601EB41
:10B05000C800694602F03AFBB8B1012100F8041BB0
:10B060000C4910C0096880E8E200D9F8081001EB2B
:10B07000C8009DF8001041701420FFF707FB002066
:10B08000D8E70820D6E72E46DCE70420D2E7000008
:10B090003C2C002004150140F8B5124E0446B1685E
:10B0A000E1B1DCB16069C8B10027277402F0ECFAA5
:10B0B0000546B068694600EBC50002F007FB78B1B1
:10B0C000022101704460B0689DF8001000EBC500DB
:10B0D00041701420FFF7DAFA3846F8BD0820F8BDB1
:10B0E0000420F8BD3C2C0020F0B50C4693B01F2185
:10B0F0000726ADF80010ADF80410002750B1C17854
:10B1000049070DD56A4602A9FFF73FFC002808D180
:10B1100002AD02E00025ADF800706CB1E07810B12E
:10B12000304613B0F0BD01AA0AA92046FFF72DFC56
:10B130000028F6D10AAA02E00022ADF80470BDF89A
:10B140000400C3B2BDF80000C1B2284672DFE8E7D0
:10B1500070B5054601461C220F48FFF70FFA0F4C49
:10B1600000262670286830B1016861604068A060E0
:10B17000201D7ADF02E00948001D7BDF00280AD18C
:10B180004FF6FF7060806670BDE87040044A002191
:10B190000448FFF7CFBE70BD54300020002C0020C3
:10B1A00029D60700F8D7070070B5204C068800257F
:10B1B0001D49E289102E15D01D4B112E1ED0122EC6
:10B1C0002BD0502E19D130F8061F914215D1018B8A
:10B1D000022912D1807E10F0010F13D0BDE870401B
:10B1E00000F040BC83884B80D0F81630CB60D0F89C
:10B1F0001A0008614D70002AF0D070BD4FF6FF7044
:10B2000048804D701868FFF747FF0028F5D0A16906
:10B210000029F2D0BDE87040084750F8062FCA60F8
:10B2200040680861DAE70000002C0020543000205C
:10B23000F8D7070001480068FFF72EBFF8D70700CE
:10B240007CB5054608880C460930904201D90C208F
:10B250007CBD684671DF0028FAD121880820685437
:10B2600020881B21401C80B2208029542088401C4B
:10B2700080B220802844DDF801100160BDF805107F
:10B2800081802088801D80B220809DF8001001B14F
:10B29000012129542088401C208000207CBD000012
:10B2A000F0B585B00A4605002FD02888A0F57F416B
:10B2B000FF392CD01748007848B3164C1020641C76
:10B2C0000127207007206070A7700320ADF81000E0
:10B2D0000026E11C104602F09EF9BDF81010009601
:10B2E0000844ADF81000019602960396288AADF83E
:10B2F000000004A8CDE902048DF80270ADF80460E6
:10B3000028886946A6DF05B0F0BD0E20FBE70820BF
:10B31000F9E70000142C002030B585B00D4604007C
:10B3200039D0BDB36868A8B31C4B4FF6FF702080BE
:10B330000FCB0DF1040C8CE80F0041F23050ADF84A
:10B34000000001A8811E63DF002821D1221D69466B
:10B350000120A0DF00281BD19DF80200A07120462B
:10B3600000F08AFE002813D1204600F0DEFC002801
:10B370000ED12946204600F009FF002808D1686850
:10B38000A062A86800B1E0620549012008700020B1
:10B3900005B030BDFFE70E20FAE70000FCD707003C
:10B3A000142C00203EB500283CD000293AD0826AF7
:10B3B000002A37D00A88102A23D0112A33D0502AE5
:10B3C00021D0512A2ED104460A4611F8060F022830
:10B3D00028D14888238A984224D1907A042821D001
:10B3E00006281FD005281DD02046891C01F064FDC9
:10B3F000002817D0E16A002914D003B0BDE830401E
:10B400000847898811E0CA8803899A420AD108222C
:10B410008DF800208A7F20318DF808200191826A02
:10B42000694690473EBD4FF6FF7101803EBD00006A
:10B43000F0B585B00A4605002BD02888A0F57F41DD
:10B44000FF3928D01548007828B3144C1120641C0B
:10B45000012720700026ADF81070611C104602F024
:10B46000DAF8BDF8101000960844ADF81000019607
:10B4700002960396288AADF8000004A8CDE90204DC
:10B480008DF80270ADF8046028886946A6DF05B023
:10B49000F0BD0E20FBE70820F9E70000142C002087
:10B4A00030B585B028B30388A3F57F44FF3C22D094
:10B4B000124B1B78FBB1114B10255B1C00241D7037
:10B4C00059709A7001250321ADF810100094019471
:10B4D00002940394018AADF8001004A9CDE9021387
:10B4E0008DF80250ADF8044000886946A6DF05B02B
:10B4F00030BD0E20FBE70820F9E70000142C0020E7
:10B5000010B50446FFF750FE21460448FFF74AFFF6
:10B510002046BDE8104001F00DBC00006032002064
:10B5200010B51B4A8AB00DF1140C1ECA8CE81E001F
:10B5300020B105A818DF08B1FFF722FC4FF4F42072
:10B5400013DF08B1FFF71CFC124B482212490820F8
:10B5500001F052FF08B1FFF713FC01216A460846CB
:10B5600001F024FF08B1FFF70BFC01208DF80C005F
:10B57000684601F011FF08B1FFF702FC074801F02F
:10B5800053FF002801D0FFF7FBFB0AB010BD0000FD
:10B59000E8D70700E5D307009C2E0020BDD40700A4
:10B5A00038B50068401C18D00024684600F048F9FF
:10B5B0000098017801290FD1418851B181684FF479
:10B5C00040500022806800F07BFA0099498881424F
:10B5D00001D1012400E00024204638BD70B511DF00
:10B5E00008B1FFF7CDFB4FF0E0210020D1F800318A
:10B5F0005FF0010404FA00F21A420AD042B202F0EB
:10B600001F0504FA05F15209920002F1E022C2F886
:10B610008011401C2028EDD34FF44054A06813DF64
:10B6200008B1FFF7ADFBA068BDE8704000F006B9B7
:10B6300008B5684600F004F900980178A52904D0FF
:10B640000079AA2801D0002008BD012008BD10B54E
:10B6500000F028FE18B900F0CAFA002813D06420C0
:10B6600001F020FB00F0E1FD08B1FFF789FB00F0DD
:10B6700019FE08B1FFF784FB00F09AFA041E01D00E
:10B68000FFF77EFB204610BD00B587B014220849A5
:10B6900001A8FEF773FF05980DF1040C00909CE8DB
:10B6A0000F0000F013F802F08DF807B0002000BD85
:10B6B00018D8070010B500F009FC002805D100F0EB
:10B6C000FBFE044602F07EF8204610BD2DE9F8434B
:10B6D00004460E4617461D466846DDF8208000F0F9
:10B6E000AFF814F0FF024FEA14412F4C2F484FF0EF
:10B6F00001034FF0FF0C10D0012A14D0032A23D0ED
:10B700000021022A2DD0052A3FD0042A44D0062A3F
:10B7100001D104202070BDE8F8834180856003706A
:10B7200080F804C00BE04180F11929448160A52113
:10B73000017080F804C0C0F81880C6600EE0237065
:10B740001A4800F063F8E6E700990A7802704A8820
:10B75000428089688160AA210171C660C0E90475D0
:10B76000EDE7009A1578A52D0AD00570558845801B
:10B770009268826080F804C0C16001614161DEE7C7
:10B780004180816080F800C0F4E700F071FE08B1EC
:10B79000FFF7F6FA0320BDE74180816080F800C022
:10B7A000009909790171CBE75C2C002064310020FD
:10B7B0000EB5084A07CA8DE8070001F0A7FC00286B
:10B7C00006D105494FF4FE204860684601F0BEFCF2
:10B7D0000EBD00000CD80700602C002038B50446D0
:10B7E000684600F02DF8009801782170418861804A
:10B7F0008168A16001792171C168E16001692161FD
:10B80000416961618069A06138BD000010B50446DE
:10B810001C21094801F070FC08B1FFF7B1FA0023C0
:10B820001C222146044801F0A3FC002803D0BDE8F7
:10B830001040FFF7A5BA10BD602C0020FEF772BEC5
:10B84000014901607047000000F0070070B5174C17
:10B850000F20217801EB410104EBC1021449536927
:10B8600012F8045F4968012D0ED0032D0BD14FF063
:10B870008050006980B2B3FBF0F0084428DF002854
:10B8800001D10121A17070BD0803516856690D1ADC
:10B890003118926818441044B5F5805F02D2AA08A6
:10B8A00029DFECE74FF4806229DFE8E77030002001
:10B8B0001C2C002000EB40020548002100EBC200D8
:10B8C000022201718160C0E904218161C160704779
:10B8D000703000202DE9F041134C069E65780A2D4A
:10B8E0001FD027783D44EDB20A2D01D30A3DEDB2B9
:10B8F00005EB450504EBC5052871AA61D1E90001F6
:10B90000C5E90401C5E90236A178002021B9FFF795
:10B910009DFF112800D100206178491C6170BDE8AD
:10B92000F0810420FBE70000703000202DE9F05F7B
:10B930002648C168F1B3DFF898B00E688146DBF89D
:10B9400000400769C078E11B21F07F45ED1CB0B9CC
:10B95000DFF880804FF48030C8F84403C8F804034F
:10B960001120FEF77DFE1120FEF785FE4FF0010A43
:10B97000C8F800A02F20FEF799FD89F803A0B54272
:10B9800000D23546124BE8193C3320F07F40186056
:10B99000DBF800105A46091B21F07F41001B20F004
:10B9A0007F40C91C81420FD9106818602F20FEF714
:10B9B0007DFD00E004E0BDE8F05F1120FEF766BE0B
:10B9C000BDE8F05F01F03ABCBDE8F09F3C2C0020E0
:10B9D00004150140001001402DE9F041178806468A
:10B9E000B81D14460D46984202D90C20BDE8F081DE
:10B9F0003188072206290AD34FF4486C4FF6FF73AB
:10BA0000614501D9994202D17088062801D21046B9
:10BA1000ECE7604501D99842F9D1994203D09842A8
:10BA200001D08142F3D80520E85520881221401C1E
:10BA300080B2208029542088401C80B22080411987
:10BA4000308801F0E3FD2188084480B2208041194C
:10BA5000708801F0DBFD2188084420800020C5E7C4
:10BA6000FFF78EB9F8B5134800F0FCFE114D002623
:10BA7000114C0C3D30B16169B9B101208DF8000065
:10BA8000684611E0287820B1616971B18DF80060D5
:10BA9000F6E7687858B1A168084800220068FFF707
:10BAA000BBFA10B1A16901B188472E70F8BD616879
:10BAB000F2E700000C2C002054300020F8D70700DB
:10BAC00010B5044612B11088002211E04FF6FF7045
:10BAD000FAE7030A43EA0023A05C5840C0F30313CB
:10BAE000584080EA003080B2C3B280EA4310521C52
:10BAF0008A42EED310BD000030B5164C87B0164810
:10BB0000E16801F0F9FA08B1FFF73AF91248E26882
:10BB1000083800234168083001F02AFB050015D1E0
:10BB2000142101A8FEF743FD00208DF804000A4807
:10BB30000DF1040C20388088ADF80600E068049010
:10BB4000059800909CE80F00FFF7C0FD07B028465D
:10BB500030BD0000A0310020882C0020032161F3BB
:10BB6000070008B50549064B898861F31F400ECBD5
:10BB70000094FFF7ABFD002008BD0000682C0020FA
:10BB8000A4310020012138B561F307000649074BB5
:10BB9000898861F31F404FF440518C680ECB0094AC
:10BBA000FFF794FD002038BD682C0020A431002050
:10BBB00000B58BB004A8FFF711FE089800280CD040
:10BBC000079860B107990A9808440021CDE9001050
:10BBD000089880080290684618DF0BB000BD4FF44B
:10BBE00040508068C0F5F42100EB5100EDE700B54E
:10BBF0008BB004A8FFF7F2FD089800280FD0079833
:10BC000078B107990A980844032100914FF4F42170
:10BC1000CDE90110089880080390684618DF0BB042
:10BC200000BD4FF440508068C0F5F42100EB510096
:10BC3000EAE7000070B504000BD000223C210B485D
:10BC4000FFF73EFF094DAD1E2988884203D00B2027
:10BC500070BD0E2070BD3C2204492046FEF78EFCCC
:10BC60002888401C2880002070BD0000827F0020B2
:10BC700070B515460A4603281FD0042824D1134C5A
:10BC800039B1E088A0F57F41FF391DD0132176DF5F
:10BC90000DE0284600F0EEFC08B1FFF771F8A0694E
:10BCA000A84211D1012203210948FFF7F9FB00281E
:10BCB0000AD0BDE87040FFF763B80121104600F0DC
:10BCC000FEFF02460121EFE770BD0000942C00202A
:10BCD0006032002000B587B01422074901A8FEF7A2
:10BCE0004DFC05980DF1040C00909CE80F00FFF747
:10BCF000EDFC07B000BD000030D8070070471FB54D
:10BD000003230093CDE9010190080390684618DFF2
:10BD100004B010BD1FB501230093CDE901019008C7
:10BD20000390684618DF04B010BD30B58FB00546EB
:10BD30001C216846FEF73BFC00249DF8000001949E
:10BD400040F018008DF800000394049405940694C4
:10BD5000A8798DF8360041F23150ADF834000C94DA
:10BD60009DF83000142120F0FF008DF830009DF880
:10BD7000310020F00F00401C20F0F00010308DF852
:10BD800031009DF8320020F00600801C20F00800F1
:10BD900040F011008DF8320007A8FEF708FC0DA84E
:10BDA00007900CA80890ADF824401720ADF8264065
:10BDB000ADF828000B94A88805F1100307AA69467E
:10BDC000A2DF0FB030BD000070B5050004D0287AA6
:10BDD000800703D0102070BD0E2070BD144C607819
:10BDE000032803D0042801D0052801D0082070BD05
:10BDF0006868E1688600A0683044884204D94FF042
:10BE0000FF30A0600C2070BD00F014FB0028FAD1B8
:10BE1000A9683246A368206901F0AAF90028F2D186
:10BE2000A1683144A160E2689142ECD0092070BD64
:10BE3000682C002010B50A4604460321104600F085
:10BE40003EFF024603212046FFF72AFB002803D0CD
:10BE5000BDE81040FEF794BF10BD0000094810B5C2
:10BE60004078072801D0082010BD07480068FFF778
:10BE700013F908B1FEF784FF04488068BDE810405C
:10BE800000470000682C00202CD80700303200202A
:10BE900010B50D4C6078052813D1D4E90201884211
:10BEA0000FD10620607000F0C5FA002808D1206983
:10BEB000E168406800F08EF8002801D10721617028
:10BEC00010BD082010BD0000682C0020FEB51B4EE0
:10BED0001B4C06F11800002507C88DE80700A57067
:10BEE000A58004F12001684601F030F908B16570C1
:10BEF000FEBD13494FF44050203180684860216AEC
:10BF0000A161C0F5F42100EB51000D490D4A183133
:10BF1000486000210948FFF70DF808B1FEF730FF2F
:10BF200000224FF470113068FFF776F808B1FEF781
:10BF300027FF0120A56060700020FEBD2CD80700FF
:10BF4000682C002019C4070010B5094C0820A1680E
:10BF500001B110BD61780429FBD1A178054800F03A
:10BF600047F810B10021A17010BD0521617010BD0E
:10BF7000682C0020B03100202DE9F041134C074619
:10BF80006078032805D0042805D008252846BDE898
:10BF9000F08104206070A06808B10820F7E700F085
:10BFA00049FA0500F3D178688600A07881198029C4
:10BFB00001D90920EBE7064AB96810443246FEF77A
:10BFC000DDFAA0783044A070E0E70000682C002083
:10BFD000B031002010B50022FFF772FD0349098837
:10BFE000884201D00B2010BD002010BD3C32002043
:10BFF00070B500250C290ED343180189044600EBC7
:10C000004101581A0A38C2B21948022A027002D3F2
:10C010000A318B4201D2092070BD1648FEF7AEFAF4
:10C020004FF010214FF6FF70B1F88020824202D00D
:10C030002388934219D1B1F88210814202D06088DE
:10C04000884212D120894FF6FE724FF44053A84225
:10C050000BD904EB45014989914204D09E896D1C9E
:10C06000B6B2B142F3D1002070BD0B2070BD00000C
:10C07000902C00203C32002030B58FB005461C21AA
:10C080006846FEF794FA00249DF80000019440F001
:10C0900004008DF800000394049405940694A87994
:10C0A0008DF8360041F23250ADF834000C949DF812
:10C0B0003000142120F0FF008DF830009DF8310091
:10C0C00020F00F00401C20F0F00010308DF83100FF
:10C0D0009DF8320020F00600801C20F0180040F08F
:10C0E00001008DF8320007A8FEF761FA0DA807904D
:10C0F0000CA80890ADF824401420ADF82640ADF807
:10C1000028000B94A88805F1080307AA6946A2DF56
:10C110000FB030BD084910B5A1F120000161022126
:10C120004170C168203000F0E7FF002803D0BDE86F
:10C130001040FEF725BE10BD882C00200B4910B51D
:10C14000A1F118000161022141704FF44050806854
:10C15000C0F5F4204108054800F0CEFF002803D0C8
:10C16000BDE81040FEF70CBE10BD0000802C002082
:10C170000149486170470000682C002038B5062549
:10C1800065F307000094FFF7A1FA38BD70B58EB0D3
:10C190000E4605461C216846FEF709FA00249DF864
:10C1A0000000019440F002008DF800000394049414
:10C1B00005940694A8798DF8360041F23450ADF814
:10C1C00034000C949DF83000142120F00F00401C26
:10C1D00020F0F00010308DF830009DF8310020F094
:10C1E000FF008DF831009DF8320020F00600801C21
:10C1F00020F0180040F001008DF8320007A8FEF78B
:10C20000D6F90DA807900CA808900220ADF82400DC
:10C21000ADF82640ADF828000B96A88805F120035C
:10C2200007AA6946A2DF0EB070BD2DE9F04188B0C3
:10C230006846FFF7D3FA039800282BD0069A00F53A
:10C2400080504FF48051904227D9A2F58050440885
:10C250001046039A00EB440687184FF440500D46F1
:10C26000806801EB440890420ED204F5805004220D
:10C270000146FFF74FFD00280CD12946042208464D
:10C28000FFF748FD002805D1BA1B2346414630463A
:10C2900000F038F808B0BDE8F081039A0698FFF77F
:10C2A00039FDF7E730B58FB002A8FFF797FA059888
:10C2B000002817D0089A00F580504FF48051904222
:10C2C00016D9A2F58050430810464FF44054059A01
:10C2D000A468059D024400EB430001EB4301AC421E
:10C2E00002D20E200FB030BD121A00F00BF8F9E7A1
:10C2F0000BAB032083E80700059880080E900BA87D
:10C3000018DFEFE72DE9F0411C4617460D460646BB
:10C31000FFF7F5FC002818D0B5F5805F07D9234654
:10C32000291B301B1A46FFF7EDFF00280DD13A46B6
:10C3300029463046FFF7EEFC002806D13A4629464A
:10C340003046BDE8F041FFF7DABCBDE8F0810000FF
:10C3500070B542682748D2E90043D2E90212C0E929
:10C360000212C0E900430078440701D5840705D1D3
:10C370009C0703D18C0701D1940701D0062070BD22
:10C380001D4D0B441A44EA60B1F5A04F17D8194C63
:10C39000C3074FF4405104F190040AD08868C0F5F7
:10C3A000F42090420BD31548206015486060154872
:10C3B00010E08968C1F5F421B2EB510F01D90C20CE
:10C3C00070BD1149216011496160800701D5104895
:10C3D00000E01048A0606878012802D008263046A6
:10C3E00070BD00F027F80600FAD12168E868884798
:10C3F000F5E70000A0310020682C002015C10700DF
:10C40000D5BC070085BB07003DC10700FDBC070088
:10C410005DBB0700F9BA070068B5054E0125357008
:10C42000052565F307000094FFF750F968BD00008B
:10C43000682C00200C4810B5007808B1082010BD09
:10C440000A4C2068FEF728FE08B1FEF799FC00228E
:10C450004FF470112068FEF7DFFD041E01D0FEF7D7
:10C460008FFC204610BD0000682C00202CD807004F
:10C4700010B5104C01202070E088A0F57F41FF39F5
:10C4800005D0132176DF68B1FEF77AFC0AE0A078C8
:10C4900040B174DF08B1FEF773FC112000F042FCDC
:10C4A0000020A070FEF7C6FE08B1FEF769FC002070
:10C4B00010BD0000942C002030B54B4D87B00024F7
:10C4C0002C702C71112000F025FC122000F022FCB1
:10C4D000112000F027FC122000F024FC434800F05B
:10C4E00051FF00287AD14248FFF742FE00F0AEF833
:10C4F000002873D13F48FFF79DFB002871D06846A4
:10C5000071DF08B1FEF73CFC9DF801006946401C54
:10C510008DF80100002070DF08B1FEF731FC9DF8B6
:10C52000080035A120F00F00401C20F0F000103072
:10C530008DF80800072202A87CDF08B1FEF720FC76
:10C5400000940C20ADF8000018200194ADF8020012
:10C55000ADF804404FF4C870ADF8060068467ADFC5
:10C5600008B1FEF70DFC08200094ADF80000244847
:10C570000190244802901F4869463038FEF7CCFEEF
:10C5800008B1FEF7FDFB1C216846FEF710F840F6E7
:10C59000CD40CDE900404FF48040029003208DF85B
:10C5A0000C001948ADF80E408DF81040CDE905405B
:10C5B0006846FEF7CDFD08B1FEF7E2FB0A481C30E5
:10C5C000017821F01F010C3121F0200101700721B9
:10C5D000417010218170FEF701FB002007B030BDD3
:10C5E000FFE70120E8709AE7942C002001B50700CE
:10C5F00071BC070090320020446675546172670078
:10C60000B1CF070081D3070061BA07000E4910B50A
:10C610004A788C780023A24212D0521CD2B24A70BF
:10C62000022A00D14B70084A4B78183252F8232066
:10C6300002600869104420F07F400861012010BDAD
:10C640000360002010BD00003C2C002007480021A2
:10C65000074A017002F5907002600822C0E90121CA
:10C66000C16001614161816108467047B52C0020BD
:10C67000CC320020F0B5194A0646916861B355697D
:10C680001020691A01F00701D2F800700B4601244E
:10C6900001EBC10C07EB8C0CB44506D1956904FA8B
:10C6A00001F675400020956104E0491C01F0070186
:10C6B0008D42EDD1491C956901F0070104FA03F39D
:10C6C0001D420AD19368002B07D05B1E936053680C
:10C6D0005B1C53600B46F1E70420F0BDEC330020F7
:10C6E000064920230A7C0968521E02F0070202EB69
:10C6F000C20203EB8202885000207047EC33002016
:10C7000070B5D0B1C9B10F4AD368C3B15B1ED36055
:10C7100093685B1C93605369156803EBC30405EBD6
:10C7200084060660202000EB84005B1C285808600B
:10C7300003F007005061002070BD0E2070BD042082
:10C7400070BD0000EC33002010B5E9B100220A6092
:10C75000104A5368E3B1202818D85B1E5360D06894
:10C76000401CD0601069136800EBC00403EB840325
:10C770000B60012383409169401C194300F00700BE
:10C7800091611061002010BD0E2010BD0C2010BD65
:10C79000042010BDEC330020FEB50446087A820761
:10C7A0000ED000F00302C2F104030022154604E09B
:10C7B0004E683554401CC0B2521C9A42F8D30872DD
:10C7C0000120009048680290087A8008019068462D
:10C7D000FFF7D2FB00280BD0022100F070FA0246CE
:10C7E00002212046FEF75CFE002801D0FEF7C8FAC1
:10C7F000FEBD0000F8B51A4C207800282ED0206924
:10C8000028B10026E06820B1002526B110E00126FD
:10C81000F8E70125F9E7684652DF052803D020B183
:10C82000FEF7AEFA04E0012602E02169009888478D
:10C8300085B96088ADF800006946A06861DF052809
:10C8400003D020B1FEF79CFA04E0012502E0D4E910
:10C8500002018847002EDED0002DD6D0F8BD0000A2
:10C86000BC2C0020054940880A88904204D349889E
:10C87000884201D80120704700207047042C002016
:10C88000800701D0002070470120704730B5148820
:10C89000E51C9D4201D90C2030BD02250D551388A1
:10C8A0001C245B1C9BB21380CC5413885B1C9BB272
:10C8B0001380012807D0022807D0032807D00428B6
:10C8C00007D0072030BD002004E0012002E0CD5455
:10C8D00001E00320C8541088401C1080002030BDA7
:10C8E0002DE9F047DFF8ACA0DAF80C009AF8004028
:10C8F00080469AF80460DAF80890DAF810703AE0A6
:10C9000009EBC4052A7833E002EB42016B68521C44
:10C9100003EBC101AB78D2B2934200D100220B7875
:10C92000022B02D0032B23D11FE0D1F804C0034611
:10C93000014603E0614503D00B46C969C1B1F9E77F
:10C94000B1B18B4205D1C06918B9134F0126BE6041
:10C950000027D1F800C0C969D96149B10B686344A7
:10C960000B6005E00174C06900E000210028F9D1E6
:10C9700069789142C8D1641EE4B2C1D2CAE9030702
:10C980008AF80460404502D00120BDE8F08700200D
:10C99000FBE700003C2C0020001001402DE9F0478F
:10C9A00005462F48002680460778D0F80C904BE0CB
:10C9B000D8F8080000EBC70440E002D02846ED6933
:10C9C0001EE02078616800EB4002401CC0B201EB21
:10C9D000C2012070A278904200D126700A7848687F
:10C9E000012A2DD1027C5ABB8A684260CA688260E3
:10C9F0000A69C2604969816198F8041001B1466012
:10CA00004268D8F81030DFF85CC0D11A21F07F41BD
:10CA1000614502D28268114406E0991A826821F0C9
:10CA20007F418A4202D9511A016000E006604660E7
:10CA3000012186600174C66100F088FD002DBCD123
:10CA4000207861788842BCD17F1EFFB2B0D2D8F87E
:10CA50000C10494502D00120BDE8F0870020FBE71B
:10CA60003C2C0020FFFF7F001CB5484801680026D1
:10CA7000B12950D000251124142701222046009608
:10CA800000231146019600F034F9641CBC42F4D92D
:10CA90003F4F4FF4F01038604FF010204069B0F570
:10CAA000F42F02D00020FEF76BF94FF080500069A0
:10CAB000B0F5805F02D00020FEF762F9354B364AB0
:10CAC00005210020FEF760FA08B1FEF759F90323AB
:10CAD000CDE9006300221020114600F00AF9FEF7AC
:10CAE00067FEFEF7A5FD2A4E4FF40024361DA8B1BF
:10CAF0003460FEF7ACFD08B1FEF742F985F00100A5
:10CB0000FEF70EFD00F0B8FBFEF7BEFD08B1FEF724
:10CB100037F93C6008E001250660ACE785F00100CC
:10CB2000FEF7FEFC00F0A8FB194808300068000C76
:10CB300010F0010F05D0002028434FF4405506D1D6
:10CB400001E00120F8E7A868FEF72AFD30B934605B
:10CB5000FEF7B0FD08B1FEF713F93C60A868FEF7D8
:10CB60001FFD28B1FEF764FD10B9A868FEF736FD79
:10CB7000BFF34F8F09480168094A01F4E06111438E
:10CB80000160BFF34F8F00BFFDE700001C050040B0
:10CB90000805005071AF0700D42C00200CED00E018
:10CBA0000400FA0570B5144682880E4605462088B2
:10CBB000111D0144921C994201D8FE2A01D90C2072
:10CBC00070BD521C32542088FF21401C80B220804E
:10CBD00031542088401C80B220808119288800F0C0
:10CBE00015FD2188084480B22080AA8842B1A96836
:10CBF00041B13044FDF7C2FC2088A9880844208058
:10CC0000002070BD072070BDF8B50E4601781446AF
:10CC10000546012901D1687830B12088821C9A42EA
:10CC20002DD8012902D006E00720F8BD697801441B
:10CC3000891C994223D8181A801E87B2ADF800705B
:10CC40002188B01C084469467DDF0028EDD1287892
:10CC5000022805D1BDF80010B94201D809210AE027
:10CC60000821012805D16878B84202D8ADF8000043
:10CC700001E0ADF80070BDF80000FE2801D90C20DD
:10CC8000F8BD2288401CB0542088401C80B220800F
:10CC900031542088401C2080BDF8001008442080BA
:10CCA0000020F8BD31B540F2E73404E0401E0090AA
:10CCB0002046FDF7BFFB00980028F7D138BD0828B3
:10CCC0000BD003DC38B106280FD108E00B280AD0BE
:10CCD0000C280AD105E0012070470220704703208C
:10CCE000704704207047042901D0062070470520B2
:10CCF000704730B541EA4201DDE9034541EA83016D
:10CD0000800041EA042100F1A04041EA0541C0F859
:10CD1000001730BD0321800000F1A040C0F80017CB
:10CD20007047000001218140014801607047000008
:10CD300008050050F0B55C4C05460088002701222C
:10CD4000E688A7B0172810D024DC112843D00EDCC9
:10CD5000022878D0102808D1544980030860112097
:10CD6000FFF7E0FFA888E080A77027B0F0BD50492A
:10CD7000132801F1180446D01428F6D1E8894A8D09
:10CD80000026904200D126460023CA1DA8883146BD
:10CD900082DF1BE0512868D00EDC18287CD01928CF
:10CDA000E3D1A8790028E0D1A770E068401EE060D8
:10CDB0004AD0FDF713FFD8E7522872D05528D4D1B6
:10CDC000A8790028D1D11321304676DF0028CCD0B5
:10CDD000FDF7D6FFC9E78020ADF894003220E0606F
:10CDE0001220FFF79FFF012325AA01A9E088AADFEF
:10CDF00008B1FDF7C5FF207808B9FDF7EFFE4FF643
:10CE0000FF70E080B1E72A48C91D483850F8482F24
:10CE100005928288ADF8182080798DF81A001022CA
:10CE200001A8FDF7ABFB1C2221460EA8FDF7A6FBCF
:10CE300001A80B901C4A0EA81C320A9007AB852152
:10CE400030467FDFC2E70CE014221A4901A8FDF743
:10CE500095FB059801AC009094E80F00FEF736FCB6
:10CE600083E70021304667DFB0E7A9790029A2D027
:10CE7000A87A042803D0062801D005289BD10229CE
:10CE80000BD08DF8842000BF4FF4C170ADF888003E
:10CE900021A93046A8DF99E703E002208DF884003D
:10CEA000F2E700F0F9F991E7942C00200C0500500E
:10CEB000903200205CD80700F0B58BB001274FF00E
:10CEC000020E05468DF80CE08DF81270C88AADF898
:10CED0001400088BADF8160001F11A000026089620
:10CEE0000690ADF820E007A8ADF8226009900C4646
:10CEF000A98A288808AAA5DF18B1E96AC9B18847B4
:10CF000017E09DF81C0010F0010F12D0ADF8106072
:10CF1000288803A9A8DF002812D1A17E04F11B00F4
:10CF2000092943D2DFE801F0420E1D2326282A40BA
:10CF30002C0040F2FD10ADF81000288803A9A8DFEE
:10CF40000BB0F0BD8DF800600DE006221DE000BFC3
:10CF50008DF808700190AA6A69462846904700201B
:10CF6000EEE78DF80070228B022AF1D2EDE78DF802
:10CF700000E0F0E7032012E0042010E005200EE0BE
:10CF8000208B032805D2032208212846FEF788FAC1
:10CF9000D6E7B4F81B00ADF8040018B106208DF8F0
:10CFA0000000D8E70720FAE70920F8E70322ECE7BA
:10CFB00070B504460B780120314A0A2B16D2DFE8FF
:10CFC00003F01F243A050D1651563D5AFEF760FF37
:10CFD0000421FFF774FE0246042123E0FFF748FA1C
:10CFE00008B1FDF7CDFEFEF739FF28B970BDFFF798
:10CFF0003FFA08B1FDF7C4FEBDE87040FFF7BEB8C8
:10D00000107148680078507170BD02201071486836
:10D0100000780128F8D1FEF797FF0221FFF74FFEB5
:10D02000024602212046FEF73BFA0028ECD0BDE87C
:10D030007040FDF7A5BE0320107170BD1279204627
:10D04000012A07D0022A09D0032AF6D1BDE8704090
:10D05000FDF71EBEBDE8704000F0F0B9BDE87040BD
:10D06000FFF79ABB507088881081508170BD0020F6
:10D070005070108170BD20461169FEF711F9D4E798
:10D08000942C002006480378012B03D1012901D1FB
:10D0900002210170100001D0FDF772BE7047000040
:10D0A0005C2C002070B5124C1E4615466078012994
:10D0B00002D0032914D107E0052811D163697BB19F
:10D0C0003246294604200AE0022809D1094840686E
:10D0D000804703206070636913B132462946984740
:10D0E000280003D0BDE87040FDF74ABE70BD0000C7
:10D0F000682C00203032002008B50B460022014683
:10D1000003200092FEF7E6FB08BD000070B50D4E4F
:10D1100000240D48746025460470447084702846CD
:10D12000FEF7C8FB6D1C0A2DF9D3064934600020B8
:10D130000831746041F82040401C0228FAD30020D6
:10D1400070BD00001C2C002070300020074B1A68B6
:10D15000022A09D00A6003F10801006841F82200A0
:10D16000521C00201A607047042070471C2C0020BD
:10D17000F8B507461D4616460C460846FFF780FBE5
:10D1800058B16019FFF77CFB38B133462246394667
:10D1900001200095FEF79EFBF8BD1020F8BD0000B1
:10D1A00070B5244C06460022A078012841D1002306
:10D1B0002146A3700D78022E05EB450001EBC0015E
:10D1C00003D0032E35D10D202EE01B484668761C77
:10D1D00046608968B1EB063F15D843606078401E11
:10D1E0006070681CC0B220700A2801D30A38207011
:10D1F00005EB450004EBC0011046091DFDF7CAFD13
:10D200002846FEF757FB6078002812D0A078002847
:10D210000FD1FEF71BFB00280BD0112809D0217875
:10D2200001EB410104EBC101BDE87040091DFDF7B0
:10D23000B1BD70BD703000201C2C002070B50126DF
:10D2400070044FF0E0210025C1F88001084C401027
:10D25000C4F84803C4F8080366602F20FDF726F9D8
:10D26000A660044C2F202561FDF720F9E57070BD04
:10D27000001001403C2C002010B5064A1421082063
:10D28000FDF742FE002803D0BDE81040FDF778BD51
:10D2900010BD0000E42E002070B5154C4FF6FF7550
:10D2A000E088A84201D1082070BDE178D1B1012306
:10D2B00008221049A9DF0028F6D1022300221146D6
:10D2C000E088A9DF0028EFD12A460C21E088A7DFFB
:10D2D000A0F54051023903D0082801D0891EE3D1BE
:10D2E000002070BD00231A461946A9DF70BD00005A
:10D2F000942C0020C43200202DE9F0410746806ABA
:10D3000014468846C8B3002531E000BFB96A05EB72
:10D31000450001EB8006B088801CFE2802D90C2055
:10D32000BDE8F0812288401C08F8020020881622FF
:10D33000401C80B2208008F800202088401C80B269
:10D34000208000EB0801308800F060F92188084453
:10D3500080B22080B28842B1B16871B14044FDF71B
:10D360000DF92088B188084420806D1CEDB297F833
:10D370002C00A842CAD80020D2E7FFE70720CFE759
:10D38000FDF7FEBC18B10349C860002070470E20AD
:10D3900070470000BC2C00201CB50349019100918E
:10D3A000694660DF1CBD0000002C002070B50E46F1
:10D3B0000546144614211046FDF7F9F80120208097
:10D3C0000021216121732672657205B1A0720020CF
:10D3D00070BD10B511B10020FDF7D2FCBDE81040C2
:10D3E000FFF708BA0021024A0846FDF707BD000012
:10D3F000D3D30700FDF7B2BC70B509B18C0701D0DB
:10D40000072070BD064C0125A1606280054963605C
:10D4100010DF0028F5D1257016202EDF70BD00002A
:10D42000BC2C0020F5D3070018B103490861002087
:10D4300070470E2070470000BC2C002010B588B04B
:10D4400004460020009001900290039019481A4A67
:10D4500040798DF800001068926804906846CDE924
:10D460000502087A0C2805D003221CE0FDF788FC91
:10D4700008B010BD4868C278016862F31F6101916D
:10D48000C279416862F31F610291C17A806861F3D9
:10D490001F60039004A8FEF75BFF0028E8D001217D
:10D4A000FFF70DFC024601212046FDF7F9FF002899
:10D4B000DCD1DDE7942C002050D80700FFF770BEC8
:10D4C0002DE9F84F204C00256846D4E903B6FFF754
:10D4D0009DF88046FFF704FA0746A946B8F1000F09
:10D4E00025D00023009ACC46E06819E00768014681
:10D4F000974202D9BA1A026014E0C1F800C0D1F80C
:10D500000C80D21BC8693B448A46B8F1000F07D093
:10D51000F71827F07F47C1E90178CAF81C500D467B
:10D520000028E3D1E0602846FFF738FA04E02846F7
:10D53000FFF734FA00B917B15846FEF7F7F984F847
:10D540000490BDE8F88F00003C2C00200D4B10B576
:10D55000D96831B102680C68A24204D8A21A0A60E4
:10D56000C161D86010BD0B4603E00B46C969121BB0
:10D5700021B10C689442F8D3A41A0C600260C16116
:10D58000D86110BD3C2C00202DE9F0411D4DEC6808
:10D59000002C35D01C48002700682969B846401A7D
:10D5A00020F07F462068B04215D82246361A07443C
:10D5B000E469107C68B182F810806B6933B1D2E9FC
:10D5C0000501984728B1FDF7DBFB02E0D2E9051021
:10D5D0008847002CE6D16978A878814206D1401CA2
:10D5E000C0B2A870022801D185F802800548A97848
:10D5F000183040F82170BDE8F0411420FDF746B81E
:10D60000BDE8F0813C2C0020041501400870000AA0
:10D610004870022070470870020A4A70020C8A7033
:10D62000000EC8700420704738B515494888A0F529
:10D630007F42FF3A23D04A78124C521CD2B24A7031
:10D64000237B93420AD3091D75DF002817D0A169F7
:10D65000002914D001B0BDE83040084700254D70C6
:10D66000217C29B13B2176DF10B1A16901B1884746
:10D670006169002903D08DF800506846884738BD9D
:10D68000002C0020543000200F480068C005C00D59
:10D6900013D0103840B2002806DA00F00F0000F175
:10D6A000E02090F8140D03E000F1E02090F8000471
:10D6B0004009012803D0032803D00220704700202E
:10D6C000704701207047000004ED00E04278837845
:10D6D000521CD2B2934200D100220378934201D16E
:10D6E000002070470A704168407800EB400001EB71
:10D6F000C00070472DE9FC411646DDE90854CDE92C
:10D7000000541F468046022200F00CF8002807D182
:10D71000CDE900543B4610223146404600F002F865
:10D72000BDE8FC812DE9FC5F0026DDE90C4B994644
:10D7300092468E4680462788354630E0D8F8040069
:10D74000002200EB850069460068019001A865DFB2
:10D75000002830D19DF8000050451FD10EB10021A6
:10D7600000E00221228808441118594522D846B900
:10D77000521C90B2208009F800E02088401C2080D4
:10D780000126218801A801EB0902694665DF00280E
:10D7900011D120889DF80010084420806D1CB8F835
:10D7A0000000A842CADC56B12088C01B401E80B2CF
:10D7B000FF2802D90C20BDE8FC9F09F807000020D3
:10D7C000F9E7000010B5074C48DF08B1FDF7D8FABB
:10D7D000FDF78AFB2078022803D0032801D0042813
:10D7E000F2D110BD5C2C00200200000000000000FF
:10D7F00000000000000000003430002023D1BCEA0B
:10D800005F782315DEEF12120000000085D00700BC
:10D810000000000000000000020000000000000006
:10D820000000000000000000000000008031002027
:10D8300004000000000000000000000000000000E4
:10D8400000000000A5D0070000000000000000005C
:10D8500003000000000000000000000005000000C0
:10D8600000000000000000000000000000000000B8
:10D8700090D80700002C0020D40000006CA90700FD
:10D8800064D90700D42C0020342700007CA90700AD
:10D890000000000000000000000000000000000088
:10D8A0000000000000000000000000000000000078
:10D8B0000000000000000000000000000000000068
:10D8C0000000000000000000000000000000000058
:10D8D0000000000000000000000000000000000048
:10D8E0000000000000000000000000000000000038
:10D8F0000000000000000000000000000000000028
:10D900000000000000000000000000000000000017
:10D910000000000000000000000000000000000007
:10D9200000000000000000000000FFFF00000000F9
:10D9300032000000000000000000000000000000B5
:10D9400000000000000000000000000000000000D7
:10D9500000000000000000000000000000000000C7
:04D960000090D00360
:020000041000EA
:0410140000A0070031
:020000041000EA
:0410180000E00700ED
:040000050007A4014B
:00000001FF
